{
  "contractName": "BlindAuction",
  "abi": [
    {
      "constant": true,
      "inputs": [
        {
          "name": "",
          "type": "uint256"
        }
      ],
      "name": "auctionIds",
      "outputs": [
        {
          "name": "",
          "type": "uint256"
        }
      ],
      "payable": false,
      "stateMutability": "view",
      "type": "function"
    },
    {
      "constant": true,
      "inputs": [
        {
          "name": "",
          "type": "uint256"
        }
      ],
      "name": "auctions",
      "outputs": [
        {
          "name": "id",
          "type": "uint256"
        },
        {
          "name": "item_name",
          "type": "string"
        },
        {
          "name": "start_price",
          "type": "uint256"
        },
        {
          "name": "auctionEndTime",
          "type": "uint256"
        },
        {
          "name": "highestBidder",
          "type": "address"
        },
        {
          "name": "highestBid",
          "type": "uint256"
        }
      ],
      "payable": false,
      "stateMutability": "view",
      "type": "function"
    },
    {
      "constant": true,
      "inputs": [
        {
          "name": "",
          "type": "uint256"
        }
      ],
      "name": "auctionCreators",
      "outputs": [
        {
          "name": "",
          "type": "address"
        }
      ],
      "payable": false,
      "stateMutability": "view",
      "type": "function"
    },
    {
      "constant": true,
      "inputs": [],
      "name": "auctionCounter",
      "outputs": [
        {
          "name": "",
          "type": "uint256"
        }
      ],
      "payable": false,
      "stateMutability": "view",
      "type": "function"
    },
    {
      "constant": true,
      "inputs": [
        {
          "name": "",
          "type": "uint256"
        },
        {
          "name": "",
          "type": "address"
        }
      ],
      "name": "auctionParticipants",
      "outputs": [
        {
          "name": "",
          "type": "bool"
        }
      ],
      "payable": false,
      "stateMutability": "view",
      "type": "function"
    },
    {
      "constant": false,
      "inputs": [
        {
          "name": "_item_name",
          "type": "string"
        },
        {
          "name": "_start_price",
          "type": "uint256"
        },
        {
          "name": "_bidding_time",
          "type": "uint256"
        }
      ],
      "name": "auctionItem",
      "outputs": [],
      "payable": false,
      "stateMutability": "nonpayable",
      "type": "function"
    },
    {
      "constant": false,
      "inputs": [
        {
          "name": "_id",
          "type": "uint256"
        },
        {
          "name": "_bid",
          "type": "uint256"
        }
      ],
      "name": "participateInAuction",
      "outputs": [],
      "payable": false,
      "stateMutability": "nonpayable",
      "type": "function"
    },
    {
      "constant": true,
      "inputs": [],
      "name": "now",
      "outputs": [
        {
          "name": "",
          "type": "uint256"
        }
      ],
      "payable": false,
      "stateMutability": "view",
      "type": "function"
    },
    {
      "constant": true,
      "inputs": [],
      "name": "getAllAuctions",
      "outputs": [
        {
          "components": [
            {
              "name": "id",
              "type": "uint256"
            },
            {
              "name": "item_name",
              "type": "string"
            },
            {
              "name": "start_price",
              "type": "uint256"
            },
            {
              "name": "auctionEndTime",
              "type": "uint256"
            },
            {
              "name": "highestBidder",
              "type": "address"
            },
            {
              "name": "highestBid",
              "type": "uint256"
            },
            {
              "name": "participants",
              "type": "address[]"
            },
            {
              "name": "bids",
              "type": "uint256[]"
            }
          ],
          "name": "",
          "type": "tuple[]"
        }
      ],
      "payable": false,
      "stateMutability": "view",
      "type": "function"
    },
    {
      "constant": true,
      "inputs": [
        {
          "name": "_id",
          "type": "uint256"
        }
      ],
      "name": "revealAuction",
      "outputs": [
        {
          "name": "",
          "type": "address"
        },
        {
          "name": "",
          "type": "uint256"
        }
      ],
      "payable": false,
      "stateMutability": "view",
      "type": "function"
    },
    {
      "constant": true,
      "inputs": [
        {
          "name": "_id",
          "type": "uint256"
        }
      ],
      "name": "displayBids",
      "outputs": [
        {
          "name": "",
          "type": "address[]"
        },
        {
          "name": "",
          "type": "uint256[]"
        }
      ],
      "payable": false,
      "stateMutability": "view",
      "type": "function"
    }
  ],
  "bytecode": "0x608060405234801561001057600080fd5b50611a3c806100206000396000f3fe6080604052600436106100a9576000357c0100000000000000000000000000000000000000000000000000000000900480632a6433be146100ae57806355f78c8d146100eb578063571a26a0146101295780635fc13a3a1461016b5780638abe09f2146101945780639c45f4be146101bf578063a7e76644146101fc578063cbd2bdfd14610227578063e551152214610252578063ec2db31b14610290578063f70602b8146102b9575b600080fd5b3480156100ba57600080fd5b506100d560048036036100d09190810190611132565b6102f6565b6040516100e291906117ab565b60405180910390f35b3480156100f757600080fd5b50610112600480360361010d9190810190611132565b610319565b60405161012092919061166e565b60405180910390f35b34801561013557600080fd5b50610150600480360361014b9190810190611132565b6103ae565b604051610162969594939291906117c6565b60405180910390f35b34801561017757600080fd5b50610192600480360361018d9190810190611197565b6104a2565b005b3480156101a057600080fd5b506101a9610780565b6040516101b691906117ab565b60405180910390f35b3480156101cb57600080fd5b506101e660048036036101e19190810190611132565b610788565b6040516101f39190611653565b60405180910390f35b34801561020857600080fd5b506102116107bb565b60405161021e91906117ab565b60405180910390f35b34801561023357600080fd5b5061023c6107c1565b60405161024991906116ce565b60405180910390f35b34801561025e57600080fd5b5061027960048036036102749190810190611132565b610a87565b604051610287929190611697565b60405180910390f35b34801561029c57600080fd5b506102b760048036036102b291908101906110cb565b610bd4565b005b3480156102c557600080fd5b506102e060048036036102db919081019061115b565b610e03565b6040516102ed91906116f0565b60405180910390f35b60018181548110151561030557fe5b906000526020600020016000915090505481565b6000806000806000858152602001908152602001600020905080600301544211151561037a576040517f08c379a00000000000000000000000000000000000000000000000000000000081526004016103719061176b565b60405180910390fd5b8060040160009054906101000a900473ffffffffffffffffffffffffffffffffffffffff1681600501549250925050915091565b6000602052806000526040600020600091509050806000015490806001018054600181600116156101000203166002900480601f0160208091040260200160405190810160405280929190818152602001828054600181600116156101000203166002900480156104605780601f1061043557610100808354040283529160200191610460565b820191906000526020600020905b81548152906001019060200180831161044357829003601f168201915b5050505050908060020154908060030154908060040160009054906101000a900473ffffffffffffffffffffffffffffffffffffffff16908060050154905086565b6003600083815260200190815260200160002060009054906101000a900473ffffffffffffffffffffffffffffffffffffffff1673ffffffffffffffffffffffffffffffffffffffff163373ffffffffffffffffffffffffffffffffffffffff1614151515610546576040517f08c379a000000000000000000000000000000000000000000000000000000000815260040161053d9061170b565b60405180910390fd5b6004600083815260200190815260200160002060003373ffffffffffffffffffffffffffffffffffffffff1673ffffffffffffffffffffffffffffffffffffffff16815260200190815260200160002060009054906101000a900460ff161515156105e6576040517f08c379a00000000000000000000000000000000000000000000000000000000081526004016105dd9061174b565b60405180910390fd5b60008060008481526020019081526020016000209050806003015442101515610644576040517f08c379a000000000000000000000000000000000000000000000000000000000815260040161063b9061172b565b60405180910390fd5b80600201548211151561068c576040517f08c379a00000000000000000000000000000000000000000000000000000000081526004016106839061178b565b60405180910390fd5b80600501548211156106e557338160040160006101000a81548173ffffffffffffffffffffffffffffffffffffffff021916908373ffffffffffffffffffffffffffffffffffffffff1602179055508181600501819055505b806006013390806001815401808255809150509060018203906000526020600020016000909192909190916101000a81548173ffffffffffffffffffffffffffffffffffffffff021916908373ffffffffffffffffffffffffffffffffffffffff1602179055505080600701829080600181540180825580915050906001820390600052602060002001600090919290919091505550505050565b600042905090565b60036020528060005260406000206000915054906101000a900473ffffffffffffffffffffffffffffffffffffffff1681565b60025481565b60608060018054905060405190808252806020026020018201604052801561080357816020015b6107f0610e32565b8152602001906001900390816107e85790505b50905060008090505b600180549050811015610a7f5760008060018381548110151561082b57fe5b90600052602060002001548152602001908152602001600020610100604051908101604052908160008201548152602001600182018054600181600116156101000203166002900480601f0160208091040260200160405190810160405280929190818152602001828054600181600116156101000203166002900480156108f45780601f106108c9576101008083540402835291602001916108f4565b820191906000526020600020905b8154815290600101906020018083116108d757829003601f168201915b5050505050815260200160028201548152602001600382015481526020016004820160009054906101000a900473ffffffffffffffffffffffffffffffffffffffff1673ffffffffffffffffffffffffffffffffffffffff1673ffffffffffffffffffffffffffffffffffffffff16815260200160058201548152602001600682018054806020026020016040519081016040528092919081815260200182805480156109f657602002820191906000526020600020905b8160009054906101000a900473ffffffffffffffffffffffffffffffffffffffff1673ffffffffffffffffffffffffffffffffffffffff16815260200190600101908083116109ac575b5050505050815260200160078201805480602002602001604051908101604052809291908181526020018280548015610a4e57602002820191906000526020600020905b815481526020019060010190808311610a3a575b5050505050815250508282815181101515610a6557fe5b90602001906020020181905250808060010191505061080c565b508091505090565b60608060008060008581526020019081526020016000209050806003015442111515610ae8576040517f08c379a0000000000000000000000000000000000000000000000000000000008152600401610adf9061176b565b60405180910390fd5b806006018160070181805480602002602001604051908101604052809291908181526020018280548015610b7157602002820191906000526020600020905b8160009054906101000a900473ffffffffffffffffffffffffffffffffffffffff1673ffffffffffffffffffffffffffffffffffffffff1681526020019060010190808311610b27575b5050505050915080805480602002602001604051908101604052809291908181526020018280548015610bc357602002820191906000526020600020905b815481526020019060010190808311610baf575b505050505090509250925050915091565b6000600260008154809291906001019190505590506000824201905061010060405190810160405280838152602001868152602001858152602001828152602001600073ffffffffffffffffffffffffffffffffffffffff168152602001600081526020016000604051908082528060200260200182016040528015610c695781602001602082028038833980820191505090505b5081526020016000604051908082528060200260200182016040528015610c9f5781602001602082028038833980820191505090505b50815250600080848152602001908152602001600020600082015181600001556020820151816001019080519060200190610cdb929190610e8e565b50604082015181600201556060820151816003015560808201518160040160006101000a81548173ffffffffffffffffffffffffffffffffffffffff021916908373ffffffffffffffffffffffffffffffffffffffff16021790555060a0820151816005015560c0820151816006019080519060200190610d5d929190610f0e565b5060e0820151816007019080519060200190610d7a929190610f98565b509050506001829080600181540180825580915050906001820390600052602060002001600090919290919091505550336003600084815260200190815260200160002060006101000a81548173ffffffffffffffffffffffffffffffffffffffff021916908373ffffffffffffffffffffffffffffffffffffffff1602179055505050505050565b60046020528160005260406000206020528060005260406000206000915091509054906101000a900460ff1681565b6101006040519081016040528060008152602001606081526020016000815260200160008152602001600073ffffffffffffffffffffffffffffffffffffffff1681526020016000815260200160608152602001606081525090565b828054600181600116156101000203166002900490600052602060002090601f016020900481019282601f10610ecf57805160ff1916838001178555610efd565b82800160010185558215610efd579182015b82811115610efc578251825591602001919060010190610ee1565b5b509050610f0a9190610fe5565b5090565b828054828255906000526020600020908101928215610f87579160200282015b82811115610f865782518260006101000a81548173ffffffffffffffffffffffffffffffffffffffff021916908373ffffffffffffffffffffffffffffffffffffffff16021790555091602001919060010190610f2e565b5b509050610f94919061100a565b5090565b828054828255906000526020600020908101928215610fd4579160200282015b82811115610fd3578251825591602001919060010190610fb8565b5b509050610fe19190610fe5565b5090565b61100791905b80821115611003576000816000905550600101610feb565b5090565b90565b61104a91905b8082111561104657600081816101000a81549073ffffffffffffffffffffffffffffffffffffffff021916905550600101611010565b5090565b90565b60006110598235611993565b905092915050565b600082601f830112151561107457600080fd5b81356110876110828261185b565b61182e565b915080825260208301602083018583830111156110a357600080fd5b6110ae8382846119af565b50505092915050565b60006110c382356119a5565b905092915050565b6000806000606084860312156110e057600080fd5b600084013567ffffffffffffffff8111156110fa57600080fd5b61110686828701611061565b9350506020611117868287016110b7565b9250506040611128868287016110b7565b9150509250925092565b60006020828403121561114457600080fd5b6000611152848285016110b7565b91505092915050565b6000806040838503121561116e57600080fd5b600061117c858286016110b7565b925050602061118d8582860161104d565b9150509250929050565b600080604083850312156111aa57600080fd5b60006111b8858286016110b7565b92505060206111c9858286016110b7565b9150509250929050565b6111dc8161194b565b82525050565b60006111ed826118d3565b8084526020840193506111ff83611894565b60005b82811015611231576112158683516111d3565b61121e82611917565b9150602086019550600181019050611202565b50849250505092915050565b6000611248826118c8565b80845260208401935061125a83611887565b60005b8281101561128c576112708683516111d3565b6112798261190a565b915060208601955060018101905061125d565b50849250505092915050565b60006112a3826118de565b808452602084019350836020820285016112bc856118a1565b60005b848110156112f55783830388526112d7838351611586565b92506112e282611924565b91506020880197506001810190506112bf565b508196508694505050505092915050565b6000611311826118f4565b808452602084019350611323836118bb565b60005b8281101561135557611339868351611644565b6113428261193e565b9150602086019550600181019050611326565b50849250505092915050565b600061136c826118e9565b80845260208401935061137e836118ae565b60005b828110156113b057611394868351611644565b61139d82611931565b9150602086019550600181019050611381565b50849250505092915050565b6113c58161195d565b82525050565b60006113d6826118ff565b8084526113ea8160208601602086016119be565b6113f3816119f1565b602085010191505092915050565b6000603782527f41756374696f6e2063726561746f722063616e6e6f742070617274696369706160208301527f746520696e207468656972206f776e2061756374696f6e0000000000000000006040830152606082019050919050565b6000601182527f41756374696f6e2068617320656e6465640000000000000000000000000000006020830152604082019050919050565b6000602d82527f596f75206861766520616c72656164792070617274696369706174656420696e60208301527f20746869732061756374696f6e000000000000000000000000000000000000006040830152606082019050919050565b6000601a82527f41756374696f6e20686173206e6f742079657420656e6465642e0000000000006020830152604082019050919050565b6000602782527f426964206d7573742062652067726561746572207468616e207374617274696e60208301527f67207072696365000000000000000000000000000000000000000000000000006040830152606082019050919050565b60006101008301600083015161159f6000860182611644565b50602083015184820360208601526115b782826113cb565b91505060408301516115cc6040860182611644565b5060608301516115df6060860182611644565b5060808301516115f260808601826111d3565b5060a083015161160560a0860182611644565b5060c083015184820360c086015261161d828261123d565b91505060e083015184820360e08601526116378282611361565b9150508091505092915050565b61164d81611989565b82525050565b600060208201905061166860008301846111d3565b92915050565b600060408201905061168360008301856111d3565b6116906020830184611644565b9392505050565b600060408201905081810360008301526116b181856111e2565b905081810360208301526116c58184611306565b90509392505050565b600060208201905081810360008301526116e88184611298565b905092915050565b600060208201905061170560008301846113bc565b92915050565b6000602082019050818103600083015261172481611401565b9050919050565b600060208201905081810360008301526117448161145e565b9050919050565b6000602082019050818103600083015261176481611495565b9050919050565b60006020820190508181036000830152611784816114f2565b9050919050565b600060208201905081810360008301526117a481611529565b9050919050565b60006020820190506117c06000830184611644565b92915050565b600060c0820190506117db6000830189611644565b81810360208301526117ed81886113cb565b90506117fc6040830187611644565b6118096060830186611644565b61181660808301856111d3565b61182360a0830184611644565b979650505050505050565b6000604051905081810181811067ffffffffffffffff8211171561185157600080fd5b8060405250919050565b600067ffffffffffffffff82111561187257600080fd5b601f19601f8301169050602081019050919050565b6000602082019050919050565b6000602082019050919050565b6000602082019050919050565b6000602082019050919050565b6000602082019050919050565b600081519050919050565b600081519050919050565b600081519050919050565b600081519050919050565b600081519050919050565b600081519050919050565b6000602082019050919050565b6000602082019050919050565b6000602082019050919050565b6000602082019050919050565b6000602082019050919050565b600061195682611969565b9050919050565b60008115159050919050565b600073ffffffffffffffffffffffffffffffffffffffff82169050919050565b6000819050919050565b600061199e82611969565b9050919050565b6000819050919050565b82818337600083830152505050565b60005b838110156119dc5780820151818401526020810190506119c1565b838111156119eb576000848401525b50505050565b6000601f19601f830116905091905056fea265627a7a7230582023fe5315ffba5eed5c5d357ca83b6cdedba02b664c88b6e7dc158b03f797598b6c6578706572696d656e74616cf50037",
  "source": "/// SPDX-License-Identifier: MIT\r\npragma solidity ^0.5.1;\r\npragma experimental ABIEncoderV2;\r\ncontract BlindAuction {\r\n    // Structure to store information about an auction\r\n    struct AuctionInfo {\r\n        uint id;\r\n        string item_name;\r\n        uint start_price;\r\n        uint auctionEndTime;\r\n        address highestBidder;\r\n        uint highestBid;\r\n\t\taddress[] participants;\r\n        uint[] bids;\r\n    }\r\n\r\n    // Mapping from auction ID to auction information\r\n    mapping(uint => AuctionInfo) public auctions;\r\n\r\n    // Array to store all auction IDs\r\n    uint[] public auctionIds;\r\n\r\n    // Counter for generating unique auction IDs\r\n    uint public auctionCounter;\r\n\r\n    // Mapping from auction ID to the address of the auction creator\r\n    mapping(uint => address) public auctionCreators;\r\n \tmapping(uint => mapping(address => bool)) public auctionParticipants;\r\n\r\n\r\n\r\n    // Create an auction\r\n    function auctionItem(string memory _item_name, uint _start_price, uint _bidding_time) public {\r\n        // Generate a unique ID for the auction\r\n        uint id = auctionCounter++;\r\n        // Calculate the end date for the auction in seconds\r\n        uint auctionEndTime = block.timestamp + _bidding_time;\r\n        // Store the auction information in the mapping\r\n        auctions[id] = AuctionInfo(id, _item_name, _start_price, auctionEndTime, address(0), 0, new address[](0), new uint[](0));\r\n        // Store the ID in the array of all auction IDs\r\n        auctionIds.push(id);\r\n\r\n        // Store the address of the auction creator in the mapping\r\n        auctionCreators[id] = msg.sender;\r\n    }\r\n\r\n    // Participate in an auction\r\n    function participateInAuction(uint _id, uint _bid) public {\r\n        // Get the auction information\r\n\t\trequire(msg.sender != auctionCreators[_id], \"Auction creator cannot participate in their own auction\");\r\n\t\trequire(!auctionParticipants[_id][msg.sender], \"You have already participated in this auction\");\r\n\t\t\r\n        AuctionInfo storage auction = auctions[_id];\r\n\t\r\n        // Check if the auction has ended\r\n\r\n\t    require(block.timestamp < auction.auctionEndTime, \"Auction has ended\");\r\n        // Check if the bidder is the auction creator\r\n        // Check if the bid is greater than the starting price\r\n        require(_bid > auction.start_price, \"Bid must be greater than starting price\");\r\n\r\n        // Update the highest bidder and highest bid if necessary\r\n        if (_bid > auction.highestBid) {\r\n            auction.highestBidder = msg.sender;\r\n            auction.highestBid = _bid;\r\n        }\r\n\t\tauction.participants.push(msg.sender);\r\n    \tauction.bids.push(_bid);\r\n    }\r\n    // Reveal the auction after it has ended\r\n\tfunction now() public view returns(uint) {\r\n\t\treturn block.timestamp;\r\n\t}\r\n    function getAllAuctions() public view returns (AuctionInfo[] memory) {\r\n        AuctionInfo[] memory auctionsList = new AuctionInfo[](auctionIds.length);\r\n        for (uint i = 0; i < auctionIds.length; i++) {\r\n            auctionsList[i] = auctions[auctionIds[i]];\r\n    }\r\n  return auctionsList;\r\n}\r\n    function revealAuction(uint _id) public view returns (address, uint) {\r\n        AuctionInfo storage auction = auctions[_id];\r\n        require(block.timestamp > auction.auctionEndTime, \"Auction has not yet ended.\");\r\n        return (auction.highestBidder, auction.highestBid);\r\n    }\r\n\tfunction displayBids(uint _id) public view returns (address[] memory, uint[] memory) {\r\n    // Check if the auction ID exists in the auctions mapping\r\n  \tAuctionInfo storage auction = auctions[_id];\r\n        require(block.timestamp > auction.auctionEndTime, \"Auction has not yet ended.\");\r\n    return (auction.participants, auction.bids);\r\n}\r\n}",
  "sourcePath": "E:\\DuongTanHuy\\Capstone\\Capstone_I\\source-code-project\\contracts\\BlindAuction.sol",
  "compiler": {
    "name": "solc",
    "version": "0.5.1+commit.c8a2cb62.Emscripten.clang"
  },
  "schemaVersion": "3.4.10",
  "updatedAt": "2022-12-28T17:43:29.426Z",
  "networkType": "ethereum",
  "devdoc": {
    "methods": {}
  },
  "userdoc": {
    "methods": {}
  }
}