{
  "contractName": "BlindAuction",
  "abi": [
    {
      "constant": true,
      "inputs": [
        {
          "name": "",
          "type": "uint256"
        }
      ],
      "name": "auctionIds",
      "outputs": [
        {
          "name": "",
          "type": "uint256"
        }
      ],
      "payable": false,
      "stateMutability": "view",
      "type": "function"
    },
    {
      "constant": true,
      "inputs": [
        {
          "name": "",
          "type": "uint256"
        }
      ],
      "name": "auctions",
      "outputs": [
        {
          "name": "id",
          "type": "uint256"
        },
        {
          "name": "item_name",
          "type": "string"
        },
        {
          "name": "start_price",
          "type": "uint256"
        },
        {
          "name": "auctionEndTime",
          "type": "uint256"
        },
        {
          "name": "highestBidder",
          "type": "address"
        },
        {
          "name": "highestBid",
          "type": "uint256"
        }
      ],
      "payable": false,
      "stateMutability": "view",
      "type": "function"
    },
    {
      "constant": true,
      "inputs": [
        {
          "name": "",
          "type": "uint256"
        }
      ],
      "name": "auctionCreators",
      "outputs": [
        {
          "name": "",
          "type": "address"
        }
      ],
      "payable": false,
      "stateMutability": "view",
      "type": "function"
    },
    {
      "constant": true,
      "inputs": [],
      "name": "auctionCounter",
      "outputs": [
        {
          "name": "",
          "type": "uint256"
        }
      ],
      "payable": false,
      "stateMutability": "view",
      "type": "function"
    },
    {
      "constant": true,
      "inputs": [
        {
          "name": "",
          "type": "uint256"
        },
        {
          "name": "",
          "type": "address"
        }
      ],
      "name": "auctionParticipants",
      "outputs": [
        {
          "name": "",
          "type": "bool"
        }
      ],
      "payable": false,
      "stateMutability": "view",
      "type": "function"
    },
    {
      "constant": false,
      "inputs": [
        {
          "name": "_item_name",
          "type": "string"
        },
        {
          "name": "_start_price",
          "type": "uint256"
        },
        {
          "name": "_bidding_time",
          "type": "uint256"
        }
      ],
      "name": "auctionItem",
      "outputs": [],
      "payable": false,
      "stateMutability": "nonpayable",
      "type": "function"
    },
    {
      "constant": false,
      "inputs": [
        {
          "name": "_id",
          "type": "uint256"
        },
        {
          "name": "_bid",
          "type": "uint256"
        }
      ],
      "name": "participateInAuction",
      "outputs": [],
      "payable": false,
      "stateMutability": "nonpayable",
      "type": "function"
    },
    {
      "constant": true,
      "inputs": [],
      "name": "now",
      "outputs": [
        {
          "name": "",
          "type": "uint256"
        }
      ],
      "payable": false,
      "stateMutability": "view",
      "type": "function"
    },
    {
      "constant": true,
      "inputs": [],
      "name": "getAllAuctions",
      "outputs": [
        {
          "components": [
            {
              "name": "id",
              "type": "uint256"
            },
            {
              "name": "item_name",
              "type": "string"
            },
            {
              "name": "start_price",
              "type": "uint256"
            },
            {
              "name": "auctionEndTime",
              "type": "uint256"
            },
            {
              "name": "highestBidder",
              "type": "address"
            },
            {
              "name": "highestBid",
              "type": "uint256"
            },
            {
              "name": "participants",
              "type": "address[]"
            },
            {
              "name": "bids",
              "type": "uint256[]"
            }
          ],
          "name": "",
          "type": "tuple[]"
        }
      ],
      "payable": false,
      "stateMutability": "view",
      "type": "function"
    },
    {
      "constant": true,
      "inputs": [
        {
          "name": "_id",
          "type": "uint256"
        }
      ],
      "name": "revealAuction",
      "outputs": [
        {
          "name": "",
          "type": "address"
        },
        {
          "name": "",
          "type": "uint256"
        }
      ],
      "payable": false,
      "stateMutability": "view",
      "type": "function"
    },
    {
      "constant": true,
      "inputs": [
        {
          "name": "_id",
          "type": "uint256"
        }
      ],
      "name": "displayBids",
      "outputs": [
        {
          "name": "",
          "type": "address[]"
        },
        {
          "name": "",
          "type": "uint256[]"
        }
      ],
      "payable": false,
      "stateMutability": "view",
      "type": "function"
    },
    {
      "constant": true,
      "inputs": [
        {
          "name": "_id",
          "type": "uint256"
        },
        {
          "name": "_account",
          "type": "address"
        }
      ],
      "name": "displayAccountBids",
      "outputs": [
        {
          "name": "",
          "type": "uint256"
        }
      ],
      "payable": false,
      "stateMutability": "view",
      "type": "function"
    }
  ],
  "bytecode": "0x608060405234801561001057600080fd5b50611c44806100206000396000f3fe6080604052600436106100b4576000357c0100000000000000000000000000000000000000000000000000000000900480632a6433be146100b957806355f78c8d146100f6578063571a26a0146101345780635fc13a3a146101765780638abe09f21461019f5780639c45f4be146101ca578063a7e7664414610207578063b9e33d9414610232578063cbd2bdfd1461026f578063e55115221461029a578063ec2db31b146102d8578063f70602b814610301575b600080fd5b3480156100c557600080fd5b506100e060048036036100db91908101906112e3565b61033e565b6040516100ed91906119b3565b60405180910390f35b34801561010257600080fd5b5061011d600480360361011891908101906112e3565b610361565b60405161012b929190611856565b60405180910390f35b34801561014057600080fd5b5061015b600480360361015691908101906112e3565b6103f6565b60405161016d969594939291906119ce565b60405180910390f35b34801561018257600080fd5b5061019d60048036036101989190810190611348565b6104ea565b005b3480156101ab57600080fd5b506101b46107c8565b6040516101c191906119b3565b60405180910390f35b3480156101d657600080fd5b506101f160048036036101ec91908101906112e3565b6107d0565b6040516101fe919061183b565b60405180910390f35b34801561021357600080fd5b5061021c610803565b60405161022991906119b3565b60405180910390f35b34801561023e57600080fd5b506102596004803603610254919081019061130c565b610809565b60405161026691906119b3565b60405180910390f35b34801561027b57600080fd5b50610284610972565b60405161029191906118b6565b60405180910390f35b3480156102a657600080fd5b506102c160048036036102bc91908101906112e3565b610c38565b6040516102cf92919061187f565b60405180910390f35b3480156102e457600080fd5b506102ff60048036036102fa919081019061127c565b610d85565b005b34801561030d57600080fd5b506103286004803603610323919081019061130c565b610fb4565b60405161033591906118d8565b60405180910390f35b60018181548110151561034d57fe5b906000526020600020016000915090505481565b600080600080600085815260200190815260200160002090508060030154421115156103c2576040517f08c379a00000000000000000000000000000000000000000000000000000000081526004016103b990611973565b60405180910390fd5b8060040160009054906101000a900473ffffffffffffffffffffffffffffffffffffffff1681600501549250925050915091565b6000602052806000526040600020600091509050806000015490806001018054600181600116156101000203166002900480601f0160208091040260200160405190810160405280929190818152602001828054600181600116156101000203166002900480156104a85780601f1061047d576101008083540402835291602001916104a8565b820191906000526020600020905b81548152906001019060200180831161048b57829003601f168201915b5050505050908060020154908060030154908060040160009054906101000a900473ffffffffffffffffffffffffffffffffffffffff16908060050154905086565b6003600083815260200190815260200160002060009054906101000a900473ffffffffffffffffffffffffffffffffffffffff1673ffffffffffffffffffffffffffffffffffffffff163373ffffffffffffffffffffffffffffffffffffffff161415151561058e576040517f08c379a000000000000000000000000000000000000000000000000000000000815260040161058590611913565b60405180910390fd5b6004600083815260200190815260200160002060003373ffffffffffffffffffffffffffffffffffffffff1673ffffffffffffffffffffffffffffffffffffffff16815260200190815260200160002060009054906101000a900460ff1615151561062e576040517f08c379a000000000000000000000000000000000000000000000000000000000815260040161062590611953565b60405180910390fd5b6000806000848152602001908152602001600020905080600301544210151561068c576040517f08c379a000000000000000000000000000000000000000000000000000000000815260040161068390611933565b60405180910390fd5b8060020154821115156106d4576040517f08c379a00000000000000000000000000000000000000000000000000000000081526004016106cb90611993565b60405180910390fd5b806005015482111561072d57338160040160006101000a81548173ffffffffffffffffffffffffffffffffffffffff021916908373ffffffffffffffffffffffffffffffffffffffff1602179055508181600501819055505b806006013390806001815401808255809150509060018203906000526020600020016000909192909190916101000a81548173ffffffffffffffffffffffffffffffffffffffff021916908373ffffffffffffffffffffffffffffffffffffffff1602179055505080600701829080600181540180825580915050906001820390600052602060002001600090919290919091505550505050565b600042905090565b60036020528060005260406000206000915054906101000a900473ffffffffffffffffffffffffffffffffffffffff1681565b60025481565b600060025483101515610851576040517f08c379a0000000000000000000000000000000000000000000000000000000008152600401610848906118f3565b60405180910390fd5b600080600085815260200190815260200160002090508060030154421115156108af576040517f08c379a00000000000000000000000000000000000000000000000000000000081526004016108a690611973565b60405180910390fd5b600080905060008090505b8260060180549050811015610966578473ffffffffffffffffffffffffffffffffffffffff1683600601828154811015156108f157fe5b9060005260206000200160009054906101000a900473ffffffffffffffffffffffffffffffffffffffff1673ffffffffffffffffffffffffffffffffffffffff16141561095957826007018181548110151561094957fe5b9060005260206000200154820191505b80806001019150506108ba565b50809250505092915050565b6060806001805490506040519080825280602002602001820160405280156109b457816020015b6109a1610fe3565b8152602001906001900390816109995790505b50905060008090505b600180549050811015610c30576000806001838154811015156109dc57fe5b90600052602060002001548152602001908152602001600020610100604051908101604052908160008201548152602001600182018054600181600116156101000203166002900480601f016020809104026020016040519081016040528092919081815260200182805460018160011615610100020316600290048015610aa55780601f10610a7a57610100808354040283529160200191610aa5565b820191906000526020600020905b815481529060010190602001808311610a8857829003601f168201915b5050505050815260200160028201548152602001600382015481526020016004820160009054906101000a900473ffffffffffffffffffffffffffffffffffffffff1673ffffffffffffffffffffffffffffffffffffffff1673ffffffffffffffffffffffffffffffffffffffff1681526020016005820154815260200160068201805480602002602001604051908101604052809291908181526020018280548015610ba757602002820191906000526020600020905b8160009054906101000a900473ffffffffffffffffffffffffffffffffffffffff1673ffffffffffffffffffffffffffffffffffffffff1681526020019060010190808311610b5d575b5050505050815260200160078201805480602002602001604051908101604052809291908181526020018280548015610bff57602002820191906000526020600020905b815481526020019060010190808311610beb575b5050505050815250508282815181101515610c1657fe5b9060200190602002018190525080806001019150506109bd565b508091505090565b60608060008060008581526020019081526020016000209050806003015442111515610c99576040517f08c379a0000000000000000000000000000000000000000000000000000000008152600401610c9090611973565b60405180910390fd5b806006018160070181805480602002602001604051908101604052809291908181526020018280548015610d2257602002820191906000526020600020905b8160009054906101000a900473ffffffffffffffffffffffffffffffffffffffff1673ffffffffffffffffffffffffffffffffffffffff1681526020019060010190808311610cd8575b5050505050915080805480602002602001604051908101604052809291908181526020018280548015610d7457602002820191906000526020600020905b815481526020019060010190808311610d60575b505050505090509250925050915091565b6000600260008154809291906001019190505590506000824201905061010060405190810160405280838152602001868152602001858152602001828152602001600073ffffffffffffffffffffffffffffffffffffffff168152602001600081526020016000604051908082528060200260200182016040528015610e1a5781602001602082028038833980820191505090505b5081526020016000604051908082528060200260200182016040528015610e505781602001602082028038833980820191505090505b50815250600080848152602001908152602001600020600082015181600001556020820151816001019080519060200190610e8c92919061103f565b50604082015181600201556060820151816003015560808201518160040160006101000a81548173ffffffffffffffffffffffffffffffffffffffff021916908373ffffffffffffffffffffffffffffffffffffffff16021790555060a0820151816005015560c0820151816006019080519060200190610f0e9291906110bf565b5060e0820151816007019080519060200190610f2b929190611149565b509050506001829080600181540180825580915050906001820390600052602060002001600090919290919091505550336003600084815260200190815260200160002060006101000a81548173ffffffffffffffffffffffffffffffffffffffff021916908373ffffffffffffffffffffffffffffffffffffffff1602179055505050505050565b60046020528160005260406000206020528060005260406000206000915091509054906101000a900460ff1681565b6101006040519081016040528060008152602001606081526020016000815260200160008152602001600073ffffffffffffffffffffffffffffffffffffffff1681526020016000815260200160608152602001606081525090565b828054600181600116156101000203166002900490600052602060002090601f016020900481019282601f1061108057805160ff19168380011785556110ae565b828001600101855582156110ae579182015b828111156110ad578251825591602001919060010190611092565b5b5090506110bb9190611196565b5090565b828054828255906000526020600020908101928215611138579160200282015b828111156111375782518260006101000a81548173ffffffffffffffffffffffffffffffffffffffff021916908373ffffffffffffffffffffffffffffffffffffffff160217905550916020019190600101906110df565b5b50905061114591906111bb565b5090565b828054828255906000526020600020908101928215611185579160200282015b82811115611184578251825591602001919060010190611169565b5b5090506111929190611196565b5090565b6111b891905b808211156111b457600081600090555060010161119c565b5090565b90565b6111fb91905b808211156111f757600081816101000a81549073ffffffffffffffffffffffffffffffffffffffff0219169055506001016111c1565b5090565b90565b600061120a8235611b9b565b905092915050565b600082601f830112151561122557600080fd5b813561123861123382611a63565b611a36565b9150808252602083016020830185838301111561125457600080fd5b61125f838284611bb7565b50505092915050565b60006112748235611bad565b905092915050565b60008060006060848603121561129157600080fd5b600084013567ffffffffffffffff8111156112ab57600080fd5b6112b786828701611212565b93505060206112c886828701611268565b92505060406112d986828701611268565b9150509250925092565b6000602082840312156112f557600080fd5b600061130384828501611268565b91505092915050565b6000806040838503121561131f57600080fd5b600061132d85828601611268565b925050602061133e858286016111fe565b9150509250929050565b6000806040838503121561135b57600080fd5b600061136985828601611268565b925050602061137a85828601611268565b9150509250929050565b61138d81611b53565b82525050565b600061139e82611adb565b8084526020840193506113b083611a9c565b60005b828110156113e2576113c6868351611384565b6113cf82611b1f565b91506020860195506001810190506113b3565b50849250505092915050565b60006113f982611ad0565b80845260208401935061140b83611a8f565b60005b8281101561143d57611421868351611384565b61142a82611b12565b915060208601955060018101905061140e565b50849250505092915050565b600061145482611ae6565b8084526020840193508360208202850161146d85611aa9565b60005b848110156114a657838303885261148883835161176e565b925061149382611b2c565b9150602088019750600181019050611470565b508196508694505050505092915050565b60006114c282611afc565b8084526020840193506114d483611ac3565b60005b82811015611506576114ea86835161182c565b6114f382611b46565b91506020860195506001810190506114d7565b50849250505092915050565b600061151d82611af1565b80845260208401935061152f83611ab6565b60005b828110156115615761154586835161182c565b61154e82611b39565b9150602086019550600181019050611532565b50849250505092915050565b61157681611b65565b82525050565b600061158782611b07565b80845261159b816020860160208601611bc6565b6115a481611bf9565b602085010191505092915050565b6000601282527f496e76616c69642061756374696f6e20494400000000000000000000000000006020830152604082019050919050565b6000603782527f41756374696f6e2063726561746f722063616e6e6f742070617274696369706160208301527f746520696e207468656972206f776e2061756374696f6e0000000000000000006040830152606082019050919050565b6000601182527f41756374696f6e2068617320656e6465640000000000000000000000000000006020830152604082019050919050565b6000602d82527f596f75206861766520616c72656164792070617274696369706174656420696e60208301527f20746869732061756374696f6e000000000000000000000000000000000000006040830152606082019050919050565b6000601a82527f41756374696f6e20686173206e6f742079657420656e6465642e0000000000006020830152604082019050919050565b6000602782527f426964206d7573742062652067726561746572207468616e207374617274696e60208301527f67207072696365000000000000000000000000000000000000000000000000006040830152606082019050919050565b600061010083016000830151611787600086018261182c565b506020830151848203602086015261179f828261157c565b91505060408301516117b4604086018261182c565b5060608301516117c7606086018261182c565b5060808301516117da6080860182611384565b5060a08301516117ed60a086018261182c565b5060c083015184820360c086015261180582826113ee565b91505060e083015184820360e086015261181f8282611512565b9150508091505092915050565b61183581611b91565b82525050565b60006020820190506118506000830184611384565b92915050565b600060408201905061186b6000830185611384565b611878602083018461182c565b9392505050565b600060408201905081810360008301526118998185611393565b905081810360208301526118ad81846114b7565b90509392505050565b600060208201905081810360008301526118d08184611449565b905092915050565b60006020820190506118ed600083018461156d565b92915050565b6000602082019050818103600083015261190c816115b2565b9050919050565b6000602082019050818103600083015261192c816115e9565b9050919050565b6000602082019050818103600083015261194c81611646565b9050919050565b6000602082019050818103600083015261196c8161167d565b9050919050565b6000602082019050818103600083015261198c816116da565b9050919050565b600060208201905081810360008301526119ac81611711565b9050919050565b60006020820190506119c8600083018461182c565b92915050565b600060c0820190506119e3600083018961182c565b81810360208301526119f5818861157c565b9050611a04604083018761182c565b611a11606083018661182c565b611a1e6080830185611384565b611a2b60a083018461182c565b979650505050505050565b6000604051905081810181811067ffffffffffffffff82111715611a5957600080fd5b8060405250919050565b600067ffffffffffffffff821115611a7a57600080fd5b601f19601f8301169050602081019050919050565b6000602082019050919050565b6000602082019050919050565b6000602082019050919050565b6000602082019050919050565b6000602082019050919050565b600081519050919050565b600081519050919050565b600081519050919050565b600081519050919050565b600081519050919050565b600081519050919050565b6000602082019050919050565b6000602082019050919050565b6000602082019050919050565b6000602082019050919050565b6000602082019050919050565b6000611b5e82611b71565b9050919050565b60008115159050919050565b600073ffffffffffffffffffffffffffffffffffffffff82169050919050565b6000819050919050565b6000611ba682611b71565b9050919050565b6000819050919050565b82818337600083830152505050565b60005b83811015611be4578082015181840152602081019050611bc9565b83811115611bf3576000848401525b50505050565b6000601f19601f830116905091905056fea265627a7a72305820f2450a4db39238e6c497ce98a4348f76acee8cf0939cb324641c157ac304c8b76c6578706572696d656e74616cf50037",
  "source": "/// SPDX-License-Identifier: MIT\r\npragma solidity ^0.5.1;\r\npragma experimental ABIEncoderV2;\r\ncontract BlindAuction {\r\n    // Structure to store information about an auction\r\n    struct AuctionInfo {\r\n        uint id;\r\n        string item_name;\r\n        uint start_price;\r\n        uint auctionEndTime;\r\n        address highestBidder;\r\n        uint highestBid;\r\n\t\taddress[] participants;\r\n        uint[] bids;\r\n    }\r\n\r\n    // Mapping from auction ID to auction information\r\n    mapping(uint => AuctionInfo) public auctions;\r\n\r\n    // Array to store all auction IDs\r\n    uint[] public auctionIds;\r\n\r\n    // Counter for generating unique auction IDs\r\n    uint public auctionCounter;\r\n\r\n    // Mapping from auction ID to the address of the auction creator\r\n    mapping(uint => address) public auctionCreators;\r\n \tmapping(uint => mapping(address => bool)) public auctionParticipants;\r\n\r\n\r\n\r\n    // Create an auction\r\n    function auctionItem(string memory _item_name, uint _start_price, uint _bidding_time) public {\r\n        // Generate a unique ID for the auction\r\n        uint id = auctionCounter++;\r\n        // Calculate the end date for the auction in seconds\r\n        uint auctionEndTime = block.timestamp + _bidding_time;\r\n        // Store the auction information in the mapping\r\n        auctions[id] = AuctionInfo(id, _item_name, _start_price, auctionEndTime, address(0), 0, new address[](0), new uint[](0));\r\n        // Store the ID in the array of all auction IDs\r\n        auctionIds.push(id);\r\n\r\n        // Store the address of the auction creator in the mapping\r\n        auctionCreators[id] = msg.sender;\r\n    }\r\n\r\n    // Participate in an auction\r\n    function participateInAuction(uint _id, uint _bid) public {\r\n        // Get the auction information\r\n\t\trequire(msg.sender != auctionCreators[_id], \"Auction creator cannot participate in their own auction\");\r\n\t\trequire(!auctionParticipants[_id][msg.sender], \"You have already participated in this auction\");\r\n\t\t\r\n        AuctionInfo storage auction = auctions[_id];\r\n\t\r\n        // Check if the auction has ended\r\n\r\n\t    require(block.timestamp < auction.auctionEndTime, \"Auction has ended\");\r\n        // Check if the bidder is the auction creator\r\n        // Check if the bid is greater than the starting price\r\n        require(_bid > auction.start_price, \"Bid must be greater than starting price\");\r\n\r\n        // Update the highest bidder and highest bid if necessary\r\n        if (_bid > auction.highestBid) {\r\n            auction.highestBidder = msg.sender;\r\n            auction.highestBid = _bid;\r\n        }\r\n\t\tauction.participants.push(msg.sender);\r\n    \tauction.bids.push(_bid);\r\n    }\r\n    // Reveal the auction after it has ended\r\n\tfunction now() public view returns(uint) {\r\n\t\treturn block.timestamp;\r\n\t}\r\n    function getAllAuctions() public view returns (AuctionInfo[] memory) {\r\n        AuctionInfo[] memory auctionsList = new AuctionInfo[](auctionIds.length);\r\n        for (uint i = 0; i < auctionIds.length; i++) {\r\n            auctionsList[i] = auctions[auctionIds[i]];\r\n    }\r\n  return auctionsList;\r\n}\r\n    function revealAuction(uint _id) public view returns (address, uint) {\r\n        AuctionInfo storage auction = auctions[_id];\r\n        require(block.timestamp > auction.auctionEndTime, \"Auction has not yet ended.\");\r\n        return (auction.highestBidder, auction.highestBid);\r\n    }\r\n\tfunction displayBids(uint _id) public view returns (address[] memory, uint[] memory) {\r\n    // Check if the auction ID exists in the auctions mapping\r\n     \tAuctionInfo storage auction = auctions[_id];\r\n        require(block.timestamp > auction.auctionEndTime, \"Auction has not yet ended.\");\r\n            return (auction.participants, auction.bids);\r\n    }\r\nfunction displayAccountBids(uint _id, address _account) public view returns (uint) {\r\n    // Check if the auction ID exists in the auctions mapping\r\n    require(_id < auctionCounter, \"Invalid auction ID\");\r\n\r\n    // Get the auction information\r\n    AuctionInfo storage auction = auctions[_id];\r\n\r\n    // Check if the auction has ended\r\n    require(block.timestamp > auction.auctionEndTime, \"Auction has not yet ended.\");\r\n\r\n    // Initialize a variable to store the total amount of bids placed by the specified Ethereum account\r\n    uint totalBids = 0;\r\n\r\n    // Iterate through the array of participants\r\n        for (uint i = 0; i < auction.participants.length; i++) {\r\n        // Check if the participant's address matches the specified Ethereum account\r\n            if (auction.participants[i] == _account) {\r\n            // Increment the total amount of bids\r\n                totalBids += auction.bids[i];\r\n            }\r\n        }\r\n    // Return the total amount of bids placed by the Ethereum account\r\n    return totalBids;\r\n    }\r\n}",
  "sourcePath": "E:\\DuongTanHuy\\Capstone\\Capstone_I\\source-code-project\\contracts\\BlindAuction.sol",
  "compiler": {
    "name": "solc",
    "version": "0.5.1+commit.c8a2cb62.Emscripten.clang"
  },
  "schemaVersion": "3.4.10",
  "updatedAt": "2023-01-06T13:34:29.075Z",
  "networkType": "ethereum",
  "devdoc": {
    "methods": {}
  },
  "userdoc": {
    "methods": {}
  }
}