{
  "contractName": "BlindAuction",
  "abi": [
    {
      "anonymous": false,
      "inputs": [
        {
          "indexed": false,
          "name": "Auction_id",
          "type": "uint256"
        },
        {
          "indexed": false,
          "name": "item_name",
          "type": "string"
        },
        {
          "indexed": false,
          "name": "item_description",
          "type": "string"
        },
        {
          "indexed": false,
          "name": "start_price",
          "type": "uint256"
        }
      ],
      "name": "AuctionStarted",
      "type": "event"
    },
    {
      "anonymous": false,
      "inputs": [
        {
          "indexed": false,
          "name": "Auction_id",
          "type": "uint256"
        },
        {
          "indexed": false,
          "name": "highestBidder",
          "type": "address"
        },
        {
          "indexed": false,
          "name": "highestBid",
          "type": "uint256"
        }
      ],
      "name": "AuctionEnded",
      "type": "event"
    },
    {
      "anonymous": false,
      "inputs": [
        {
          "indexed": false,
          "name": "auction_id",
          "type": "uint256"
        }
      ],
      "name": "ItemUnsold",
      "type": "event"
    },
    {
      "anonymous": false,
      "inputs": [
        {
          "indexed": false,
          "name": "Auction_id",
          "type": "uint256"
        },
        {
          "indexed": false,
          "name": "bidding_end",
          "type": "uint256"
        }
      ],
      "name": "BiddingStarted",
      "type": "event"
    },
    {
      "anonymous": false,
      "inputs": [
        {
          "indexed": false,
          "name": "Auction_id",
          "type": "uint256"
        }
      ],
      "name": "BiddingPeriodEnded",
      "type": "event"
    },
    {
      "anonymous": false,
      "inputs": [
        {
          "indexed": false,
          "name": "bidder",
          "type": "address"
        }
      ],
      "name": "BidMade",
      "type": "event"
    },
    {
      "anonymous": false,
      "inputs": [
        {
          "indexed": false,
          "name": "Auction_id",
          "type": "uint256"
        },
        {
          "indexed": false,
          "name": "reveal_end",
          "type": "uint256"
        }
      ],
      "name": "RevealPeriodStarted",
      "type": "event"
    },
    {
      "anonymous": false,
      "inputs": [
        {
          "indexed": false,
          "name": "Auction_id",
          "type": "uint256"
        }
      ],
      "name": "RevealPeriodEnded",
      "type": "event"
    },
    {
      "anonymous": false,
      "inputs": [
        {
          "indexed": false,
          "name": "Auction_id",
          "type": "uint256"
        },
        {
          "indexed": false,
          "name": "winner",
          "type": "address"
        },
        {
          "indexed": false,
          "name": "pubkey",
          "type": "string"
        },
        {
          "indexed": false,
          "name": "winningBid",
          "type": "uint256"
        }
      ],
      "name": "WinnerChosen",
      "type": "event"
    },
    {
      "anonymous": false,
      "inputs": [
        {
          "indexed": false,
          "name": "Auction_id",
          "type": "uint256"
        },
        {
          "indexed": false,
          "name": "bidder",
          "type": "address"
        }
      ],
      "name": "BidRevealed",
      "type": "event"
    },
    {
      "anonymous": false,
      "inputs": [
        {
          "indexed": false,
          "name": "Auction_id",
          "type": "uint256"
        },
        {
          "indexed": false,
          "name": "bidder",
          "type": "address"
        }
      ],
      "name": "BidRevealFailed",
      "type": "event"
    },
    {
      "anonymous": false,
      "inputs": [
        {
          "indexed": false,
          "name": "auction_id",
          "type": "uint256"
        },
        {
          "indexed": false,
          "name": "bidder",
          "type": "address"
        },
        {
          "indexed": false,
          "name": "bid_value",
          "type": "uint256"
        }
      ],
      "name": "BidderRefunded",
      "type": "event"
    },
    {
      "anonymous": false,
      "inputs": [
        {
          "indexed": false,
          "name": "auction_id",
          "type": "uint256"
        },
        {
          "indexed": false,
          "name": "bidder",
          "type": "address"
        },
        {
          "indexed": false,
          "name": "balance",
          "type": "uint256"
        }
      ],
      "name": "BalanceRefunded",
      "type": "event"
    },
    {
      "anonymous": false,
      "inputs": [
        {
          "indexed": false,
          "name": "auction_id",
          "type": "uint256"
        },
        {
          "indexed": false,
          "name": "bidder",
          "type": "address"
        }
      ],
      "name": "DepositNotEnough",
      "type": "event"
    },
    {
      "anonymous": false,
      "inputs": [
        {
          "indexed": false,
          "name": "auction_id",
          "type": "uint256"
        },
        {
          "indexed": false,
          "name": "bidder",
          "type": "address"
        },
        {
          "indexed": false,
          "name": "bid_value",
          "type": "uint256"
        }
      ],
      "name": "NewHighestBid",
      "type": "event"
    },
    {
      "anonymous": false,
      "inputs": [
        {
          "indexed": false,
          "name": "auction_id",
          "type": "uint256"
        },
        {
          "indexed": false,
          "name": "H",
          "type": "string"
        }
      ],
      "name": "encryptedKey",
      "type": "event"
    },
    {
      "anonymous": false,
      "inputs": [
        {
          "indexed": false,
          "name": "auction_id",
          "type": "uint256"
        }
      ],
      "name": "deliveryComplete",
      "type": "event"
    },
    {
      "constant": true,
      "inputs": [
        {
          "name": "account",
          "type": "address"
        }
      ],
      "name": "getAccountBalance",
      "outputs": [
        {
          "name": "accountBalance",
          "type": "uint256"
        }
      ],
      "payable": false,
      "stateMutability": "view",
      "type": "function"
    },
    {
      "constant": false,
      "inputs": [
        {
          "name": "item_name",
          "type": "string"
        },
        {
          "name": "item_description",
          "type": "string"
        },
        {
          "name": "bidding_time",
          "type": "uint256"
        },
        {
          "name": "reveal_time",
          "type": "uint256"
        },
        {
          "name": "start_price",
          "type": "uint256"
        }
      ],
      "name": "auctionItem",
      "outputs": [],
      "payable": true,
      "stateMutability": "payable",
      "type": "function"
    },
    {
      "constant": true,
      "inputs": [],
      "name": "getactiveauctions",
      "outputs": [
        {
          "components": [
            {
              "name": "auction_id",
              "type": "uint256"
            },
            {
              "name": "beneficiary",
              "type": "address"
            },
            {
              "name": "biddingEnd",
              "type": "uint256"
            },
            {
              "name": "revealEnd",
              "type": "uint256"
            },
            {
              "name": "ended",
              "type": "bool"
            },
            {
              "name": "item_name",
              "type": "string"
            },
            {
              "name": "item_description",
              "type": "string"
            },
            {
              "name": "start_price",
              "type": "uint256"
            },
            {
              "name": "bidplaced",
              "type": "bool"
            },
            {
              "name": "revealed",
              "type": "bool"
            }
          ],
          "name": "",
          "type": "tuple[]"
        }
      ],
      "payable": false,
      "stateMutability": "view",
      "type": "function"
    },
    {
      "constant": true,
      "inputs": [],
      "name": "getallauctions",
      "outputs": [
        {
          "components": [
            {
              "name": "auction_id",
              "type": "uint256"
            },
            {
              "name": "beneficiary",
              "type": "address"
            },
            {
              "name": "winner",
              "type": "address"
            },
            {
              "name": "biddingEnd",
              "type": "uint256"
            },
            {
              "name": "revealEnd",
              "type": "uint256"
            },
            {
              "name": "ended",
              "type": "bool"
            },
            {
              "name": "sold",
              "type": "bool"
            },
            {
              "name": "item_name",
              "type": "string"
            },
            {
              "name": "item_description",
              "type": "string"
            },
            {
              "name": "start_price",
              "type": "uint256"
            },
            {
              "name": "bidplaced",
              "type": "bool"
            },
            {
              "name": "revealed",
              "type": "bool"
            },
            {
              "name": "finalBid",
              "type": "uint256"
            },
            {
              "name": "pubkey",
              "type": "string"
            },
            {
              "name": "H",
              "type": "string"
            }
          ],
          "name": "",
          "type": "tuple[]"
        }
      ],
      "payable": false,
      "stateMutability": "view",
      "type": "function"
    },
    {
      "constant": false,
      "inputs": [
        {
          "name": "blindedBid",
          "type": "bytes32"
        },
        {
          "name": "auction_id",
          "type": "uint256"
        },
        {
          "name": "pubkey",
          "type": "string"
        }
      ],
      "name": "bid",
      "outputs": [],
      "payable": true,
      "stateMutability": "payable",
      "type": "function"
    },
    {
      "constant": false,
      "inputs": [
        {
          "name": "value",
          "type": "uint256"
        },
        {
          "name": "secret",
          "type": "string"
        },
        {
          "name": "auction_id",
          "type": "uint256"
        }
      ],
      "name": "reveal",
      "outputs": [],
      "payable": true,
      "stateMutability": "payable",
      "type": "function"
    },
    {
      "constant": false,
      "inputs": [
        {
          "name": "auction_id",
          "type": "uint256"
        }
      ],
      "name": "auctionEnd",
      "outputs": [],
      "payable": false,
      "stateMutability": "nonpayable",
      "type": "function"
    },
    {
      "constant": false,
      "inputs": [
        {
          "name": "auction_id",
          "type": "uint256"
        },
        {
          "name": "H",
          "type": "string"
        }
      ],
      "name": "sellItem",
      "outputs": [],
      "payable": true,
      "stateMutability": "payable",
      "type": "function"
    },
    {
      "constant": false,
      "inputs": [
        {
          "name": "auction_id",
          "type": "uint256"
        }
      ],
      "name": "confirmDelivery",
      "outputs": [],
      "payable": true,
      "stateMutability": "payable",
      "type": "function"
    }
  ],
  "bytecode": "0x60806040526000600155600060025534801561001a57600080fd5b5061389c8061002a6000396000f3fe608060405260043610610093576000357c0100000000000000000000000000000000000000000000000000000000900480630754aebb146100985780632a2dd377146100c357806332246e9f146100df5780634f3ae5941461010857806384febc4b1461012457806393423e9c1461014057806396a18f801461017d578063b5e36037146101a8578063fd84cb97146101c4575b600080fd5b3480156100a457600080fd5b506100ad6101e0565b6040516100ba91906133c0565b60405180910390f35b6100dd60048036036100d89190810190612a85565b610771565b005b3480156100eb57600080fd5b5061010660048036036101019190810190612b35565b610b87565b005b610122600480360361011d9190810190612bb6565b61114d565b005b61013e60048036036101399190810190612b5e565b6115eb565b005b34801561014c57600080fd5b50610167600480360361016291908101906129f0565b611808565b6040516101749190613542565b60405180910390f35b34801561018957600080fd5b50610192611829565b60405161019f919061339e565b60405180910390f35b6101c260048036036101bd9190810190612a19565b611b7b565b005b6101de60048036036101d99190810190612b35565b611ef2565b005b60608060015460405190808252806020026020018201604052801561021f57816020015b61020c61265b565b8152602001906001900390816102045790505b50905060008090505b6001548110156107695760008060008381526020019081526020016000209050606060206040519081016040528060008152509050600073ffffffffffffffffffffffffffffffffffffffff168260080160019054906101000a900473ffffffffffffffffffffffffffffffffffffffff1673ffffffffffffffffffffffffffffffffffffffff161415156103b8578160120160008360080160019054906101000a900473ffffffffffffffffffffffffffffffffffffffff1673ffffffffffffffffffffffffffffffffffffffff1673ffffffffffffffffffffffffffffffffffffffff1681526020019081526020016000208054600181600116156101000203166002900480601f0160208091040260200160405190810160405280929190818152602001828054600181600116156101000203166002900480156103b05780601f10610385576101008083540402835291602001916103b0565b820191906000526020600020905b81548152906001019060200180831161039357829003601f168201915b505050505090505b6101e060405190810160405280836000015481526020018360010160009054906101000a900473ffffffffffffffffffffffffffffffffffffffff1673ffffffffffffffffffffffffffffffffffffffff1681526020018360080160019054906101000a900473ffffffffffffffffffffffffffffffffffffffff1673ffffffffffffffffffffffffffffffffffffffff16815260200183600201548152602001836003015481526020018360040160009054906101000a900460ff16151581526020018360080160009054906101000a900460ff1615158152602001836005018054600181600116156101000203166002900480601f01602080910402602001604051908101604052809291908181526020018280546001816001161561010002031660029004801561052d5780601f106105025761010080835404028352916020019161052d565b820191906000526020600020905b81548152906001019060200180831161051057829003601f168201915b50505050508152602001836006018054600181600116156101000203166002900480601f0160208091040260200160405190810160405280929190818152602001828054600181600116156101000203166002900480156105cf5780601f106105a4576101008083540402835291602001916105cf565b820191906000526020600020905b8154815290600101906020018083116105b257829003601f168201915b50505050508152602001836007015481526020018360100160003373ffffffffffffffffffffffffffffffffffffffff1673ffffffffffffffffffffffffffffffffffffffff16815260200190815260200160002060009054906101000a900460ff16151581526020018360110160003373ffffffffffffffffffffffffffffffffffffffff1673ffffffffffffffffffffffffffffffffffffffff16815260200190815260200160002060009054906101000a900460ff16151581526020018360090154815260200182815260200183600d018054600181600116156101000203166002900480601f0160208091040260200160405190810160405280929190818152602001828054600181600116156101000203166002900480156107375780601f1061070c57610100808354040283529160200191610737565b820191906000526020600020905b81548152906001019060200180831161071a57829003601f168201915b5050505050815250848481518110151561074d57fe5b9060200190602002018190525050508080600101915050610228565b508091505090565b6000600154905060018060008282540192505081905550600160026000828254019250508190555060008442019050600084820190506101e0604051908101604052808481526020013373ffffffffffffffffffffffffffffffffffffffff1681526020018381526020018281526020016000151581526020018b8b8080601f016020809104026020016040519081016040528093929190818152602001838380828437600081840152601f19601f82011690508083019250505050505050815260200189898080601f016020809104026020016040519081016040528093929190818152602001838380828437600081840152601f19601f820116905080830192505050505050508152602001858152602001600015158152602001600073ffffffffffffffffffffffffffffffffffffffff1681526020016000815260200160006040519080825280602002602001820160405280156108e25781602001602082028038833980820191505090505b508152602001600073ffffffffffffffffffffffffffffffffffffffff1681526020016000815260200160206040519081016040528060008152508152506000808581526020019081526020016000206000820151816000015560208201518160010160006101000a81548173ffffffffffffffffffffffffffffffffffffffff021916908373ffffffffffffffffffffffffffffffffffffffff160217905550604082015181600201556060820151816003015560808201518160040160006101000a81548160ff02191690831515021790555060a08201518160050190805190602001906109d3929190612706565b5060c08201518160060190805190602001906109f0929190612706565b5060e082015181600701556101008201518160080160006101000a81548160ff0219169083151502179055506101208201518160080160016101000a81548173ffffffffffffffffffffffffffffffffffffffff021916908373ffffffffffffffffffffffffffffffffffffffff160217905550610140820151816009015561016082015181600a019080519060200190610a8c929190612786565b5061018082015181600b0160006101000a81548173ffffffffffffffffffffffffffffffffffffffff021916908373ffffffffffffffffffffffffffffffffffffffff1602179055506101a082015181600c01556101c082015181600d019080519060200190610afd929190612706565b509050507f3680aa69c57c1d54ccdea2f32ab13a0723c8733b4b415e8396fc6b604f41622f838b8b8b8b89604051610b3a96959493929190613672565b60405180910390a17f407f117d881ed92fbecf3649fb9568d7191c91329e6cef0cb5fc97916ef0cead8383604051610b739291906136c9565b60405180910390a150505050505050505050565b600080828152602001908152602001600020600301548042111515610be1576040517f08c379a0000000000000000000000000000000000000000000000000000000008152600401610bd8906134e2565b60405180910390fd5b813373ffffffffffffffffffffffffffffffffffffffff1660008083815260200190815260200160002060010160009054906101000a900473ffffffffffffffffffffffffffffffffffffffff1673ffffffffffffffffffffffffffffffffffffffff16141515610c87576040517f08c379a0000000000000000000000000000000000000000000000000000000008152600401610c7e90613462565b60405180910390fd5b826000151560008083815260200190815260200160002060040160009054906101000a900460ff161515141515610cf3576040517f08c379a0000000000000000000000000000000000000000000000000000000008152600401610cea90613422565b60405180910390fd5b600080600086815260200190815260200160002060090154148015610d795750600073ffffffffffffffffffffffffffffffffffffffff1660008086815260200190815260200160002060080160019054906101000a900473ffffffffffffffffffffffffffffffffffffffff1673ffffffffffffffffffffffffffffffffffffffff16145b15610e35577ff656db5d7eec16959704ab1442c4686390e8bdca6e2fd99d193f6871512359ea84604051610dad9190613542565b60405180910390a17fd2aa34a4fdbbc6dff6a3e56f46e0f3ae2a31d7785ff3487aa5c95c642acea50184600080604051610de993929190613586565b60405180910390a1600160008086815260200190815260200160002060040160006101000a81548160ff0219169083151502179055506001600260008282540392505081905550611147565b7fd2aa34a4fdbbc6dff6a3e56f46e0f3ae2a31d7785ff3487aa5c95c642acea5018460008087815260200190815260200160002060080160019054906101000a900473ffffffffffffffffffffffffffffffffffffffff1660008088815260200190815260200160002060090154604051610eb293929190613609565b60405180910390a1600160008086815260200190815260200160002060040160006101000a81548160ff021916908315150217905550600160026000828254039250508190555060008085815260200190815260200160002060080160019054906101000a900473ffffffffffffffffffffffffffffffffffffffff16600080868152602001908152602001600020600b0160006101000a81548173ffffffffffffffffffffffffffffffffffffffff021916908373ffffffffffffffffffffffffffffffffffffffff16021790555060008085815260200190815260200160002060090154600080868152602001908152602001600020600c018190555060008090505b600080868152602001908152602001600020600a01805490508110156110385761102d85600080888152602001908152602001600020600a0183815481101515610ffd57fe5b9060005260206000200160009054906101000a900473ffffffffffffffffffffffffffffffffffffffff1661225f565b806001019050610fb7565b507f9fa608827c3c4a8327a334f831d3ac579446f5314638ac0108bbaa17441e16a484600080878152602001908152602001600020600b0160009054906101000a900473ffffffffffffffffffffffffffffffffffffffff1660008088815260200190815260200160002060120160008060008a8152602001908152602001600020600b0160009054906101000a900473ffffffffffffffffffffffffffffffffffffffff1673ffffffffffffffffffffffffffffffffffffffff1673ffffffffffffffffffffffffffffffffffffffff168152602001908152602001600020600080898152602001908152602001600020600c015460405161113e94939291906135bd565b60405180910390a15b50505050565b6000808281526020019081526020016000206002015480421115156111a7576040517f08c379a000000000000000000000000000000000000000000000000000000000815260040161119e906134e2565b60405180910390fd5b600080838152602001908152602001600020600301548042111515611201576040517f08c379a00000000000000000000000000000000000000000000000000000000081526004016111f890613482565b60405180910390fd5b826001151560008083815260200190815260200160002060100160003373ffffffffffffffffffffffffffffffffffffffff1673ffffffffffffffffffffffffffffffffffffffff16815260200190815260200160002060009054906101000a900460ff1615151415156112aa576040517f08c379a00000000000000000000000000000000000000000000000000000000081526004016112a1906134a2565b60405180910390fd5b83600154811015156112f1576040517f08c379a00000000000000000000000000000000000000000000000000000000081526004016112e890613442565b60405180910390fd5b60008090506000806000888152602001908152602001600020600e0160003373ffffffffffffffffffffffffffffffffffffffff1673ffffffffffffffffffffffffffffffffffffffff168152602001908152602001600020905089898960405160200161136193929190613640565b6040516020818303038152906040528051906020012081600001541415156113c1577fad8c260aa7a48094cdeb8c07f33bcf4e3bb56893286c330706ca376c728e9f3e87336040516113b492919061355d565b60405180910390a16115df565b60006001028160000181905550600080888152602001908152602001600020600a013390806001815401808255809150509060018203906000526020600020016000909192909190916101000a81548173ffffffffffffffffffffffffffffffffffffffff021916908373ffffffffffffffffffffffffffffffffffffffff16021790555050600160008089815260200190815260200160002060110160003373ffffffffffffffffffffffffffffffffffffffff1673ffffffffffffffffffffffffffffffffffffffff16815260200190815260200160002060006101000a81548160ff021916908315150217905550806001015482019150896002028160010154101515611522576114d687338c612464565b156114e45789600202820391505b7fcb1784faad642d48c787676118783766577faa10d9c69eb1fbb40c3baaac87d1873360405161151592919061355d565b60405180910390a161155c565b7f2aef0deb49f8c134c725c0d4075973ab3c581f0d16cce112ab4ed4b26b9ddaa3873360405161155392919061355d565b60405180910390a15b7f0ce627ddf6b4fdb8de00ae62e2f2b8dee6a4226b75fccd3d6692329c8e0d2c1c87338460405161158f93929190613609565b60405180910390a13373ffffffffffffffffffffffffffffffffffffffff166108fc839081150290604051600060405180830381858888f193505050501580156115dd573d6000803e3d6000fd5b505b50505050505050505050565b8260015481101515611632576040517f08c379a000000000000000000000000000000000000000000000000000000000815260040161162990613442565b60405180910390fd5b836001151560008083815260200190815260200160002060040160009054906101000a900460ff16151514151561169e576040517f08c379a000000000000000000000000000000000000000000000000000000000815260040161169590613402565b60405180910390fd5b843373ffffffffffffffffffffffffffffffffffffffff1660008083815260200190815260200160002060010160009054906101000a900473ffffffffffffffffffffffffffffffffffffffff1673ffffffffffffffffffffffffffffffffffffffff16141515611744576040517f08c379a000000000000000000000000000000000000000000000000000000000815260040161173b90613462565b60405180910390fd5b600080878152602001908152602001600020600c0154600202341415156117a0576040517f08c379a0000000000000000000000000000000000000000000000000000000008152600401611797906133e2565b60405180910390fd5b8484600080898152602001908152602001600020600d0191906117c4929190612810565b507f45bd963234a41bc8d75b2e2caf57f0987f5d405e1d4bbf09b919faeff927937c8686866040516117f893929190613640565b60405180910390a1505050505050565b60008173ffffffffffffffffffffffffffffffffffffffff16319050919050565b60606000809050606060025460405190808252806020026020018201604052801561186e57816020015b61185b612890565b8152602001906001900390816118535790505b50905060008090505b600154811015611b72576000151560008083815260200190815260200160002060040160009054906101000a900460ff1615151415611b65576000806000838152602001908152602001600020905061014060405190810160405280826000015481526020018260010160009054906101000a900473ffffffffffffffffffffffffffffffffffffffff1673ffffffffffffffffffffffffffffffffffffffff16815260200182600201548152602001826003015481526020018260040160009054906101000a900460ff1615158152602001826005018054600181600116156101000203166002900480601f0160208091040260200160405190810160405280929190818152602001828054600181600116156101000203166002900480156119e25780601f106119b7576101008083540402835291602001916119e2565b820191906000526020600020905b8154815290600101906020018083116119c557829003601f168201915b50505050508152602001826006018054600181600116156101000203166002900480601f016020809104026020016040519081016040528092919081815260200182805460018160011615610100020316600290048015611a845780601f10611a5957610100808354040283529160200191611a84565b820191906000526020600020905b815481529060010190602001808311611a6757829003601f168201915b50505050508152602001826007015481526020018260100160003373ffffffffffffffffffffffffffffffffffffffff1673ffffffffffffffffffffffffffffffffffffffff16815260200190815260200160002060009054906101000a900460ff16151581526020018260110160003373ffffffffffffffffffffffffffffffffffffffff1673ffffffffffffffffffffffffffffffffffffffff16815260200190815260200160002060009054906101000a900460ff1615158152508385815181101515611b5057fe5b90602001906020020181905250600184019350505b8080600101915050611877565b50809250505090565b600080848152602001908152602001600020600201548042111515611bd5576040517f08c379a0000000000000000000000000000000000000000000000000000000008152600401611bcc90613482565b60405180910390fd5b8360008082815260200190815260200160002060010160009054906101000a900473ffffffffffffffffffffffffffffffffffffffff1673ffffffffffffffffffffffffffffffffffffffff163373ffffffffffffffffffffffffffffffffffffffff1614151515611c7c576040517f08c379a0000000000000000000000000000000000000000000000000000000008152600401611c7390613502565b60405180910390fd5b8460008082815260200190815260200160002060100160003373ffffffffffffffffffffffffffffffffffffffff1673ffffffffffffffffffffffffffffffffffffffff16815260200190815260200160002060009054906101000a900460ff16151515611d1f576040517f08c379a0000000000000000000000000000000000000000000000000000000008152600401611d1690613522565b60405180910390fd5b8560015481101515611d66576040517f08c379a0000000000000000000000000000000000000000000000000000000008152600401611d5d90613442565b60405180910390fd5b604080519081016040528089815260200134815250600080898152602001908152602001600020600e0160003373ffffffffffffffffffffffffffffffffffffffff1673ffffffffffffffffffffffffffffffffffffffff1681526020019081526020016000206000820151816000015560208201518160010155905050600160008089815260200190815260200160002060100160003373ffffffffffffffffffffffffffffffffffffffff1673ffffffffffffffffffffffffffffffffffffffff16815260200190815260200160002060006101000a81548160ff02191690831515021790555085856000808a815260200190815260200160002060120160003373ffffffffffffffffffffffffffffffffffffffff1673ffffffffffffffffffffffffffffffffffffffff1681526020019081526020016000209190611eb0929190612810565b507f4b6c7d33d8244d6b35f1a8d35f6d19860fea50d46740345c395123753dd782fa33604051611ee09190613383565b60405180910390a15050505050505050565b8060015481101515611f39576040517f08c379a0000000000000000000000000000000000000000000000000000000008152600401611f3090613442565b60405180910390fd5b81600080828152602001908152602001600020600b0160009054906101000a900473ffffffffffffffffffffffffffffffffffffffff1673ffffffffffffffffffffffffffffffffffffffff163373ffffffffffffffffffffffffffffffffffffffff16141515611fdf576040517f08c379a0000000000000000000000000000000000000000000000000000000008152600401611fd6906134c2565b60405180910390fd5b826001151560008083815260200190815260200160002060040160009054906101000a900460ff16151514151561204b576040517f08c379a000000000000000000000000000000000000000000000000000000000815260040161204290613402565b60405180910390fd5b6000806000868152602001908152602001600020600c0154905060008160030290506000806000888152602001908152602001600020600f0160008060008a8152602001908152602001600020600b0160009054906101000a900473ffffffffffffffffffffffffffffffffffffffff1673ffffffffffffffffffffffffffffffffffffffff1673ffffffffffffffffffffffffffffffffffffffff16815260200190815260200160002081905550600160008088815260200190815260200160002060080160006101000a81548160ff02191690831515021790555060008087815260200190815260200160002060010160009054906101000a900473ffffffffffffffffffffffffffffffffffffffff1673ffffffffffffffffffffffffffffffffffffffff166108fc829081150290604051600060405180830381858888f193505050501580156121a3573d6000803e3d6000fd5b50600080878152602001908152602001600020600b0160009054906101000a900473ffffffffffffffffffffffffffffffffffffffff1673ffffffffffffffffffffffffffffffffffffffff166108fc839081150290604051600060405180830381858888f1935050505015801561221f573d6000803e3d6000fd5b507f6cbc019d5c94717baad0acdfa06c66c2a314a9f71c5486a1034adb0f07a57e658660405161224f9190613542565b60405180910390a1505050505050565b816001151560008083815260200190815260200160002060040160009054906101000a900460ff1615151415156122cb576040517f08c379a00000000000000000000000000000000000000000000000000000000081526004016122c290613402565b60405180910390fd5b6000806000858152602001908152602001600020600f0160008473ffffffffffffffffffffffffffffffffffffffff1673ffffffffffffffffffffffffffffffffffffffff16815260200190815260200160002054111561245f576000806000858152602001908152602001600020600f0160008473ffffffffffffffffffffffffffffffffffffffff1673ffffffffffffffffffffffffffffffffffffffff1681526020019081526020016000205490506000806000868152602001908152602001600020600f0160008573ffffffffffffffffffffffffffffffffffffffff1673ffffffffffffffffffffffffffffffffffffffff1681526020019081526020016000208190555060008390508073ffffffffffffffffffffffffffffffffffffffff166108fc839081150290604051600060405180830381858888f19350505050158015612420573d6000803e3d6000fd5b507fa01ed4ff1bfc084518bd795b4114da41c800c9ae1fc5e594cb505cb4c0c3fae185858460405161245493929190613609565b60405180910390a150505b505050565b6000806000858152602001908152602001600020600901548211151561248d5760009050612654565b600073ffffffffffffffffffffffffffffffffffffffff1660008086815260200190815260200160002060080160019054906101000a900473ffffffffffffffffffffffffffffffffffffffff1673ffffffffffffffffffffffffffffffffffffffff161415156125a65760008085815260200190815260200160002060090154600202600080868152602001908152602001600020600f01600080600088815260200190815260200160002060080160019054906101000a900473ffffffffffffffffffffffffffffffffffffffff1673ffffffffffffffffffffffffffffffffffffffff1673ffffffffffffffffffffffffffffffffffffffff168152602001908152602001600020600082825401925050819055505b81600080868152602001908152602001600020600901819055508260008086815260200190815260200160002060080160016101000a81548173ffffffffffffffffffffffffffffffffffffffff021916908373ffffffffffffffffffffffffffffffffffffffff1602179055507ff13cb67d4c8841d2c893b242b7d61382d8e3bb53c5c58a8584106e74e8c4721b84848460405161264793929190613609565b60405180910390a1600190505b9392505050565b6101e06040519081016040528060008152602001600073ffffffffffffffffffffffffffffffffffffffff168152602001600073ffffffffffffffffffffffffffffffffffffffff16815260200160008152602001600081526020016000151581526020016000151581526020016060815260200160608152602001600081526020016000151581526020016000151581526020016000815260200160608152602001606081525090565b828054600181600116156101000203166002900490600052602060002090601f016020900481019282601f1061274757805160ff1916838001178555612775565b82800160010185558215612775579182015b82811115612774578251825591602001919060010190612759565b5b5090506127829190612900565b5090565b8280548282559060005260206000209081019282156127ff579160200282015b828111156127fe5782518260006101000a81548173ffffffffffffffffffffffffffffffffffffffff021916908373ffffffffffffffffffffffffffffffffffffffff160217905550916020019190600101906127a6565b5b50905061280c9190612925565b5090565b828054600181600116156101000203166002900490600052602060002090601f016020900481019282601f1061285157803560ff191683800117855561287f565b8280016001018555821561287f579182015b8281111561287e578235825591602001919060010190612863565b5b50905061288c9190612900565b5090565b6101406040519081016040528060008152602001600073ffffffffffffffffffffffffffffffffffffffff16815260200160008152602001600081526020016000151581526020016060815260200160608152602001600081526020016000151581526020016000151581525090565b61292291905b8082111561291e576000816000905550600101612906565b5090565b90565b61296591905b8082111561296157600081816101000a81549073ffffffffffffffffffffffffffffffffffffffff02191690555060010161292b565b5090565b90565b600061297482356137a1565b905092915050565b600061298882356137b3565b905092915050565b60008083601f84011215156129a457600080fd5b8235905067ffffffffffffffff8111156129bd57600080fd5b6020830191508360018202830111156129d557600080fd5b9250929050565b60006129e882356137bd565b905092915050565b600060208284031215612a0257600080fd5b6000612a1084828501612968565b91505092915050565b60008060008060608587031215612a2f57600080fd5b6000612a3d8782880161297c565b9450506020612a4e878288016129dc565b935050604085013567ffffffffffffffff811115612a6b57600080fd5b612a7787828801612990565b925092505092959194509250565b600080600080600080600060a0888a031215612aa057600080fd5b600088013567ffffffffffffffff811115612aba57600080fd5b612ac68a828b01612990565b9750975050602088013567ffffffffffffffff811115612ae557600080fd5b612af18a828b01612990565b95509550506040612b048a828b016129dc565b9350506060612b158a828b016129dc565b9250506080612b268a828b016129dc565b91505092959891949750929550565b600060208284031215612b4757600080fd5b6000612b55848285016129dc565b91505092915050565b600080600060408486031215612b7357600080fd5b6000612b81868287016129dc565b935050602084013567ffffffffffffffff811115612b9e57600080fd5b612baa86828701612990565b92509250509250925092565b60008060008060608587031215612bcc57600080fd5b6000612bda878288016129dc565b945050602085013567ffffffffffffffff811115612bf757600080fd5b612c0387828801612990565b93509350506040612c16878288016129dc565b91505092959194509250565b612c2b816137c7565b82525050565b612c3a81613759565b82525050565b6000612c4b8261371e565b80845260208401935083602082028501612c64856136f2565b60005b84811015612c9d578383038852612c7f83835161313b565b9250612c8a8261373f565b9150602088019750600181019050612c67565b508196508694505050505092915050565b6000612cb982613729565b80845260208401935083602082028501612cd2856136ff565b60005b84811015612d0b578383038852612ced83835161321c565b9250612cf88261374c565b9150602088019750600181019050612cd5565b508196508694505050505092915050565b612d258161376b565b82525050565b612d34816137d9565b82525050565b6000828452602084019350612d5083858461380f565b612d5983613851565b840190509392505050565b6000612d6f82613734565b808452612d8381602086016020860161381e565b612d8c81613851565b602085010191505092915050565b600081546001811660008114612db75760018114612dd757612e18565b607f600283041680865260ff198316602087015260408601935050612e18565b60028204808652602086019550612ded8561370c565b60005b82811015612e0f57815481890152600182019150602081019050612df0565b80880195505050505b505092915050565b6000602c82527f596f752068617665206e6f74207061696420726967687420746865207365637560208301527f72697479206465706f73697400000000000000000000000000000000000000006040830152606082019050919050565b6000602182527f43616e742041736b20726566756e642c61756374696f6e206e6f7420656e646560208301527f64000000000000000000000000000000000000000000000000000000000000006040830152606082019050919050565b6000601582527f41756374696f6e20616c726561647920656e64656400000000000000000000006020830152604082019050919050565b6000602182527f41756374696f6e2049642070726f766964656420646f65736e2774206578697360208301527f74000000000000000000000000000000000000000000000000000000000000006040830152606082019050919050565b6000602482527f4f6e6c792042656e65666963696172792063616e20656e64207468652061756360208301527f74696f6e000000000000000000000000000000000000000000000000000000006040830152606082019050919050565b6000600a82527f41667465722074696d65000000000000000000000000000000000000000000006020830152604082019050919050565b6000603082527f4469646e277420706c6163652061206265742c6e6f20706f696e7420696e207260208301527f657665616c696e672074686520626964000000000000000000000000000000006040830152606082019050919050565b6000602082527f4f6e6c792057696e6e65722063616e20636f6e6669726d2070757263686173656020830152604082019050919050565b6000600b82527f6265666f72652074696d650000000000000000000000000000000000000000006020830152604082019050919050565b6000601682527f42656e65666963696172792063616e6e6f7420626964000000000000000000006020830152604082019050919050565b6000601f82527f42696464657220416c726561647920706c6163656420746865697220626964006020830152604082019050919050565b6000610140830160008301516131546000860182613374565b5060208301516131676020860182612c31565b50604083015161317a6040860182613374565b50606083015161318d6060860182613374565b5060808301516131a06080860182612d1c565b5060a083015184820360a08601526131b88282612d64565b91505060c083015184820360c08601526131d28282612d64565b91505060e08301516131e760e0860182613374565b506101008301516131fc610100860182612d1c565b50610120830151613211610120860182612d1c565b508091505092915050565b60006101e0830160008301516132356000860182613374565b5060208301516132486020860182612c31565b50604083015161325b6040860182612c31565b50606083015161326e6060860182613374565b5060808301516132816080860182613374565b5060a083015161329460a0860182612d1c565b5060c08301516132a760c0860182612d1c565b5060e083015184820360e08601526132bf8282612d64565b9150506101008301518482036101008601526132db8282612d64565b9150506101208301516132f2610120860182613374565b50610140830151613307610140860182612d1c565b5061016083015161331c610160860182612d1c565b50610180830151613331610180860182613374565b506101a08301518482036101a086015261334b8282612d64565b9150506101c08301518482036101c08601526133678282612d64565b9150508091505092915050565b61337d81613797565b82525050565b60006020820190506133986000830184612c22565b92915050565b600060208201905081810360008301526133b88184612c40565b905092915050565b600060208201905081810360008301526133da8184612cae565b905092915050565b600060208201905081810360008301526133fb81612e20565b9050919050565b6000602082019050818103600083015261341b81612e7d565b9050919050565b6000602082019050818103600083015261343b81612eda565b9050919050565b6000602082019050818103600083015261345b81612f11565b9050919050565b6000602082019050818103600083015261347b81612f6e565b9050919050565b6000602082019050818103600083015261349b81612fcb565b9050919050565b600060208201905081810360008301526134bb81613002565b9050919050565b600060208201905081810360008301526134db8161305f565b9050919050565b600060208201905081810360008301526134fb81613096565b9050919050565b6000602082019050818103600083015261351b816130cd565b9050919050565b6000602082019050818103600083015261353b81613104565b9050919050565b60006020820190506135576000830184613374565b92915050565b60006040820190506135726000830185613374565b61357f6020830184612c22565b9392505050565b600060608201905061359b6000830186613374565b6135a86020830185612c22565b6135b56040830184612d2b565b949350505050565b60006080820190506135d26000830187613374565b6135df6020830186612c22565b81810360408301526135f18185612d9a565b90506136006060830184613374565b95945050505050565b600060608201905061361e6000830186613374565b61362b6020830185612c22565b6136386040830184613374565b949350505050565b60006040820190506136556000830186613374565b8181036020830152613668818486612d3a565b9050949350505050565b60006080820190506136876000830189613374565b818103602083015261369a818789612d3a565b905081810360408301526136af818587612d3a565b90506136be6060830184613374565b979650505050505050565b60006040820190506136de6000830185613374565b6136eb6020830184613374565b9392505050565b6000602082019050919050565b6000602082019050919050565b60008160005260206000209050919050565b600081519050919050565b600081519050919050565b600081519050919050565b6000602082019050919050565b6000602082019050919050565b600061376482613777565b9050919050565b60008115159050919050565b600073ffffffffffffffffffffffffffffffffffffffff82169050919050565b6000819050919050565b60006137ac82613777565b9050919050565b6000819050919050565b6000819050919050565b60006137d2826137eb565b9050919050565b60006137e482613797565b9050919050565b60006137f6826137fd565b9050919050565b600061380882613777565b9050919050565b82818337600083830152505050565b60005b8381101561383c578082015181840152602081019050613821565b8381111561384b576000848401525b50505050565b6000601f19601f830116905091905056fea265627a7a7230582041da4f53a9034bc2ea8dcded000b9569e4956f2d6cb4fb2d4ffac62742573e796c6578706572696d656e74616cf50037",
  "source": "/// SPDX-License-Identifier: MIT\r\npragma solidity ^0.5.1;\r\npragma experimental ABIEncoderV2;\r\n\r\n/// @title The contract for buying and selling items on a market\r\ncontract BlindAuction {\r\n\r\n    struct Bid {\r\n        bytes32 bidHash;\r\n        uint256 deposit;\r\n    }\r\n\r\n    struct auctions {\r\n        uint256 auction_id;\r\n        address payable beneficiary;\r\n        uint256 biddingEnd;\r\n        uint256 revealEnd;\r\n        bool ended;\r\n        string item_name;\r\n        string item_description;\r\n        uint256 start_price;\r\n        bool sold;\r\n        address payable highestBidder;\r\n        uint256 highestBid;\r\n        address payable[] revealedBidders;\r\n        address payable winner;\r\n        uint256 winningBid;\r\n        string H;\r\n        mapping(address => Bid) bids;\r\n        mapping(address => uint256) pendingReturns;\r\n        mapping(address => bool) bidded;\r\n        mapping(address => bool) revealed;\r\n        mapping(address => string) pubkey;\r\n    }\r\n\r\n    struct auction_active_listings {\r\n        uint256 auction_id;\r\n        address payable beneficiary;\r\n        uint256 biddingEnd;\r\n        uint256 revealEnd;\r\n        bool ended;\r\n        string item_name;\r\n        string item_description;\r\n        uint256 start_price;\r\n        bool bidplaced;\r\n        bool revealed;\r\n    }\r\n\r\n    struct auction_all_listings {\r\n        uint256 auction_id;\r\n        address payable beneficiary;\r\n        address payable winner;\r\n        uint256 biddingEnd;\r\n        uint256 revealEnd;\r\n        bool ended;\r\n        bool sold;\r\n        string item_name;\r\n        string item_description;\r\n        uint256 start_price;\r\n        bool bidplaced;\r\n        bool revealed;\r\n        uint256 finalBid;\r\n        string pubkey;\r\n        string H;\r\n    }\r\n\r\n\r\n    event AuctionStarted(\r\n        uint256 Auction_id,\r\n        string item_name,\r\n        string item_description,\r\n        uint256 start_price\r\n    );\r\n\r\n\r\n    event AuctionEnded(\r\n        uint256 Auction_id,\r\n        address highestBidder,\r\n        uint256 highestBid\r\n    );\r\n\r\n    ///@dev when an item goes unsold at the end of the auction\r\n    ///@param auction_id is the id of the auction\r\n    event ItemUnsold(uint256 auction_id);\r\n\r\n    /// @dev this event to annouce bidding started\r\n    /// @param Auction_id is the id of the auction\r\n    /// @param bidding_end is the time when bidding period ends\r\n    event BiddingStarted(uint256 Auction_id, uint256 bidding_end);\r\n\r\n    /// @dev this event to annouce bidding period ended\r\n    /// @param Auction_id is the id of the auction\r\n    event BiddingPeriodEnded(uint256 Auction_id);\r\n\r\n    /// @dev announcement of a new\r\n    /// @param bidder address of the bidder\r\n    event BidMade(address bidder);\r\n\r\n    ///@dev announcement to start revealing bids\r\n    /// @param Auction_id id of the auction item\r\n    /// @param reveal_end is the time when revealing period ends\r\n    event RevealPeriodStarted(uint256 Auction_id, uint256 reveal_end);\r\n\r\n    ///@dev annouce to end revealing period\r\n    /// @param Auction_id id of the auction\r\n    event RevealPeriodEnded(uint256 Auction_id);\r\n\r\n    ///@dev announce winner\r\n    /// @param Auction_id is the id of the auction\r\n    /// @param winner is the address of the winner\r\n    ///@param pubkey is the public key of the winner\r\n    ///@param winningBid is the value of the winning bid\r\n    event WinnerChosen(\r\n        uint256 Auction_id,\r\n        address winner,\r\n        string pubkey,\r\n        uint256 winningBid\r\n    );\r\n\r\n    ///@dev bid revealed\r\n    ///@param Auction_id is the id of the auction\r\n    ///@param bidder is the address of the revealer\r\n    event BidRevealed(uint256 Auction_id, address bidder);\r\n\r\n    ///@dev bid revealed failed\r\n    ///@param Auction_id is the id of the auction\r\n    ///@param bidder is the address of the revealer\r\n    event BidRevealFailed(uint256 Auction_id, address bidder);\r\n\r\n    ///@dev event to notify Refunds of bids\r\n    ///@param auction_id is the id of the auction\r\n    ///@param bidder is the address of the revealer\r\n    ///@param bid_value  refers to whether the bid is succesfully revealed and refund done\r\n    event BidderRefunded(uint256 auction_id, address bidder, uint256 bid_value);\r\n\r\n    ///@dev event to notify Refunds of bids\r\n    ///@param auction_id is the id of the auction\r\n    ///@param bidder is the address of the revealer\r\n    ///@param balance  refers to whether the bid is succesfully revealed and refund done\r\n    event BalanceRefunded(uint256 auction_id, address bidder, uint256 balance);\r\n\r\n    ///@dev event to notify when the deposit is not enough\r\n    ///@param auction_id is the id of the auction\r\n    ///@param bidder is the bidder\r\n    event DepositNotEnough(uint256 auction_id, address bidder);\r\n\r\n    ///@dev to notify highest Bid has been modified\r\n    ///@param auction_id is the id of the auction\r\n    ///@param bidder is the bidder\r\n    ///@param bid_value refers to the bid\r\n    event NewHighestBid(uint256 auction_id, address bidder, uint256 bid_value);\r\n\r\n    ///@dev event to send the hashed Item\r\n    ///@param auction_id is the id of the auction\r\n    ///@param H is the hashed passwords\r\n    event encryptedKey(uint256 auction_id, string H);\r\n\r\n    ///@dev to confirm delivery\r\n    ///@param auction_id is the id of the auction\r\n    event deliveryComplete(uint256 auction_id);\r\n\r\n    /// @dev create a lists of all auctions\r\n    mapping(uint256 => auctions) private Auctions;\r\n\r\n    // variables for managing auctions\r\n    uint256 current_auction_id = 0;\r\n    uint256 activeauctions = 0;\r\n\r\n    //MODIFIERS\r\n\r\n    /// @notice Check whether a given condition is true\r\n    /// @param _condition condition statement to verify.\r\n    modifier condition(bool _condition) {\r\n        require(_condition);\r\n        _;\r\n    }\r\n\r\n    function integersToString(uint256 _i, uint256 _j)\r\n        internal\r\n        pure\r\n        returns (string memory)\r\n    {\r\n        uint256 j = _i;\r\n        uint256 len;\r\n\r\n        while (j != 0) {\r\n            len++;\r\n            j /= 10;\r\n        }\r\n        j = _j;\r\n        while (j != 0) {\r\n            len++;\r\n            j /= 10;\r\n        }\r\n        len++;\r\n        bytes memory bstr = new bytes(len);\r\n        uint256 k = len - 1;\r\n\r\n        while (_j != 0) {\r\n            bstr[k--] = bytes1(uint8(48 + (_j % 10)));\r\n            _j /= 10;\r\n        }\r\n        bstr[k--] = bytes1(uint8(32));\r\n        while (_i != 0) {\r\n            bstr[k--] = bytes1(uint8(48 + (_i % 10)));\r\n            _i /= 10;\r\n        }\r\n        return string(bstr);\r\n    }\r\n\r\n    modifier onlyBefore(uint256 _time) {\r\n        require(block.timestamp > _time, \"After time\");\r\n        // require(\r\n        //     block.timestamp < _time,\r\n        //     integersToString(block.timestamp, _time)\r\n        // );\r\n        _;\r\n    }\r\n    modifier onlyAfter(uint256 _time) {\r\n        require(block.timestamp > _time, \"before time\");\r\n        _;\r\n    }\r\n\r\n    modifier validBidder(uint256 auction_id) {\r\n        require(\r\n            msg.sender != Auctions[auction_id].beneficiary,\r\n            \"Beneficiary cannot bid\"\r\n        );\r\n        _;\r\n    }\r\n    modifier newBidder(uint256 auction_id) {\r\n        require(\r\n            !Auctions[auction_id].bidded[msg.sender],\r\n            \"Bidder Already placed their bid\"\r\n        );\r\n        _;\r\n    }\r\n\r\n    modifier alreadyBidder(uint256 auction_id) {\r\n        require(\r\n            Auctions[auction_id].bidded[msg.sender] == true,\r\n            \"Didn't place a bet,no point in revealing the bid\"\r\n        );\r\n        _;\r\n    }\r\n\r\n    modifier onlyBeneficiary(uint256 auction_id) {\r\n        require(\r\n            Auctions[auction_id].beneficiary == msg.sender,\r\n            \"Only Beneficiary can end the auction\"\r\n        );\r\n        _;\r\n    }\r\n    modifier auctionActive(uint256 auction_id) {\r\n        require(Auctions[auction_id].ended == false, \"Auction already ended\");\r\n        _;\r\n    }\r\n    modifier auctionEnded(uint256 auction_id) {\r\n        require(\r\n            Auctions[auction_id].ended == true,\r\n            \"Cant Ask refund,auction not ended\"\r\n        );\r\n        _;\r\n    }\r\n    modifier validAuctionId(uint256 auction_id) {\r\n        require(\r\n            auction_id < current_auction_id,\r\n            \"Auction Id provided doesn't exist\"\r\n        );\r\n        _;\r\n    }\r\n    modifier onlyWinner(uint256 auction_id) {\r\n        require(\r\n            msg.sender == Auctions[auction_id].winner,\r\n            \"Only Winner can confirm purchase\"\r\n        );\r\n        _;\r\n    }\r\n\r\n    //functions\r\n\r\n    /// @notice returns balance of account\r\n    /// @param account Address of the account.\r\n    function getAccountBalance(address account)\r\n        public\r\n        view\r\n        returns (uint256 accountBalance)\r\n    {\r\n        accountBalance = account.balance;\r\n    }\r\n\r\n    /// @dev function to list the auction of a new item\r\n    /// @param item_name name of the item\r\n    /// @param item_description is the description of the item\r\n    /// @param bidding_time how long the bidding will go\r\n    /// @param reveal_time how long the reveal will go\r\n    function auctionItem(\r\n        string calldata item_name,\r\n        string calldata item_description,\r\n        uint256 bidding_time,\r\n        uint256 reveal_time,\r\n        uint256 start_price\r\n    ) external payable {\r\n        uint256 auction_id = current_auction_id;\r\n        current_auction_id += 1;\r\n        activeauctions += 1;\r\n        uint256 bidding_end = block.timestamp + bidding_time;\r\n        uint256 reveal_end = bidding_end + reveal_time;\r\n\r\n    Auctions[auction_id] = auctions(\r\n            auction_id,\r\n            msg.sender,\r\n            bidding_end,\r\n            reveal_end,\r\n            false,\r\n            item_name,\r\n            item_description,\r\n            start_price,\r\n            false,\r\n            address(0),\r\n            0,\r\n            new address payable[](0),\r\n            address(0),\r\n            0,\r\n            \"\"\r\n        );\r\n        emit AuctionStarted(auction_id, item_name, item_description, start_price);\r\n        emit BiddingStarted(auction_id, bidding_end);\r\n    }\r\n\r\n    // function to to get a list of all active auctions\r\n    /// @notice Get all the active auction listings items in the market\r\n    /// @return a list of active auction listings\r\n    function getactiveauctions()\r\n        external\r\n        view\r\n        returns (auction_active_listings[] memory)\r\n    {\r\n        uint256 currentIndex = 0;\r\n        auction_active_listings[]\r\n            memory active_auctions = new auction_active_listings[](\r\n                activeauctions\r\n            );\r\n        for (uint256 i = 0; i < current_auction_id; i++) {\r\n            if (Auctions[i].ended == false) {\r\n                auctions storage currentauction = Auctions[i];\r\n                active_auctions[currentIndex] = auction_active_listings(\r\n                    currentauction.auction_id,\r\n                    currentauction.beneficiary,\r\n                    currentauction.biddingEnd,\r\n                    currentauction.revealEnd,\r\n                    currentauction.ended,\r\n                    currentauction.item_name,\r\n                    currentauction.item_description,\r\n                    currentauction.start_price,\r\n                    currentauction.bidded[msg.sender],\r\n                    currentauction.revealed[msg.sender]\r\n                );\r\n                currentIndex += 1;\r\n            }\r\n        }\r\n        return active_auctions;\r\n    }\r\n\r\n    // function to to get a list of all auctions\r\n    /// @notice Get all the auction listings items in the market\r\n    /// @return a list of all auction listings\r\n    function getallauctions()\r\n        external\r\n        view\r\n        returns (auction_all_listings[] memory)\r\n    {\r\n        auction_all_listings[] memory all_auctions = new auction_all_listings[](\r\n            current_auction_id\r\n        );\r\n        for (uint256 i = 0; i < current_auction_id; i++) {\r\n            auctions storage currentauction = Auctions[i];\r\n            string memory pubkey = \"\";\r\n            if (currentauction.highestBidder != address(0))\r\n                pubkey = currentauction.pubkey[currentauction.highestBidder];\r\n            all_auctions[i] = auction_all_listings(\r\n                currentauction.auction_id,\r\n                currentauction.beneficiary,\r\n                currentauction.highestBidder,\r\n                currentauction.biddingEnd,\r\n                currentauction.revealEnd,\r\n                currentauction.ended,\r\n                currentauction.sold,\r\n                currentauction.item_name,\r\n                currentauction.item_description,\r\n                currentauction.start_price,\r\n                currentauction.bidded[msg.sender],\r\n                currentauction.revealed[msg.sender],\r\n                currentauction.highestBid,\r\n                pubkey,\r\n                currentauction.H\r\n            );\r\n        }\r\n        return all_auctions;\r\n    }\r\n\r\n    // function that can be used to bid in an auction\r\n    /// @param blindedBid is the hashed version of bid\r\n    /// @param auction_id is the id of the auction\r\n    ///@param pubkey is the public key of the bidder\r\n    function bid(\r\n        bytes32 blindedBid,\r\n        uint256 auction_id,\r\n        string calldata pubkey\r\n    )\r\n        external\r\n        payable\r\n        onlyBefore(Auctions[auction_id].biddingEnd)\r\n        validBidder(auction_id)\r\n        newBidder(auction_id)\r\n        validAuctionId(auction_id)\r\n    {\r\n        Auctions[auction_id].bids[msg.sender] = Bid(blindedBid, msg.value);\r\n        Auctions[auction_id].bidded[msg.sender] = true;\r\n        Auctions[auction_id].pubkey[msg.sender] = pubkey;\r\n        emit BidMade(msg.sender);\r\n    }\r\n\r\n    /// @dev Reveal your blinded bids. You will get a refund for all\r\n    /// @dev correctly blinded invalid bids and for all bids except for\r\n    /// @dev the totally highest.\r\n    /// @param value value of the bid\r\n    /// @param secret again not sure\r\n    /// @param auction_id id of the auction\r\n    function reveal(\r\n        uint256 value,\r\n        //bool fake,\r\n        string calldata secret,\r\n        uint256 auction_id\r\n    )\r\n        external\r\n        payable\r\n        onlyAfter(Auctions[auction_id].biddingEnd)\r\n        onlyBefore(Auctions[auction_id].revealEnd)\r\n        alreadyBidder(auction_id)\r\n        validAuctionId(auction_id)\r\n    {\r\n        uint256 refund = 0;\r\n        // bool success = false;\r\n        //get the bid placed by the user\r\n        Bid storage bidToCheck = Auctions[auction_id].bids[msg.sender];\r\n\r\n        // improper revealing\r\n        if (bidToCheck.bidHash != keccak256(abi.encode(value, secret))) {\r\n            // Bid was not actually revealed.\r\n            // Do not refund deposit.\r\n            emit BidRevealFailed(auction_id, msg.sender);\r\n        } else {\r\n            // Make it impossible for the sender to re-claim\r\n            bidToCheck.bidHash = bytes32(0);\r\n\r\n            Auctions[auction_id].revealedBidders.push(msg.sender);\r\n            Auctions[auction_id].revealed[msg.sender] = true;\r\n            refund += bidToCheck.deposit;\r\n            if (bidToCheck.deposit >= 2 * value) {\r\n                if (placeBid(auction_id, msg.sender, value))\r\n                    refund -= 2 * value;\r\n                emit BidRevealed(auction_id, msg.sender);\r\n            } else emit DepositNotEnough(auction_id, msg.sender);\r\n            // the same deposit.\r\n            emit BalanceRefunded(auction_id, msg.sender, refund);\r\n            msg.sender.transfer(refund);\r\n        }\r\n    }\r\n\r\n    // This is an \"internal\" function which means that it\r\n    // can only be called from the contract itself (or from\r\n    // derived contracts).\r\n    ///@dev the function is used accept bids by the owner\r\n    ///@param auction_id is the id of the auction\r\n    ///@param bidder is the address of the bidder\r\n    ///@param value is the value of the bid\r\n    function placeBid(\r\n        uint256 auction_id,\r\n        address payable bidder,\r\n        uint256 value\r\n    ) internal returns (bool) {\r\n        if (value <= Auctions[auction_id].highestBid) {\r\n            return false;\r\n        }\r\n        if (Auctions[auction_id].highestBidder != address(0)) {\r\n            // Refund the previously highest bidder.\r\n            Auctions[auction_id].pendingReturns[\r\n                Auctions[auction_id].highestBidder\r\n            ] += 2 * Auctions[auction_id].highestBid;\r\n        }\r\n        Auctions[auction_id].highestBid = value;\r\n        Auctions[auction_id].highestBidder = bidder;\r\n        emit NewHighestBid(auction_id, bidder, value);\r\n        return true;\r\n    }\r\n\r\n    ///@dev function to withdraw overbid/non-winning bids\r\n    ///@param auction_id is the id of the Auction\r\n    ///@param bidder is the address of the bidder whose payment is pending\r\n    function withdraw(uint256 auction_id, address payable bidder)\r\n        internal\r\n        auctionEnded(auction_id)\r\n    {\r\n        //emit BidderRefunded(auction_id,msg.sender, Auctions[auction_id].pendingReturns[msg.sender]);\r\n        if (Auctions[auction_id].pendingReturns[bidder] > 0) {\r\n            uint256 value = Auctions[auction_id].pendingReturns[bidder];\r\n            Auctions[auction_id].pendingReturns[bidder] = 0;\r\n            address payable payable_sender = bidder;\r\n            payable_sender.transfer(value);\r\n            emit BidderRefunded(auction_id, bidder, value);\r\n        }\r\n    }\r\n\r\n    ///@dev End the auction and send the highest bid to the beneficiary\r\n    ///@param auction_id is the id of the auction\r\n    ///@notice only beneficiary of the auction can call the function\r\n    function auctionEnd(uint256 auction_id)\r\n        external\r\n        onlyAfter(Auctions[auction_id].revealEnd)\r\n        onlyBeneficiary(auction_id)\r\n        auctionActive(auction_id)\r\n    {\r\n        // if (Auctions[auction_id].ended) revert AuctionEndAlreadyCalled();\r\n        if (\r\n            Auctions[auction_id].highestBid == 0 &&\r\n            Auctions[auction_id].highestBidder == address(0)\r\n        ) {\r\n            emit ItemUnsold(auction_id);\r\n            emit AuctionEnded(auction_id, address(0), 0);\r\n            Auctions[auction_id].ended = true;\r\n            activeauctions -= 1;\r\n        } else {\r\n            emit AuctionEnded(\r\n                auction_id,\r\n                Auctions[auction_id].highestBidder,\r\n                Auctions[auction_id].highestBid\r\n            );\r\n            Auctions[auction_id].ended = true;\r\n            activeauctions -= 1;\r\n            Auctions[auction_id].winner = Auctions[auction_id].highestBidder;\r\n            Auctions[auction_id].winningBid = Auctions[auction_id].highestBid;\r\n            for (\r\n                uint256 i = 0;\r\n                i < Auctions[auction_id].revealedBidders.length;\r\n                ++i\r\n            ) {\r\n                withdraw(auction_id, Auctions[auction_id].revealedBidders[i]);\r\n            }\r\n            //Auctions[auction_id].beneficiary.transfer(\r\n            //Auctions[auction_id].highestBid\r\n            // );\r\n            emit WinnerChosen(\r\n                auction_id,\r\n                Auctions[auction_id].winner,\r\n                Auctions[auction_id].pubkey[Auctions[auction_id].winner],\r\n                Auctions[auction_id].winningBid\r\n            );\r\n        }\r\n    }\r\n\r\n    /// @dev Sale of item from seller's side\r\n    /// @dev Transaction from the seller\r\n    /// @param auction_id is the id of the item being sold_\r\n    /// @param H is the unique string for the item\r\n    /// @dev assume the seller is fair,will provide the right item\r\n    function sellItem(uint256 auction_id, string calldata H)\r\n        external\r\n        payable\r\n        validAuctionId(auction_id)\r\n        auctionEnded(auction_id)\r\n        onlyBeneficiary(auction_id)\r\n    {\r\n        /// Check the security deposits\r\n        require(\r\n            msg.value == 2 * Auctions[auction_id].winningBid,\r\n            \"You have not paid right the security deposit\"\r\n        );\r\n        Auctions[auction_id].H = H;\r\n\r\n        emit encryptedKey(auction_id, H);\r\n        //  Auctions[auction_id].beneficiary.transfer(Auctions[auction_id].winningBid);\r\n    }\r\n\r\n    /// @dev Confirmation of delivery\r\n    /// @dev Transaction from the winner\r\n    /// @param auction_id is the id of the item being sold_\r\n    function confirmDelivery(uint256 auction_id)\r\n        external\r\n        payable\r\n        validAuctionId(auction_id)\r\n        onlyWinner(auction_id)\r\n        auctionEnded(auction_id)\r\n    {\r\n        /// Refund the seller\r\n        uint256 amt = Auctions[auction_id].winningBid;\r\n        uint256 prof = 3 * amt;\r\n        // emit deliveryComplete(auction_id);\r\n        Auctions[auction_id].pendingReturns[Auctions[auction_id].winner] = 0;\r\n        Auctions[auction_id].sold = true;\r\n\r\n        Auctions[auction_id].beneficiary.transfer(prof);\r\n        Auctions[auction_id].winner.transfer(amt);\r\n\r\n        emit deliveryComplete(auction_id);\r\n    }\r\n}\r\n\r\n",
  "sourcePath": "E:\\DuongTanHuy\\Capstone\\Capstone_I\\source-code-project\\contracts\\BlindAuction.sol",
  "compiler": {
    "name": "solc",
    "version": "0.5.1+commit.c8a2cb62.Emscripten.clang"
  },
  "schemaVersion": "3.4.10",
  "updatedAt": "2022-12-16T18:43:11.511Z",
  "networkType": "ethereum",
  "devdoc": {
    "methods": {
      "auctionItem(string,string,uint256,uint256,uint256)": {
        "params": {
          "reveal_time": "how long the reveal will go"
        }
      },
      "bid(bytes32,uint256,string)": {
        "params": {
          "pubkey": "is the public key of the bidder"
        }
      },
      "confirmDelivery(uint256)": {
        "params": {
          "auction_id": "is the id of the item being sold_"
        }
      },
      "getAccountBalance(address)": {
        "params": {
          "account": "Address of the account."
        }
      },
      "getactiveauctions()": {
        "return": "a list of active auction listings"
      },
      "getallauctions()": {
        "return": "a list of all auction listings"
      },
      "reveal(uint256,string,uint256)": {
        "params": {
          "auction_id": "id of the auction"
        }
      },
      "sellItem(uint256,string)": {
        "details": "assume the seller is fair,will provide the right item"
      }
    },
    "title": "The contract for buying and selling items on a market"
  },
  "userdoc": {
    "methods": {
      "auctionEnd(uint256)": {
        "notice": "only beneficiary of the auction can call the function"
      }
    }
  }
}