{
  "contractName": "BlindAuction",
  "abi": [
    {
      "anonymous": false,
      "inputs": [
        {
          "indexed": false,
          "internalType": "uint256",
          "name": "Auction_id",
          "type": "uint256"
        },
        {
          "indexed": false,
          "internalType": "address",
          "name": "highestBidder",
          "type": "address"
        },
        {
          "indexed": false,
          "internalType": "uint256",
          "name": "highestBid",
          "type": "uint256"
        }
      ],
      "name": "AuctionEnded",
      "type": "event"
    },
    {
      "anonymous": false,
      "inputs": [
        {
          "indexed": false,
          "internalType": "uint256",
          "name": "Auction_id",
          "type": "uint256"
        },
        {
          "indexed": false,
          "internalType": "string",
          "name": "item_name",
          "type": "string"
        },
        {
          "indexed": false,
          "internalType": "string",
          "name": "item_description",
          "type": "string"
        },
        {
          "indexed": false,
          "internalType": "uint256",
          "name": "start_price",
          "type": "uint256"
        }
      ],
      "name": "AuctionStarted",
      "type": "event"
    },
    {
      "anonymous": false,
      "inputs": [
        {
          "indexed": false,
          "internalType": "uint256",
          "name": "auction_id",
          "type": "uint256"
        },
        {
          "indexed": false,
          "internalType": "address",
          "name": "bidder",
          "type": "address"
        },
        {
          "indexed": false,
          "internalType": "uint256",
          "name": "balance",
          "type": "uint256"
        }
      ],
      "name": "BalanceRefunded",
      "type": "event"
    },
    {
      "anonymous": false,
      "inputs": [
        {
          "indexed": false,
          "internalType": "address",
          "name": "bidder",
          "type": "address"
        }
      ],
      "name": "BidMade",
      "type": "event"
    },
    {
      "anonymous": false,
      "inputs": [
        {
          "indexed": false,
          "internalType": "uint256",
          "name": "Auction_id",
          "type": "uint256"
        },
        {
          "indexed": false,
          "internalType": "address",
          "name": "bidder",
          "type": "address"
        }
      ],
      "name": "BidRevealFailed",
      "type": "event"
    },
    {
      "anonymous": false,
      "inputs": [
        {
          "indexed": false,
          "internalType": "uint256",
          "name": "Auction_id",
          "type": "uint256"
        },
        {
          "indexed": false,
          "internalType": "address",
          "name": "bidder",
          "type": "address"
        }
      ],
      "name": "BidRevealed",
      "type": "event"
    },
    {
      "anonymous": false,
      "inputs": [
        {
          "indexed": false,
          "internalType": "uint256",
          "name": "auction_id",
          "type": "uint256"
        },
        {
          "indexed": false,
          "internalType": "address",
          "name": "bidder",
          "type": "address"
        },
        {
          "indexed": false,
          "internalType": "uint256",
          "name": "bid_value",
          "type": "uint256"
        }
      ],
      "name": "BidderRefunded",
      "type": "event"
    },
    {
      "anonymous": false,
      "inputs": [
        {
          "indexed": false,
          "internalType": "uint256",
          "name": "Auction_id",
          "type": "uint256"
        }
      ],
      "name": "BiddingPeriodEnded",
      "type": "event"
    },
    {
      "anonymous": false,
      "inputs": [
        {
          "indexed": false,
          "internalType": "uint256",
          "name": "Auction_id",
          "type": "uint256"
        },
        {
          "indexed": false,
          "internalType": "uint256",
          "name": "bidding_end",
          "type": "uint256"
        }
      ],
      "name": "BiddingStarted",
      "type": "event"
    },
    {
      "anonymous": false,
      "inputs": [
        {
          "indexed": false,
          "internalType": "uint256",
          "name": "auction_id",
          "type": "uint256"
        },
        {
          "indexed": false,
          "internalType": "address",
          "name": "bidder",
          "type": "address"
        }
      ],
      "name": "DepositNotEnough",
      "type": "event"
    },
    {
      "anonymous": false,
      "inputs": [
        {
          "indexed": false,
          "internalType": "uint256",
          "name": "auction_id",
          "type": "uint256"
        }
      ],
      "name": "ItemUnsold",
      "type": "event"
    },
    {
      "anonymous": false,
      "inputs": [
        {
          "indexed": false,
          "internalType": "uint256",
          "name": "auction_id",
          "type": "uint256"
        },
        {
          "indexed": false,
          "internalType": "address",
          "name": "bidder",
          "type": "address"
        },
        {
          "indexed": false,
          "internalType": "uint256",
          "name": "bid_value",
          "type": "uint256"
        }
      ],
      "name": "NewHighestBid",
      "type": "event"
    },
    {
      "anonymous": false,
      "inputs": [
        {
          "indexed": false,
          "internalType": "uint256",
          "name": "Auction_id",
          "type": "uint256"
        }
      ],
      "name": "RevealPeriodEnded",
      "type": "event"
    },
    {
      "anonymous": false,
      "inputs": [
        {
          "indexed": false,
          "internalType": "uint256",
          "name": "Auction_id",
          "type": "uint256"
        },
        {
          "indexed": false,
          "internalType": "uint256",
          "name": "reveal_end",
          "type": "uint256"
        }
      ],
      "name": "RevealPeriodStarted",
      "type": "event"
    },
    {
      "anonymous": false,
      "inputs": [
        {
          "indexed": false,
          "internalType": "uint256",
          "name": "Auction_id",
          "type": "uint256"
        },
        {
          "indexed": false,
          "internalType": "address",
          "name": "winner",
          "type": "address"
        },
        {
          "indexed": false,
          "internalType": "string",
          "name": "pubkey",
          "type": "string"
        },
        {
          "indexed": false,
          "internalType": "uint256",
          "name": "winningBid",
          "type": "uint256"
        }
      ],
      "name": "WinnerChosen",
      "type": "event"
    },
    {
      "anonymous": false,
      "inputs": [
        {
          "indexed": false,
          "internalType": "uint256",
          "name": "auction_id",
          "type": "uint256"
        }
      ],
      "name": "deliveryComplete",
      "type": "event"
    },
    {
      "anonymous": false,
      "inputs": [
        {
          "indexed": false,
          "internalType": "uint256",
          "name": "auction_id",
          "type": "uint256"
        },
        {
          "indexed": false,
          "internalType": "string",
          "name": "H",
          "type": "string"
        }
      ],
      "name": "encryptedKey",
      "type": "event"
    },
    {
      "inputs": [
        {
          "internalType": "address",
          "name": "account",
          "type": "address"
        }
      ],
      "name": "getAccountBalance",
      "outputs": [
        {
          "internalType": "uint256",
          "name": "accountBalance",
          "type": "uint256"
        }
      ],
      "stateMutability": "view",
      "type": "function",
      "constant": true
    },
    {
      "inputs": [
        {
          "internalType": "string",
          "name": "item_name",
          "type": "string"
        },
        {
          "internalType": "string",
          "name": "item_description",
          "type": "string"
        },
        {
          "internalType": "uint256",
          "name": "start_price",
          "type": "uint256"
        },
        {
          "internalType": "uint256",
          "name": "bidding_time",
          "type": "uint256"
        },
        {
          "internalType": "uint256",
          "name": "reveal_time",
          "type": "uint256"
        }
      ],
      "name": "auctionItem",
      "outputs": [],
      "stateMutability": "payable",
      "type": "function",
      "payable": true
    },
    {
      "inputs": [],
      "name": "getactiveauctions",
      "outputs": [
        {
          "components": [
            {
              "internalType": "uint256",
              "name": "auction_id",
              "type": "uint256"
            },
            {
              "internalType": "address payable",
              "name": "beneficiary",
              "type": "address"
            },
            {
              "internalType": "uint256",
              "name": "biddingEnd",
              "type": "uint256"
            },
            {
              "internalType": "uint256",
              "name": "revealEnd",
              "type": "uint256"
            },
            {
              "internalType": "bool",
              "name": "ended",
              "type": "bool"
            },
            {
              "internalType": "string",
              "name": "item_name",
              "type": "string"
            },
            {
              "internalType": "string",
              "name": "item_description",
              "type": "string"
            },
            {
              "internalType": "uint256",
              "name": "start_price",
              "type": "uint256"
            },
            {
              "internalType": "bool",
              "name": "bidplaced",
              "type": "bool"
            },
            {
              "internalType": "bool",
              "name": "revealed",
              "type": "bool"
            }
          ],
          "internalType": "struct BlindAuction.auction_active_listings[]",
          "name": "",
          "type": "tuple[]"
        }
      ],
      "stateMutability": "view",
      "type": "function",
      "constant": true
    },
    {
      "inputs": [],
      "name": "getallauctions",
      "outputs": [
        {
          "components": [
            {
              "internalType": "uint256",
              "name": "auction_id",
              "type": "uint256"
            },
            {
              "internalType": "address payable",
              "name": "beneficiary",
              "type": "address"
            },
            {
              "internalType": "address payable",
              "name": "winner",
              "type": "address"
            },
            {
              "internalType": "uint256",
              "name": "biddingEnd",
              "type": "uint256"
            },
            {
              "internalType": "uint256",
              "name": "revealEnd",
              "type": "uint256"
            },
            {
              "internalType": "bool",
              "name": "ended",
              "type": "bool"
            },
            {
              "internalType": "bool",
              "name": "sold",
              "type": "bool"
            },
            {
              "internalType": "string",
              "name": "item_name",
              "type": "string"
            },
            {
              "internalType": "string",
              "name": "item_description",
              "type": "string"
            },
            {
              "internalType": "uint256",
              "name": "start_price",
              "type": "uint256"
            },
            {
              "internalType": "bool",
              "name": "bidplaced",
              "type": "bool"
            },
            {
              "internalType": "bool",
              "name": "revealed",
              "type": "bool"
            },
            {
              "internalType": "uint256",
              "name": "finalBid",
              "type": "uint256"
            },
            {
              "internalType": "string",
              "name": "pubkey",
              "type": "string"
            },
            {
              "internalType": "string",
              "name": "H",
              "type": "string"
            }
          ],
          "internalType": "struct BlindAuction.auction_all_listings[]",
          "name": "",
          "type": "tuple[]"
        }
      ],
      "stateMutability": "view",
      "type": "function",
      "constant": true
    },
    {
      "inputs": [
        {
          "internalType": "bytes32",
          "name": "blindedBid",
          "type": "bytes32"
        },
        {
          "internalType": "uint256",
          "name": "auction_id",
          "type": "uint256"
        },
        {
          "internalType": "string",
          "name": "pubkey",
          "type": "string"
        }
      ],
      "name": "bid",
      "outputs": [],
      "stateMutability": "payable",
      "type": "function",
      "payable": true
    },
    {
      "inputs": [
        {
          "internalType": "uint256",
          "name": "value",
          "type": "uint256"
        },
        {
          "internalType": "string",
          "name": "secret",
          "type": "string"
        },
        {
          "internalType": "uint256",
          "name": "auction_id",
          "type": "uint256"
        }
      ],
      "name": "reveal",
      "outputs": [],
      "stateMutability": "payable",
      "type": "function",
      "payable": true
    },
    {
      "inputs": [
        {
          "internalType": "uint256",
          "name": "auction_id",
          "type": "uint256"
        }
      ],
      "name": "auctionEnd",
      "outputs": [],
      "stateMutability": "nonpayable",
      "type": "function"
    },
    {
      "inputs": [
        {
          "internalType": "uint256",
          "name": "auction_id",
          "type": "uint256"
        },
        {
          "internalType": "string",
          "name": "H",
          "type": "string"
        }
      ],
      "name": "sellItem",
      "outputs": [],
      "stateMutability": "payable",
      "type": "function",
      "payable": true
    },
    {
      "inputs": [
        {
          "internalType": "uint256",
          "name": "auction_id",
          "type": "uint256"
        }
      ],
      "name": "confirmDelivery",
      "outputs": [],
      "stateMutability": "payable",
      "type": "function",
      "payable": true
    }
  ],
  "bytecode": "0x60806040526000600355600060045534801561001a57600080fd5b50613afa8061002a6000396000f3fe6080604052600436106100865760003560e01c806384febc4b1161005957806384febc4b1461011757806393423e9c1461013357806396a18f8014610170578063b5e360371461019b578063fd84cb97146101b757610086565b80630754aebb1461008b5780632a2dd377146100b657806332246e9f146100d25780634f3ae594146100fb575b600080fd5b34801561009757600080fd5b506100a06101d3565b6040516100ad9190612827565b60405180910390f35b6100d060048036038101906100cb91906128e4565b610741565b005b3480156100de57600080fd5b506100f960048036038101906100f491906129a0565b6108b3565b005b610115600480360381019061011091906129cd565b610ea0565b005b610131600480360381019061012c9190612a41565b611357565b005b34801561013f57600080fd5b5061015a60048036038101906101559190612adf565b611579565b6040516101679190612b1b565b60405180910390f35b34801561017c57600080fd5b5061018561159a565b6040516101929190612cd9565b60405180910390f35b6101b560048036038101906101b09190612d31565b6118f0565b005b6101d160048036038101906101cc91906129a0565b611c64565b005b6060600060035467ffffffffffffffff8111156101f3576101f2612da5565b5b60405190808252806020026020018201604052801561022c57816020015b6102196123ef565b8152602001906001900390816102115790505b50905060005b6003548110156107395760006002600083815260200190815260200160002090506000604051806020016040528060008152509050600073ffffffffffffffffffffffffffffffffffffffff168260080160019054906101000a900473ffffffffffffffffffffffffffffffffffffffff1673ffffffffffffffffffffffffffffffffffffffff16146103b0578160120160008360080160019054906101000a900473ffffffffffffffffffffffffffffffffffffffff1673ffffffffffffffffffffffffffffffffffffffff1673ffffffffffffffffffffffffffffffffffffffff168152602001908152602001600020805461032f90612e03565b80601f016020809104026020016040519081016040528092919081815260200182805461035b90612e03565b80156103a85780601f1061037d576101008083540402835291602001916103a8565b820191906000526020600020905b81548152906001019060200180831161038b57829003601f168201915b505050505090505b604051806101e00160405280836000015481526020018360010160009054906101000a900473ffffffffffffffffffffffffffffffffffffffff1673ffffffffffffffffffffffffffffffffffffffff1681526020018360080160019054906101000a900473ffffffffffffffffffffffffffffffffffffffff1673ffffffffffffffffffffffffffffffffffffffff16815260200183600201548152602001836003015481526020018360040160009054906101000a900460ff16151581526020018360080160009054906101000a900460ff161515815260200183600501805461049b90612e03565b80601f01602080910402602001604051908101604052809291908181526020018280546104c790612e03565b80156105145780601f106104e957610100808354040283529160200191610514565b820191906000526020600020905b8154815290600101906020018083116104f757829003601f168201915b5050505050815260200183600601805461052d90612e03565b80601f016020809104026020016040519081016040528092919081815260200182805461055990612e03565b80156105a65780601f1061057b576101008083540402835291602001916105a6565b820191906000526020600020905b81548152906001019060200180831161058957829003601f168201915b50505050508152602001836007015481526020018360100160003373ffffffffffffffffffffffffffffffffffffffff1673ffffffffffffffffffffffffffffffffffffffff16815260200190815260200160002060009054906101000a900460ff16151581526020018360110160003373ffffffffffffffffffffffffffffffffffffffff1673ffffffffffffffffffffffffffffffffffffffff16815260200190815260200160002060009054906101000a900460ff16151581526020018360090154815260200182815260200183600d01805461068590612e03565b80601f01602080910402602001604051908101604052809291908181526020018280546106b190612e03565b80156106fe5780601f106106d3576101008083540402835291602001916106fe565b820191906000526020600020905b8154815290600101906020018083116106e157829003601f168201915b505050505081525084848151811061071957610718612e34565b5b60200260200101819052505050808061073190612e92565b915050610232565b508091505090565b6000600354905060016003600082825461075b9190612eda565b925050819055506001600460008282546107759190612eda565b925050819055506000834261078a9190612eda565b90506000838261079a9190612eda565b90506000600160008060008154809291906107b490612e92565b919050558152602001908152602001600020905060008160040160006101000a81548160ff02191690831515021790555060008160080160006101000a81548160ff0219169083151502179055508060080160019054906101000a9050506000816009018190555080600b0160009054906101000a9050507f3680aa69c57c1d54ccdea2f32ab13a0723c8733b4b415e8396fc6b604f41622f848c8c8c8c8c60405161086596959493929190612f5b565b60405180910390a17f407f117d881ed92fbecf3649fb9568d7191c91329e6cef0cb5fc97916ef0cead848460405161089e929190612fb2565b60405180910390a15050505050505050505050565b600260008281526020019081526020016000206003015480421161090c576040517f08c379a000000000000000000000000000000000000000000000000000000000815260040161090390613027565b60405180910390fd5b813373ffffffffffffffffffffffffffffffffffffffff166002600083815260200190815260200160002060010160009054906101000a900473ffffffffffffffffffffffffffffffffffffffff1673ffffffffffffffffffffffffffffffffffffffff16146109b1576040517f08c379a00000000000000000000000000000000000000000000000000000000081526004016109a8906130b9565b60405180910390fd5b82600015156002600083815260200190815260200160002060040160009054906101000a900460ff16151514610a1c576040517f08c379a0000000000000000000000000000000000000000000000000000000008152600401610a1390613125565b60405180910390fd5b60006002600086815260200190815260200160002060090154148015610aa45750600073ffffffffffffffffffffffffffffffffffffffff166002600086815260200190815260200160002060080160019054906101000a900473ffffffffffffffffffffffffffffffffffffffff1673ffffffffffffffffffffffffffffffffffffffff16145b15610b6a577ff656db5d7eec16959704ab1442c4686390e8bdca6e2fd99d193f6871512359ea84604051610ad89190612b1b565b60405180910390a17fd2aa34a4fdbbc6dff6a3e56f46e0f3ae2a31d7785ff3487aa5c95c642acea50184600080604051610b1493929190613199565b60405180910390a160016002600086815260200190815260200160002060040160006101000a81548160ff021916908315150217905550600160046000828254610b5e91906131d0565b92505081905550610e9a565b7fd2aa34a4fdbbc6dff6a3e56f46e0f3ae2a31d7785ff3487aa5c95c642acea501846002600087815260200190815260200160002060080160019054906101000a900473ffffffffffffffffffffffffffffffffffffffff166002600088815260200190815260200160002060090154604051610be993929190613259565b60405180910390a160016002600086815260200190815260200160002060040160006101000a81548160ff021916908315150217905550600160046000828254610c3391906131d0565b925050819055506002600085815260200190815260200160002060080160019054906101000a900473ffffffffffffffffffffffffffffffffffffffff1660026000868152602001908152602001600020600b0160006101000a81548173ffffffffffffffffffffffffffffffffffffffff021916908373ffffffffffffffffffffffffffffffffffffffff160217905550600260008581526020019081526020016000206009015460026000868152602001908152602001600020600c018190555060005b60026000868152602001908152602001600020600a0180549050811015610d8757610d768560026000888152602001908152602001600020600a018381548110610d4657610d45612e34565b5b9060005260206000200160009054906101000a900473ffffffffffffffffffffffffffffffffffffffff16611fdc565b80610d8090612e92565b9050610cf9565b507f9fa608827c3c4a8327a334f831d3ac579446f5314638ac0108bbaa17441e16a48460026000878152602001908152602001600020600b0160009054906101000a900473ffffffffffffffffffffffffffffffffffffffff16600260008881526020019081526020016000206012016000600260008a8152602001908152602001600020600b0160009054906101000a900473ffffffffffffffffffffffffffffffffffffffff1673ffffffffffffffffffffffffffffffffffffffff1673ffffffffffffffffffffffffffffffffffffffff16815260200190815260200160002060026000898152602001908152602001600020600c0154604051610e919493929190613329565b60405180910390a15b50505050565b6002600082815260200190815260200160002060020154804211610ef9576040517f08c379a0000000000000000000000000000000000000000000000000000000008152600401610ef090613027565b60405180910390fd5b6002600083815260200190815260200160002060030154804210610f52576040517f08c379a0000000000000000000000000000000000000000000000000000000008152600401610f49906133c1565b60405180910390fd5b82600115156002600083815260200190815260200160002060100160003373ffffffffffffffffffffffffffffffffffffffff1673ffffffffffffffffffffffffffffffffffffffff16815260200190815260200160002060009054906101000a900460ff16151514610ffa576040517f08c379a0000000000000000000000000000000000000000000000000000000008152600401610ff190613453565b60405180910390fd5b83600354811061103f576040517f08c379a0000000000000000000000000000000000000000000000000000000008152600401611036906134e5565b60405180910390fd5b600080600060026000898152602001908152602001600020600e0160003373ffffffffffffffffffffffffffffffffffffffff1673ffffffffffffffffffffffffffffffffffffffff16815260200190815260200160002090508a8a8a6040516020016110ae93929190613505565b6040516020818303038152906040528051906020012081600001541461110c577fad8c260aa7a48094cdeb8c07f33bcf4e3bb56893286c330706ca376c728e9f3e88336040516110ff929190613537565b60405180910390a161134a565b6000801b816000018190555060026000898152602001908152602001600020600a01339080600181540180825580915050600190039060005260206000200160009091909190916101000a81548173ffffffffffffffffffffffffffffffffffffffff021916908373ffffffffffffffffffffffffffffffffffffffff1602179055506001600260008a815260200190815260200160002060110160003373ffffffffffffffffffffffffffffffffffffffff1673ffffffffffffffffffffffffffffffffffffffff16815260200190815260200160002060006101000a81548160ff02191690831515021790555080600101548361120b9190612eda565b92508a600261121a9190613560565b81600101541061128d5761122f88338d6121e3565b1561124f578a60026112419190613560565b8361124c91906131d0565b92505b7fcb1784faad642d48c787676118783766577faa10d9c69eb1fbb40c3baaac87d18833604051611280929190613537565b60405180910390a16112c7565b7f2aef0deb49f8c134c725c0d4075973ab3c581f0d16cce112ab4ed4b26b9ddaa388336040516112be929190613537565b60405180910390a15b7f0ce627ddf6b4fdb8de00ae62e2f2b8dee6a4226b75fccd3d6692329c8e0d2c1c8833856040516112fa939291906135a2565b60405180910390a13373ffffffffffffffffffffffffffffffffffffffff166108fc849081150290604051600060405180830381858888f19350505050158015611348573d6000803e3d6000fd5b505b5050505050505050505050565b82600354811061139c576040517f08c379a0000000000000000000000000000000000000000000000000000000008152600401611393906134e5565b60405180910390fd5b83600115156002600083815260200190815260200160002060040160009054906101000a900460ff16151514611407576040517f08c379a00000000000000000000000000000000000000000000000000000000081526004016113fe9061364b565b60405180910390fd5b843373ffffffffffffffffffffffffffffffffffffffff166002600083815260200190815260200160002060010160009054906101000a900473ffffffffffffffffffffffffffffffffffffffff1673ffffffffffffffffffffffffffffffffffffffff16146114ac576040517f08c379a00000000000000000000000000000000000000000000000000000000081526004016114a3906130b9565b60405180910390fd5b60026000878152602001908152602001600020600c015460026114cf9190613560565b3414611510576040517f08c379a0000000000000000000000000000000000000000000000000000000008152600401611507906136dd565b60405180910390fd5b848460026000898152602001908152602001600020600d019182611535929190613895565b507f45bd963234a41bc8d75b2e2caf57f0987f5d405e1d4bbf09b919faeff927937c86868660405161156993929190613505565b60405180910390a1505050505050565b60008173ffffffffffffffffffffffffffffffffffffffff16319050919050565b606060008060045467ffffffffffffffff8111156115bb576115ba612da5565b5b6040519080825280602002602001820160405280156115f457816020015b6115e1612499565b8152602001906001900390816115d95790505b50905060005b6003548110156118e757600015156002600083815260200190815260200160002060040160009054906101000a900460ff161515036118d4576000600260008381526020019081526020016000209050604051806101400160405280826000015481526020018260010160009054906101000a900473ffffffffffffffffffffffffffffffffffffffff1673ffffffffffffffffffffffffffffffffffffffff16815260200182600201548152602001826003015481526020018260040160009054906101000a900460ff16151581526020018260050180546116dc90612e03565b80601f016020809104026020016040519081016040528092919081815260200182805461170890612e03565b80156117555780601f1061172a57610100808354040283529160200191611755565b820191906000526020600020905b81548152906001019060200180831161173857829003601f168201915b5050505050815260200182600601805461176e90612e03565b80601f016020809104026020016040519081016040528092919081815260200182805461179a90612e03565b80156117e75780601f106117bc576101008083540402835291602001916117e7565b820191906000526020600020905b8154815290600101906020018083116117ca57829003601f168201915b50505050508152602001826007015481526020018260100160003373ffffffffffffffffffffffffffffffffffffffff1673ffffffffffffffffffffffffffffffffffffffff16815260200190815260200160002060009054906101000a900460ff16151581526020018260110160003373ffffffffffffffffffffffffffffffffffffffff1673ffffffffffffffffffffffffffffffffffffffff16815260200190815260200160002060009054906101000a900460ff1615158152508385815181106118b8576118b7612e34565b5b60200260200101819052506001846118d09190612eda565b9350505b80806118df90612e92565b9150506115fa565b50809250505090565b6002600084815260200190815260200160002060020154804210611949576040517f08c379a0000000000000000000000000000000000000000000000000000000008152600401611940906133c1565b60405180910390fd5b836002600082815260200190815260200160002060010160009054906101000a900473ffffffffffffffffffffffffffffffffffffffff1673ffffffffffffffffffffffffffffffffffffffff163373ffffffffffffffffffffffffffffffffffffffff16036119ee576040517f08c379a00000000000000000000000000000000000000000000000000000000081526004016119e5906139b1565b60405180910390fd5b846002600082815260200190815260200160002060100160003373ffffffffffffffffffffffffffffffffffffffff1673ffffffffffffffffffffffffffffffffffffffff16815260200190815260200160002060009054906101000a900460ff1615611a90576040517f08c379a0000000000000000000000000000000000000000000000000000000008152600401611a8790613a1d565b60405180910390fd5b856003548110611ad5576040517f08c379a0000000000000000000000000000000000000000000000000000000008152600401611acc906134e5565b60405180910390fd5b60405180604001604052808981526020013481525060026000898152602001908152602001600020600e0160003373ffffffffffffffffffffffffffffffffffffffff1673ffffffffffffffffffffffffffffffffffffffff168152602001908152602001600020600082015181600001556020820151816001015590505060016002600089815260200190815260200160002060100160003373ffffffffffffffffffffffffffffffffffffffff1673ffffffffffffffffffffffffffffffffffffffff16815260200190815260200160002060006101000a81548160ff0219169083151502179055508585600260008a815260200190815260200160002060120160003373ffffffffffffffffffffffffffffffffffffffff1673ffffffffffffffffffffffffffffffffffffffff1681526020019081526020016000209182611c22929190613895565b507f4b6c7d33d8244d6b35f1a8d35f6d19860fea50d46740345c395123753dd782fa33604051611c529190613a3d565b60405180910390a15050505050505050565b806003548110611ca9576040517f08c379a0000000000000000000000000000000000000000000000000000000008152600401611ca0906134e5565b60405180910390fd5b8160026000828152602001908152602001600020600b0160009054906101000a900473ffffffffffffffffffffffffffffffffffffffff1673ffffffffffffffffffffffffffffffffffffffff163373ffffffffffffffffffffffffffffffffffffffff1614611d4e576040517f08c379a0000000000000000000000000000000000000000000000000000000008152600401611d4590613aa4565b60405180910390fd5b82600115156002600083815260200190815260200160002060040160009054906101000a900460ff16151514611db9576040517f08c379a0000000000000000000000000000000000000000000000000000000008152600401611db09061364b565b60405180910390fd5b600060026000868152602001908152602001600020600c015490506000816003611de39190613560565b9050600060026000888152602001908152602001600020600f016000600260008a8152602001908152602001600020600b0160009054906101000a900473ffffffffffffffffffffffffffffffffffffffff1673ffffffffffffffffffffffffffffffffffffffff1673ffffffffffffffffffffffffffffffffffffffff1681526020019081526020016000208190555060016002600088815260200190815260200160002060080160006101000a81548160ff0219169083151502179055506002600087815260200190815260200160002060010160009054906101000a900473ffffffffffffffffffffffffffffffffffffffff1673ffffffffffffffffffffffffffffffffffffffff166108fc829081150290604051600060405180830381858888f19350505050158015611f1f573d6000803e3d6000fd5b5060026000878152602001908152602001600020600b0160009054906101000a900473ffffffffffffffffffffffffffffffffffffffff1673ffffffffffffffffffffffffffffffffffffffff166108fc839081150290604051600060405180830381858888f19350505050158015611f9c573d6000803e3d6000fd5b507f6cbc019d5c94717baad0acdfa06c66c2a314a9f71c5486a1034adb0f07a57e6586604051611fcc9190612b1b565b60405180910390a1505050505050565b81600115156002600083815260200190815260200160002060040160009054906101000a900460ff16151514612047576040517f08c379a000000000000000000000000000000000000000000000000000000000815260040161203e9061364b565b60405180910390fd5b600060026000858152602001908152602001600020600f0160008473ffffffffffffffffffffffffffffffffffffffff1673ffffffffffffffffffffffffffffffffffffffff1681526020019081526020016000205411156121de57600060026000858152602001908152602001600020600f0160008473ffffffffffffffffffffffffffffffffffffffff1673ffffffffffffffffffffffffffffffffffffffff168152602001908152602001600020549050600060026000868152602001908152602001600020600f0160008573ffffffffffffffffffffffffffffffffffffffff1673ffffffffffffffffffffffffffffffffffffffff1681526020019081526020016000208190555060008390508073ffffffffffffffffffffffffffffffffffffffff166108fc839081150290604051600060405180830381858888f1935050505015801561219f573d6000803e3d6000fd5b507fa01ed4ff1bfc084518bd795b4114da41c800c9ae1fc5e594cb505cb4c0c3fae18585846040516121d393929190613259565b60405180910390a150505b505050565b60006002600085815260200190815260200160002060090154821161220b57600090506123e8565b600073ffffffffffffffffffffffffffffffffffffffff166002600086815260200190815260200160002060080160019054906101000a900473ffffffffffffffffffffffffffffffffffffffff1673ffffffffffffffffffffffffffffffffffffffff161461233857600260008581526020019081526020016000206009015460026122989190613560565b60026000868152602001908152602001600020600f0160006002600088815260200190815260200160002060080160019054906101000a900473ffffffffffffffffffffffffffffffffffffffff1673ffffffffffffffffffffffffffffffffffffffff1673ffffffffffffffffffffffffffffffffffffffff16815260200190815260200160002060008282546123309190612eda565b925050819055505b816002600086815260200190815260200160002060090181905550826002600086815260200190815260200160002060080160016101000a81548173ffffffffffffffffffffffffffffffffffffffff021916908373ffffffffffffffffffffffffffffffffffffffff1602179055507ff13cb67d4c8841d2c893b242b7d61382d8e3bb53c5c58a8584106e74e8c4721b8484846040516123db93929190613259565b60405180910390a1600190505b9392505050565b604051806101e0016040528060008152602001600073ffffffffffffffffffffffffffffffffffffffff168152602001600073ffffffffffffffffffffffffffffffffffffffff16815260200160008152602001600081526020016000151581526020016000151581526020016060815260200160608152602001600081526020016000151581526020016000151581526020016000815260200160608152602001606081525090565b60405180610140016040528060008152602001600073ffffffffffffffffffffffffffffffffffffffff16815260200160008152602001600081526020016000151581526020016060815260200160608152602001600081526020016000151581526020016000151581525090565b600081519050919050565b600082825260208201905092915050565b6000819050602082019050919050565b6000819050919050565b61254781612534565b82525050565b600073ffffffffffffffffffffffffffffffffffffffff82169050919050565b60006125788261254d565b9050919050565b6125888161256d565b82525050565b60008115159050919050565b6125a38161258e565b82525050565b600081519050919050565b600082825260208201905092915050565b60005b838110156125e35780820151818401526020810190506125c8565b60008484015250505050565b6000601f19601f8301169050919050565b600061260b826125a9565b61261581856125b4565b93506126258185602086016125c5565b61262e816125ef565b840191505092915050565b60006101e083016000830151612652600086018261253e565b506020830151612665602086018261257f565b506040830151612678604086018261257f565b50606083015161268b606086018261253e565b50608083015161269e608086018261253e565b5060a08301516126b160a086018261259a565b5060c08301516126c460c086018261259a565b5060e083015184820360e08601526126dc8282612600565b9150506101008301518482036101008601526126f88282612600565b91505061012083015161270f61012086018261253e565b5061014083015161272461014086018261259a565b5061016083015161273961016086018261259a565b5061018083015161274e61018086018261253e565b506101a08301518482036101a08601526127688282612600565b9150506101c08301518482036101c08601526127848282612600565b9150508091505092915050565b600061279d8383612639565b905092915050565b6000602082019050919050565b60006127bd82612508565b6127c78185612513565b9350836020820285016127d985612524565b8060005b8581101561281557848403895281516127f68582612791565b9450612801836127a5565b925060208a019950506001810190506127dd565b50829750879550505050505092915050565b6000602082019050818103600083015261284181846127b2565b905092915050565b600080fd5b600080fd5b600080fd5b600080fd5b600080fd5b60008083601f84011261287857612877612853565b5b8235905067ffffffffffffffff81111561289557612894612858565b5b6020830191508360018202830111156128b1576128b061285d565b5b9250929050565b6128c181612534565b81146128cc57600080fd5b50565b6000813590506128de816128b8565b92915050565b600080600080600080600060a0888a03121561290357612902612849565b5b600088013567ffffffffffffffff8111156129215761292061284e565b5b61292d8a828b01612862565b9750975050602088013567ffffffffffffffff8111156129505761294f61284e565b5b61295c8a828b01612862565b9550955050604061296f8a828b016128cf565b93505060606129808a828b016128cf565b92505060806129918a828b016128cf565b91505092959891949750929550565b6000602082840312156129b6576129b5612849565b5b60006129c4848285016128cf565b91505092915050565b600080600080606085870312156129e7576129e6612849565b5b60006129f5878288016128cf565b945050602085013567ffffffffffffffff811115612a1657612a1561284e565b5b612a2287828801612862565b93509350506040612a35878288016128cf565b91505092959194509250565b600080600060408486031215612a5a57612a59612849565b5b6000612a68868287016128cf565b935050602084013567ffffffffffffffff811115612a8957612a8861284e565b5b612a9586828701612862565b92509250509250925092565b6000612aac8261254d565b9050919050565b612abc81612aa1565b8114612ac757600080fd5b50565b600081359050612ad981612ab3565b92915050565b600060208284031215612af557612af4612849565b5b6000612b0384828501612aca565b91505092915050565b612b1581612534565b82525050565b6000602082019050612b306000830184612b0c565b92915050565b600081519050919050565b600082825260208201905092915050565b6000819050602082019050919050565b600061014083016000830151612b7b600086018261253e565b506020830151612b8e602086018261257f565b506040830151612ba1604086018261253e565b506060830151612bb4606086018261253e565b506080830151612bc7608086018261259a565b5060a083015184820360a0860152612bdf8282612600565b91505060c083015184820360c0860152612bf98282612600565b91505060e0830151612c0e60e086018261253e565b50610100830151612c2361010086018261259a565b50610120830151612c3861012086018261259a565b508091505092915050565b6000612c4f8383612b62565b905092915050565b6000602082019050919050565b6000612c6f82612b36565b612c798185612b41565b935083602082028501612c8b85612b52565b8060005b85811015612cc75784840389528151612ca88582612c43565b9450612cb383612c57565b925060208a01995050600181019050612c8f565b50829750879550505050505092915050565b60006020820190508181036000830152612cf38184612c64565b905092915050565b6000819050919050565b612d0e81612cfb565b8114612d1957600080fd5b50565b600081359050612d2b81612d05565b92915050565b60008060008060608587031215612d4b57612d4a612849565b5b6000612d5987828801612d1c565b9450506020612d6a878288016128cf565b935050604085013567ffffffffffffffff811115612d8b57612d8a61284e565b5b612d9787828801612862565b925092505092959194509250565b7f4e487b7100000000000000000000000000000000000000000000000000000000600052604160045260246000fd5b7f4e487b7100000000000000000000000000000000000000000000000000000000600052602260045260246000fd5b60006002820490506001821680612e1b57607f821691505b602082108103612e2e57612e2d612dd4565b5b50919050565b7f4e487b7100000000000000000000000000000000000000000000000000000000600052603260045260246000fd5b7f4e487b7100000000000000000000000000000000000000000000000000000000600052601160045260246000fd5b6000612e9d82612534565b91507fffffffffffffffffffffffffffffffffffffffffffffffffffffffffffffffff8203612ecf57612ece612e63565b5b600182019050919050565b6000612ee582612534565b9150612ef083612534565b9250828201905080821115612f0857612f07612e63565b5b92915050565b600082825260208201905092915050565b82818337600083830152505050565b6000612f3a8385612f0e565b9350612f47838584612f1f565b612f50836125ef565b840190509392505050565b6000608082019050612f706000830189612b0c565b8181036020830152612f83818789612f2e565b90508181036040830152612f98818587612f2e565b9050612fa76060830184612b0c565b979650505050505050565b6000604082019050612fc76000830185612b0c565b612fd46020830184612b0c565b9392505050565b7f6265666f72652074696d65000000000000000000000000000000000000000000600082015250565b6000613011600b83612f0e565b915061301c82612fdb565b602082019050919050565b6000602082019050818103600083015261304081613004565b9050919050565b7f4f6e6c792042656e65666963696172792063616e20656e64207468652061756360008201527f74696f6e00000000000000000000000000000000000000000000000000000000602082015250565b60006130a3602483612f0e565b91506130ae82613047565b604082019050919050565b600060208201905081810360008301526130d281613096565b9050919050565b7f41756374696f6e20616c726561647920656e6465640000000000000000000000600082015250565b600061310f601583612f0e565b915061311a826130d9565b602082019050919050565b6000602082019050818103600083015261313e81613102565b9050919050565b61314e81612aa1565b82525050565b6000819050919050565b6000819050919050565b600061318361317e61317984613154565b61315e565b612534565b9050919050565b61319381613168565b82525050565b60006060820190506131ae6000830186612b0c565b6131bb6020830185613145565b6131c8604083018461318a565b949350505050565b60006131db82612534565b91506131e683612534565b92508282039050818111156131fe576131fd612e63565b5b92915050565b600061321f61321a6132158461254d565b61315e565b61254d565b9050919050565b600061323182613204565b9050919050565b600061324382613226565b9050919050565b61325381613238565b82525050565b600060608201905061326e6000830186612b0c565b61327b602083018561324a565b6132886040830184612b0c565b949350505050565b60008190508160005260206000209050919050565b600081546132b281612e03565b6132bc8186612f0e565b945060018216600081146132d757600181146132ed57613320565b60ff198316865281151560200286019350613320565b6132f685613290565b60005b83811015613318578154818901526001820191506020810190506132f9565b808801955050505b50505092915050565b600060808201905061333e6000830187612b0c565b61334b602083018661324a565b818103604083015261335d81856132a5565b905061336c6060830184612b0c565b95945050505050565b7f41667465722074696d6500000000000000000000000000000000000000000000600082015250565b60006133ab600a83612f0e565b91506133b682613375565b602082019050919050565b600060208201905081810360008301526133da8161339e565b9050919050565b7f4469646e277420706c6163652061206265742c6e6f20706f696e7420696e207260008201527f657665616c696e67207468652062696400000000000000000000000000000000602082015250565b600061343d603083612f0e565b9150613448826133e1565b604082019050919050565b6000602082019050818103600083015261346c81613430565b9050919050565b7f41756374696f6e2049642070726f766964656420646f65736e2774206578697360008201527f7400000000000000000000000000000000000000000000000000000000000000602082015250565b60006134cf602183612f0e565b91506134da82613473565b604082019050919050565b600060208201905081810360008301526134fe816134c2565b9050919050565b600060408201905061351a6000830186612b0c565b818103602083015261352d818486612f2e565b9050949350505050565b600060408201905061354c6000830185612b0c565b6135596020830184613145565b9392505050565b600061356b82612534565b915061357683612534565b925082820261358481612534565b9150828204841483151761359b5761359a612e63565b5b5092915050565b60006060820190506135b76000830186612b0c565b6135c46020830185613145565b6135d16040830184612b0c565b949350505050565b7f43616e742041736b20726566756e642c61756374696f6e206e6f7420656e646560008201527f6400000000000000000000000000000000000000000000000000000000000000602082015250565b6000613635602183612f0e565b9150613640826135d9565b604082019050919050565b6000602082019050818103600083015261366481613628565b9050919050565b7f596f752068617665206e6f74207061696420726967687420746865207365637560008201527f72697479206465706f7369740000000000000000000000000000000000000000602082015250565b60006136c7602c83612f0e565b91506136d28261366b565b604082019050919050565b600060208201905081810360008301526136f6816136ba565b9050919050565b600082905092915050565b60006020601f8301049050919050565b600082821b905092915050565b6000600883026137557fffffffffffffffffffffffffffffffffffffffffffffffffffffffffffffffff82613718565b61375f8683613718565b95508019841693508086168417925050509392505050565b600061379261378d61378884612534565b61315e565b612534565b9050919050565b6000819050919050565b6137ac83613777565b6137c06137b882613799565b848454613725565b825550505050565b600090565b6137d56137c8565b6137e08184846137a3565b505050565b5b81811015613804576137f96000826137cd565b6001810190506137e6565b5050565b601f8211156138495761381a81613290565b61382384613708565b81016020851015613832578190505b61384661383e85613708565b8301826137e5565b50505b505050565b600082821c905092915050565b600061386c6000198460080261384e565b1980831691505092915050565b6000613885838361385b565b9150826002028217905092915050565b61389f83836136fd565b67ffffffffffffffff8111156138b8576138b7612da5565b5b6138c28254612e03565b6138cd828285613808565b6000601f8311600181146138fc57600084156138ea578287013590505b6138f48582613879565b86555061395c565b601f19841661390a86613290565b60005b828110156139325784890135825560018201915060208501945060208101905061390d565b8683101561394f578489013561394b601f89168261385b565b8355505b6001600288020188555050505b50505050505050565b7f42656e65666963696172792063616e6e6f742062696400000000000000000000600082015250565b600061399b601683612f0e565b91506139a682613965565b602082019050919050565b600060208201905081810360008301526139ca8161398e565b9050919050565b7f42696464657220416c726561647920706c616365642074686569722062696400600082015250565b6000613a07601f83612f0e565b9150613a12826139d1565b602082019050919050565b60006020820190508181036000830152613a36816139fa565b9050919050565b6000602082019050613a526000830184613145565b92915050565b7f4f6e6c792057696e6e65722063616e20636f6e6669726d207075726368617365600082015250565b6000613a8e602083612f0e565b9150613a9982613a58565b602082019050919050565b60006020820190508181036000830152613abd81613a81565b905091905056fea264697066735822122001d6aa64ca7d27310ada5480bad7eda08aa84eee9d3e7447b7ecbb2f0d5957d864736f6c63430008110033",
  "immutableReferences": {},
  "source": "/// SPDX-License-Identifier: MIT\r\npragma experimental ABIEncoderV2;\r\npragma solidity >=0.4.22 <0.9.0;\r\n\r\n/// @title The contract for buying and selling items on a market\r\ncontract BlindAuction {\r\n    // Important Structures\r\n\r\n    ///@dev stores the blinded bid\r\n    ///@param bidHash stores the bid hashed using the public pub_key\r\n    ///@param deposit stores the deposited amount\r\n    struct Bid {\r\n        bytes32 bidHash;\r\n        uint256 deposit;\r\n    }\r\n\r\n    /// @dev structure for each Auction item\r\n    /// @param auction_id unique id for the items\r\n    /// @param beneficiary the seller\r\n    /// @param biddingEnd time the bidding end\r\n    /// @param revealEnd time when reveal period is over\r\n    /// @param ended shows the auction ended\r\n    /// @param item_name shows name of the item\r\n    /// @param item_description description of the item\r\n    /// @param bids stores the list of bids indexed by address\r\n    /// @param sold bool to denote whether the item is sold or not\r\n    /// @param highestBidder address of the highest bidder\r\n    /// @param highestBid value of the highest bid\r\n    /// @param revealedBidders the array to store bidders who reveal their bid to return their due after auction is over\r\n    /// @param pendingReturns the value to return to each bidder\r\n    /// @param bidded the boolean to track which addresses have bidded.\r\n    /// @param revealed the boolean to track which addresses have revealed.\r\n    /// @param pubkey stores the pubkeys of the bidders sent over with the bids\r\n    /// @param H secret string to sell item encrypted with buyer's public key\r\n    struct auctions {\r\n        uint256 auction_id;\r\n        address payable beneficiary;\r\n        uint256 biddingEnd;\r\n        uint256 revealEnd;\r\n        bool ended;\r\n        string item_name;\r\n        string item_description;\r\n        uint256 start_price;\r\n        bool sold;\r\n        address payable highestBidder;\r\n        uint256 highestBid;\r\n        address payable[] revealedBidders;\r\n        address payable winner;\r\n        uint256 winningBid;\r\n        string H;\r\n        mapping(address => Bid) bids;\r\n        // Allowed withdrawals of previous bids\r\n        mapping(address => uint256) pendingReturns;\r\n        mapping(address => bool) bidded;\r\n        mapping(address => bool) revealed;\r\n        mapping(address => string) pubkey;\r\n    }\r\n    uint numRequests;\r\n    mapping (uint => auctions) rq;\r\n\r\n    /// @dev structure for each display active Auction Listings\r\n    /// @param auction_id unique id for the items\r\n    /// @param beneficiary address of the owner of item to be auctioned\r\n    /// @param biddingEnd time the bidding end\r\n    /// @param revealEnd time when reveal period is over\r\n    /// @param ended shows the auction ended\r\n    /// @param item_name shows name of the item\r\n    /// @param item_description description of the item\r\n    /// @param bidplaced bool to tell whether the person calling the function bidded or not\r\n    /// @param revealed bool to tell whether the person calling the revealed their bid or not\r\n    struct auction_active_listings {\r\n        uint256 auction_id;\r\n        address payable beneficiary;\r\n        uint256 biddingEnd;\r\n        uint256 revealEnd;\r\n        bool ended;\r\n        string item_name;\r\n        string item_description;\r\n        uint256 start_price;\r\n        bool bidplaced;\r\n        bool revealed;\r\n    }\r\n\r\n    /// @dev structure for each display Auction Listings\r\n    /// @param auction_id unique id for the items\r\n    /// @param beneficiary address of the owner of item to be auctioned\r\n    /// @param winner address of the winner of the auction\r\n    /// @param biddingEnd time the bidding end\r\n    /// @param revealEnd time when reveal period is over\r\n    /// @param ended shows the auction ended\r\n    /// @param item_name shows name of the item\r\n    /// @param item_description description of the item\r\n    /// @param bidplaced bool to tell whether the person calling the function bidded or not\r\n    /// @param revealed bool to tell whether the person calling the revealed their bid or not\r\n    /// @param finalBid the final price at which the item was sold\r\n    /// @param pubkey public key of the winner\r\n    /// @param H secret string to sell item encrypted with buyer's public key\r\n    struct auction_all_listings {\r\n        uint256 auction_id;\r\n        address payable beneficiary;\r\n        address payable winner;\r\n        uint256 biddingEnd;\r\n        uint256 revealEnd;\r\n        bool ended;\r\n        bool sold;\r\n        string item_name;\r\n        string item_description;\r\n        uint256 start_price;\r\n        bool bidplaced;\r\n        bool revealed;\r\n        uint256 finalBid;\r\n        string pubkey;\r\n        string H;\r\n    }\r\n\r\n    // Errors that describe failures.\r\n\r\n    /// The function has been called too early.\r\n    /// Try again at `time`.\r\n    //error TooEarly(uint time);\r\n    /// The function has been called too late.\r\n    /// It cannot be called after `time`.\r\n    //error TooLate(uint time);\r\n    /// The function auctionEnd has already been called.\r\n    //error AuctionEndAlreadyCalled();\r\n\r\n    /// EVENTS\r\n\r\n    /// @dev this event is for when auction item is for when item for auction is listed\r\n    /// @param Auction_id id of the auction\r\n    /// @param item_name  name of the item to be Auction\r\n    /// @param item_description  description of the item to be auctioned\r\n    event AuctionStarted(\r\n        uint256 Auction_id,\r\n        string item_name,\r\n        string item_description,\r\n        uint256 start_price\r\n    );\r\n\r\n    /// @dev this event to annouce auction started\r\n    /// @param Auction_id is the id of the auction\r\n    /// @param highestBidder is the address of the highest Bidder\r\n    /// @param highestBid is the value of the winning bid\r\n    event AuctionEnded(\r\n        uint256 Auction_id,\r\n        address highestBidder,\r\n        uint256 highestBid\r\n    );\r\n\r\n    ///@dev when an item goes unsold at the end of the auction\r\n    ///@param auction_id is the id of the auction\r\n    event ItemUnsold(uint256 auction_id);\r\n\r\n    /// @dev this event to annouce bidding started\r\n    /// @param Auction_id is the id of the auction\r\n    /// @param bidding_end is the time when bidding period ends\r\n    event BiddingStarted(uint256 Auction_id, uint256 bidding_end);\r\n\r\n    /// @dev this event to annouce bidding period ended\r\n    /// @param Auction_id is the id of the auction\r\n    event BiddingPeriodEnded(uint256 Auction_id);\r\n\r\n    /// @dev announcement of a new\r\n    /// @param bidder address of the bidder\r\n    event BidMade(address bidder);\r\n\r\n    ///@dev announcement to start revealing bids\r\n    /// @param Auction_id id of the auction item\r\n    /// @param reveal_end is the time when revealing period ends\r\n    event RevealPeriodStarted(uint256 Auction_id, uint256 reveal_end);\r\n\r\n    ///@dev annouce to end revealing period\r\n    /// @param Auction_id id of the auction\r\n    event RevealPeriodEnded(uint256 Auction_id);\r\n\r\n    ///@dev announce winner\r\n    /// @param Auction_id is the id of the auction\r\n    /// @param winner is the address of the winner\r\n    ///@param pubkey is the public key of the winner\r\n    ///@param winningBid is the value of the winning bid\r\n    event WinnerChosen(\r\n        uint256 Auction_id,\r\n        address winner,\r\n        string pubkey,\r\n        uint256 winningBid\r\n    );\r\n\r\n    ///@dev bid revealed\r\n    ///@param Auction_id is the id of the auction\r\n    ///@param bidder is the address of the revealer\r\n    event BidRevealed(uint256 Auction_id, address bidder);\r\n\r\n    ///@dev bid revealed failed\r\n    ///@param Auction_id is the id of the auction\r\n    ///@param bidder is the address of the revealer\r\n    event BidRevealFailed(uint256 Auction_id, address bidder);\r\n\r\n    ///@dev event to notify Refunds of bids\r\n    ///@param auction_id is the id of the auction\r\n    ///@param bidder is the address of the revealer\r\n    ///@param bid_value  refers to whether the bid is succesfully revealed and refund done\r\n    event BidderRefunded(uint256 auction_id, address bidder, uint256 bid_value);\r\n\r\n    ///@dev event to notify Refunds of bids\r\n    ///@param auction_id is the id of the auction\r\n    ///@param bidder is the address of the revealer\r\n    ///@param balance  refers to whether the bid is succesfully revealed and refund done\r\n    event BalanceRefunded(uint256 auction_id, address bidder, uint256 balance);\r\n\r\n    ///@dev event to notify when the deposit is not enough\r\n    ///@param auction_id is the id of the auction\r\n    ///@param bidder is the bidder\r\n    event DepositNotEnough(uint256 auction_id, address bidder);\r\n\r\n    ///@dev to notify highest Bid has been modified\r\n    ///@param auction_id is the id of the auction\r\n    ///@param bidder is the bidder\r\n    ///@param bid_value refers to the bid\r\n    event NewHighestBid(uint256 auction_id, address bidder, uint256 bid_value);\r\n\r\n    ///@dev event to send the hashed Item\r\n    ///@param auction_id is the id of the auction\r\n    ///@param H is the hashed passwords\r\n    event encryptedKey(uint256 auction_id, string H);\r\n\r\n    ///@dev to confirm delivery\r\n    ///@param auction_id is the id of the auction\r\n    event deliveryComplete(uint256 auction_id);\r\n\r\n    /// @dev create a lists of all auctions\r\n    mapping(uint256 => auctions) private Auctions;\r\n\r\n    // variables for managing auctions\r\n    uint256 current_auction_id = 0;\r\n    uint256 activeauctions = 0;\r\n\r\n    //MODIFIERS\r\n\r\n    /// @notice Check whether a given condition is true\r\n    /// @param _condition condition statement to verify.\r\n    modifier condition(bool _condition) {\r\n        require(_condition);\r\n        _;\r\n    }\r\n\r\n    modifier onlyBefore(uint256 _time) {\r\n        require(block.timestamp < _time, \"After time\");\r\n        // require(\r\n        //     block.timestamp < _time,\r\n        //     integersToString(block.timestamp, _time)\r\n        // );\r\n        _;\r\n    }\r\n    modifier onlyAfter(uint256 _time) {\r\n        require(block.timestamp > _time, \"before time\");\r\n        _;\r\n    }\r\n\r\n    modifier validBidder(uint256 auction_id) {\r\n        require(\r\n            msg.sender != Auctions[auction_id].beneficiary,\r\n            \"Beneficiary cannot bid\"\r\n        );\r\n        _;\r\n    }\r\n    modifier newBidder(uint256 auction_id) {\r\n        require(\r\n            !Auctions[auction_id].bidded[msg.sender],\r\n            \"Bidder Already placed their bid\"\r\n        );\r\n        _;\r\n    }\r\n\r\n    modifier alreadyBidder(uint256 auction_id) {\r\n        require(\r\n            Auctions[auction_id].bidded[msg.sender] == true,\r\n            \"Didn't place a bet,no point in revealing the bid\"\r\n        );\r\n        _;\r\n    }\r\n\r\n    modifier onlyBeneficiary(uint256 auction_id) {\r\n        require(\r\n            Auctions[auction_id].beneficiary == msg.sender,\r\n            \"Only Beneficiary can end the auction\"\r\n        );\r\n        _;\r\n    }\r\n    modifier auctionActive(uint256 auction_id) {\r\n        require(Auctions[auction_id].ended == false, \"Auction already ended\");\r\n        _;\r\n    }\r\n    modifier auctionEnded(uint256 auction_id) {\r\n        require(\r\n            Auctions[auction_id].ended == true,\r\n            \"Cant Ask refund,auction not ended\"\r\n        );\r\n        _;\r\n    }\r\n    modifier validAuctionId(uint256 auction_id) {\r\n        require(\r\n            auction_id < current_auction_id,\r\n            \"Auction Id provided doesn't exist\"\r\n        );\r\n        _;\r\n    }\r\n    modifier onlyWinner(uint256 auction_id) {\r\n        require(\r\n            msg.sender == Auctions[auction_id].winner,\r\n            \"Only Winner can confirm purchase\"\r\n        );\r\n        _;\r\n    }\r\n        modifier highestBid (uint256 auction_id, uint256 blindedBid) {\r\n        require (blindedBid < Auctions[auction_id].start_price, \"Gia cua ban thap hon gia khoi diem\");\r\n        _;\r\n    }\r\n\r\n    //functions\r\n\r\n    /// @notice returns balance of account\r\n    /// @param account Address of the account.\r\n    function getAccountBalance(address account)\r\n        public\r\n        view\r\n        returns (uint256 accountBalance)\r\n    {\r\n        accountBalance = account.balance;\r\n    }\r\n\r\n    /// @dev function to list the auction of a new item\r\n    /// @param item_name name of the item\r\n    /// @param item_description is the description of the item\r\n     /// @param start_price how long the reveal will go\r\n    /// @param bidding_time how long the bidding will go\r\n    /// @param reveal_time how long the reveal will go\r\n\r\n    function auctionItem(\r\n        string calldata item_name,\r\n        string calldata item_description,\r\n        uint256 start_price,\r\n        uint256 bidding_time,\r\n        uint256 reveal_time\r\n    ) external payable {\r\n        uint256 auction_id = current_auction_id;\r\n        current_auction_id += 1;\r\n        activeauctions += 1;\r\n        uint256 bidding_end = block.timestamp + bidding_time;\r\n        uint256 reveal_end = bidding_end + reveal_time;\r\n\r\n        auctions storage n = rq[numRequests++];\r\n            n.auction_id;\r\n            payable (msg.sender);\r\n            n.biddingEnd;\r\n            n.revealEnd;\r\n            n.ended = false;\r\n            n.item_name;\r\n            n.item_description;\r\n            n.start_price;\r\n            n.sold = false;\r\n            n.highestBidder;\r\n            n.highestBid = 0;\r\n            n.revealedBidders;\r\n            n.winner;\r\n            n.winningBid;\r\n            n.H;\r\n        emit AuctionStarted(auction_id, item_name, item_description, start_price);\r\n        emit BiddingStarted(auction_id, bidding_end);\r\n    }\r\n\r\n    // function to to get a list of all active auctions\r\n    /// @notice Get all the active auction listings items in the market\r\n    /// @return a list of active auction listings\r\n    function getactiveauctions()\r\n        external\r\n        view\r\n        returns (auction_active_listings[] memory)\r\n    {\r\n        uint256 currentIndex = 0;\r\n        auction_active_listings[]\r\n            memory active_auctions = new auction_active_listings[](\r\n                activeauctions\r\n            );\r\n        for (uint256 i = 0; i < current_auction_id; i++) {\r\n            if (Auctions[i].ended == false) {\r\n                auctions storage currentauction = Auctions[i];\r\n                active_auctions[currentIndex] = auction_active_listings(\r\n                    currentauction.auction_id,\r\n                    currentauction.beneficiary,\r\n                    currentauction.biddingEnd,\r\n                    currentauction.revealEnd,\r\n                    currentauction.ended,\r\n                    currentauction.item_name,\r\n                    currentauction.item_description,\r\n                    currentauction.start_price,\r\n                    currentauction.bidded[msg.sender],\r\n                    currentauction.revealed[msg.sender]\r\n                );\r\n                currentIndex += 1;\r\n            }\r\n        }\r\n        return active_auctions;\r\n    }\r\n\r\n    // function to to get a list of all auctions\r\n    /// @notice Get all the auction listings items in the market\r\n    /// @return a list of all auction listings\r\n    function getallauctions()\r\n        external\r\n        view\r\n        returns (auction_all_listings[] memory)\r\n    {\r\n        auction_all_listings[] memory all_auctions = new auction_all_listings[](\r\n            current_auction_id\r\n        );\r\n        for (uint256 i = 0; i < current_auction_id; i++) {\r\n            auctions storage currentauction = Auctions[i];\r\n            string memory pubkey = \"\";\r\n            if (currentauction.highestBidder != address(0))\r\n                pubkey = currentauction.pubkey[currentauction.highestBidder];\r\n            all_auctions[i] = auction_all_listings(\r\n                currentauction.auction_id,\r\n                currentauction.beneficiary,\r\n                currentauction.highestBidder,\r\n                currentauction.biddingEnd,\r\n                currentauction.revealEnd,\r\n                currentauction.ended,\r\n                currentauction.sold,\r\n                currentauction.item_name,\r\n                currentauction.item_description,\r\n                currentauction.start_price,\r\n                currentauction.bidded[msg.sender],\r\n                currentauction.revealed[msg.sender],\r\n                currentauction.highestBid,\r\n                pubkey,\r\n                currentauction.H\r\n            );\r\n        }\r\n        return all_auctions;\r\n    }\r\n\r\n    // function that can be used to bid in an auction\r\n    /// @param blindedBid is the hashed version of bid\r\n    /// @param auction_id is the id of the auction\r\n    ///@param pubkey is the public key of the bidder\r\n    function bid(\r\n        bytes32 blindedBid,\r\n        uint256 auction_id,\r\n        string calldata pubkey\r\n    )\r\n        external\r\n        payable\r\n        onlyBefore(Auctions[auction_id].biddingEnd)\r\n        validBidder(auction_id)\r\n        newBidder(auction_id)\r\n        validAuctionId(auction_id)\r\n    {\r\n        Auctions[auction_id].bids[msg.sender] = Bid(blindedBid, msg.value);\r\n        Auctions[auction_id].bidded[msg.sender] = true;\r\n        Auctions[auction_id].pubkey[msg.sender] = pubkey;\r\n        emit BidMade(msg.sender);\r\n    }\r\n\r\n    /// @dev Reveal your blinded bids. You will get a refund for all\r\n    /// @dev correctly blinded invalid bids and for all bids except for\r\n    /// @dev the totally highest.\r\n    /// @param value value of the bid\r\n    /// @param secret again not sure\r\n    /// @param auction_id id of the auction\r\n    function reveal(\r\n        uint256 value,\r\n        //bool fake,\r\n        string calldata secret,\r\n        uint256 auction_id\r\n    )\r\n        external\r\n        payable\r\n        onlyAfter(Auctions[auction_id].biddingEnd)\r\n        onlyBefore(Auctions[auction_id].revealEnd)\r\n        alreadyBidder(auction_id)\r\n        validAuctionId(auction_id)\r\n    {\r\n        uint256 refund = 0;\r\n        bool success = false;\r\n        //get the bid placed by the user\r\n        Bid storage bidToCheck = Auctions[auction_id].bids[msg.sender];\r\n\r\n        // improper revealing\r\n        if (bidToCheck.bidHash != keccak256(abi.encode(value, secret))) {\r\n            // Bid was not actually revealed.\r\n            // Do not refund deposit.\r\n            emit BidRevealFailed(auction_id, msg.sender);\r\n        } else {\r\n            // Make it impossible for the sender to re-claim\r\n            bidToCheck.bidHash = bytes32(0);\r\n\r\n            Auctions[auction_id].revealedBidders.push(payable(msg.sender));\r\n            Auctions[auction_id].revealed[msg.sender] = true;\r\n            refund += bidToCheck.deposit;\r\n            if (bidToCheck.deposit >= 2 * value) {\r\n                if (placeBid(auction_id, payable(msg.sender), value))\r\n                    refund -= 2 * value;\r\n                emit BidRevealed(auction_id, msg.sender);\r\n            } else emit DepositNotEnough(auction_id, msg.sender);\r\n            // the same deposit.\r\n            emit BalanceRefunded(auction_id, msg.sender, refund);\r\n            payable(msg.sender).transfer(refund);\r\n        }\r\n    }\r\n\r\n\r\n    function placeBid(\r\n        uint256 auction_id,\r\n        address payable bidder,\r\n        uint256 value\r\n    ) internal returns (bool success) {\r\n        if (value <= Auctions[auction_id].highestBid) {\r\n            return false;\r\n        }\r\n        if (Auctions[auction_id].highestBidder != address(0)) {\r\n            // Refund the previously highest bidder.\r\n            Auctions[auction_id].pendingReturns[\r\n                Auctions[auction_id].highestBidder\r\n            ] += 2 * Auctions[auction_id].highestBid;\r\n        }\r\n        Auctions[auction_id].highestBid = value;\r\n        Auctions[auction_id].highestBidder = bidder;\r\n        emit NewHighestBid(auction_id, bidder, value);\r\n        return true;\r\n    }\r\n\r\n\r\n    function withdraw(uint256 auction_id, address payable bidder)\r\n        internal\r\n        auctionEnded(auction_id)\r\n    {\r\n        //emit BidderRefunded(auction_id,msg.sender, Auctions[auction_id].pendingReturns[msg.sender]);\r\n        if (Auctions[auction_id].pendingReturns[bidder] > 0) {\r\n            uint256 value = Auctions[auction_id].pendingReturns[bidder];\r\n            Auctions[auction_id].pendingReturns[bidder] = 0;\r\n            address payable payable_sender = bidder;\r\n            payable_sender.transfer(value);\r\n            emit BidderRefunded(auction_id, bidder, value);\r\n        }\r\n    }\r\n\r\n\r\n    function auctionEnd(uint256 auction_id)\r\n        external\r\n        onlyAfter(Auctions[auction_id].revealEnd)\r\n        onlyBeneficiary(auction_id)\r\n        auctionActive(auction_id)\r\n    {\r\n        // if (Auctions[auction_id].ended) revert AuctionEndAlreadyCalled();\r\n        if (\r\n            Auctions[auction_id].highestBid == 0 &&\r\n            Auctions[auction_id].highestBidder == address(0)\r\n        ) {\r\n            emit ItemUnsold(auction_id);\r\n            emit AuctionEnded(auction_id, address(0), 0);\r\n            Auctions[auction_id].ended = true;\r\n            activeauctions -= 1;\r\n        } else {\r\n            emit AuctionEnded(\r\n                auction_id,\r\n                Auctions[auction_id].highestBidder,\r\n                Auctions[auction_id].highestBid\r\n            );\r\n            Auctions[auction_id].ended = true;\r\n            activeauctions -= 1;\r\n            Auctions[auction_id].winner = Auctions[auction_id].highestBidder;\r\n            Auctions[auction_id].winningBid = Auctions[auction_id].highestBid;\r\n            for (\r\n                uint256 i = 0;\r\n                i < Auctions[auction_id].revealedBidders.length;\r\n                ++i\r\n            ) {\r\n                withdraw(auction_id, Auctions[auction_id].revealedBidders[i]);\r\n            }\r\n            emit WinnerChosen(\r\n                auction_id,\r\n                Auctions[auction_id].winner,\r\n                Auctions[auction_id].pubkey[Auctions[auction_id].winner],\r\n                Auctions[auction_id].winningBid\r\n            );\r\n        }\r\n    }\r\n\r\n    function sellItem(uint256 auction_id, string calldata H)\r\n        external\r\n        payable\r\n        validAuctionId(auction_id)\r\n        auctionEnded(auction_id)\r\n        onlyBeneficiary(auction_id)\r\n    {\r\n        /// Check the security deposits\r\n        require(\r\n            msg.value == 2 * Auctions[auction_id].winningBid,\r\n            \"You have not paid right the security deposit\"\r\n        );\r\n        Auctions[auction_id].H = H;\r\n\r\n        emit encryptedKey(auction_id, H);\r\n    }\r\n    function confirmDelivery(uint256 auction_id)\r\n        external\r\n        payable\r\n        validAuctionId(auction_id)\r\n        onlyWinner(auction_id)\r\n        auctionEnded(auction_id)\r\n    {\r\n        /// Refund the seller\r\n        uint256 amt = Auctions[auction_id].winningBid;\r\n        uint256 prof = 3 * amt;\r\n        Auctions[auction_id].pendingReturns[Auctions[auction_id].winner] = 0;\r\n        Auctions[auction_id].sold = true;\r\n\r\n        Auctions[auction_id].beneficiary.transfer(prof);\r\n        Auctions[auction_id].winner.transfer(amt);\r\n\r\n        emit deliveryComplete(auction_id);\r\n    }\r\n}\r\n",
  "sourcePath": "E:\\DuongTanHuy\\Capstone\\Capstone_I\\source-code-project\\contracts\\BlindAuction.sol",
  "compiler": {
    "name": "solc",
    "version": "0.8.17+commit.8df45f5f.Emscripten.clang"
  },
  "schemaVersion": "3.4.10",
  "updatedAt": "2022-11-21T12:35:44.385Z",
  "networkType": "ethereum",
  "devdoc": {
    "events": {
      "AuctionEnded(uint256,address,uint256)": {
        "details": "this event to annouce auction started",
        "params": {
          "Auction_id": "is the id of the auction",
          "highestBid": "is the value of the winning bid",
          "highestBidder": "is the address of the highest Bidder"
        }
      },
      "AuctionStarted(uint256,string,string,uint256)": {
        "details": "this event is for when auction item is for when item for auction is listed",
        "params": {
          "Auction_id": "id of the auction",
          "item_description": "description of the item to be auctioned",
          "item_name": "name of the item to be Auction"
        }
      },
      "BalanceRefunded(uint256,address,uint256)": {
        "details": "event to notify Refunds of bids",
        "params": {
          "auction_id": "is the id of the auction",
          "balance": "refers to whether the bid is succesfully revealed and refund done",
          "bidder": "is the address of the revealer"
        }
      },
      "BidMade(address)": {
        "details": "announcement of a new",
        "params": {
          "bidder": "address of the bidder"
        }
      },
      "BidRevealFailed(uint256,address)": {
        "details": "bid revealed failed",
        "params": {
          "Auction_id": "is the id of the auction",
          "bidder": "is the address of the revealer"
        }
      },
      "BidRevealed(uint256,address)": {
        "details": "bid revealed",
        "params": {
          "Auction_id": "is the id of the auction",
          "bidder": "is the address of the revealer"
        }
      },
      "BidderRefunded(uint256,address,uint256)": {
        "details": "event to notify Refunds of bids",
        "params": {
          "auction_id": "is the id of the auction",
          "bid_value": "refers to whether the bid is succesfully revealed and refund done",
          "bidder": "is the address of the revealer"
        }
      },
      "BiddingPeriodEnded(uint256)": {
        "details": "this event to annouce bidding period ended",
        "params": {
          "Auction_id": "is the id of the auction"
        }
      },
      "BiddingStarted(uint256,uint256)": {
        "details": "this event to annouce bidding started",
        "params": {
          "Auction_id": "is the id of the auction",
          "bidding_end": "is the time when bidding period ends"
        }
      },
      "DepositNotEnough(uint256,address)": {
        "details": "event to notify when the deposit is not enough",
        "params": {
          "auction_id": "is the id of the auction",
          "bidder": "is the bidder"
        }
      },
      "ItemUnsold(uint256)": {
        "details": "when an item goes unsold at the end of the auction",
        "params": {
          "auction_id": "is the id of the auction"
        }
      },
      "NewHighestBid(uint256,address,uint256)": {
        "details": "to notify highest Bid has been modified",
        "params": {
          "auction_id": "is the id of the auction",
          "bid_value": "refers to the bid",
          "bidder": "is the bidder"
        }
      },
      "RevealPeriodEnded(uint256)": {
        "details": "annouce to end revealing period",
        "params": {
          "Auction_id": "id of the auction"
        }
      },
      "RevealPeriodStarted(uint256,uint256)": {
        "details": "announcement to start revealing bids",
        "params": {
          "Auction_id": "id of the auction item",
          "reveal_end": "is the time when revealing period ends"
        }
      },
      "WinnerChosen(uint256,address,string,uint256)": {
        "details": "announce winner",
        "params": {
          "Auction_id": "is the id of the auction",
          "pubkey": "is the public key of the winner",
          "winner": "is the address of the winner",
          "winningBid": "is the value of the winning bid"
        }
      },
      "deliveryComplete(uint256)": {
        "details": "to confirm delivery",
        "params": {
          "auction_id": "is the id of the auction"
        }
      },
      "encryptedKey(uint256,string)": {
        "details": "event to send the hashed Item",
        "params": {
          "H": "is the hashed passwords",
          "auction_id": "is the id of the auction"
        }
      }
    },
    "kind": "dev",
    "methods": {
      "auctionItem(string,string,uint256,uint256,uint256)": {
        "details": "function to list the auction of a new item",
        "params": {
          "bidding_time": "how long the bidding will go",
          "item_description": "is the description of the item",
          "item_name": "name of the item",
          "reveal_time": "how long the reveal will go",
          "start_price": "how long the reveal will go"
        }
      },
      "bid(bytes32,uint256,string)": {
        "params": {
          "auction_id": "is the id of the auction",
          "blindedBid": "is the hashed version of bid",
          "pubkey": "is the public key of the bidder"
        }
      },
      "getAccountBalance(address)": {
        "params": {
          "account": "Address of the account."
        }
      },
      "getactiveauctions()": {
        "returns": {
          "_0": "a list of active auction listings"
        }
      },
      "getallauctions()": {
        "returns": {
          "_0": "a list of all auction listings"
        }
      },
      "reveal(uint256,string,uint256)": {
        "details": "Reveal your blinded bids. You will get a refund for allcorrectly blinded invalid bids and for all bids except forthe totally highest.",
        "params": {
          "auction_id": "id of the auction",
          "secret": "again not sure",
          "value": "value of the bid"
        }
      }
    },
    "stateVariables": {
      "Auctions": {
        "details": "create a lists of all auctions"
      }
    },
    "title": "The contract for buying and selling items on a market",
    "version": 1
  },
  "userdoc": {
    "kind": "user",
    "methods": {
      "getAccountBalance(address)": {
        "notice": "returns balance of account"
      },
      "getactiveauctions()": {
        "notice": "Get all the active auction listings items in the market"
      },
      "getallauctions()": {
        "notice": "Get all the auction listings items in the market"
      }
    },
    "version": 1
  }
}