{
  "contractName": "Market",
  "abi": [
    {
      "constant": true,
      "inputs": [],
      "name": "activelistings",
      "outputs": [
        {
          "name": "",
          "type": "uint256"
        }
      ],
      "payable": false,
      "stateMutability": "view",
      "type": "function"
    },
    {
      "constant": true,
      "inputs": [],
      "name": "state",
      "outputs": [
        {
          "name": "",
          "type": "uint8"
        }
      ],
      "payable": false,
      "stateMutability": "view",
      "type": "function"
    },
    {
      "anonymous": false,
      "inputs": [
        {
          "indexed": true,
          "name": "auction_id",
          "type": "uint256"
        },
        {
          "indexed": false,
          "name": "beneficiary",
          "type": "address"
        },
        {
          "indexed": false,
          "name": "start_price",
          "type": "uint256"
        },
        {
          "indexed": false,
          "name": "item_name",
          "type": "string"
        },
        {
          "indexed": false,
          "name": "item_description",
          "type": "string"
        }
      ],
      "name": "ListingCreated",
      "type": "event"
    },
    {
      "anonymous": false,
      "inputs": [
        {
          "indexed": true,
          "name": "beneficiary",
          "type": "address"
        },
        {
          "indexed": true,
          "name": "index",
          "type": "uint256"
        }
      ],
      "name": "ListingChanged",
      "type": "event"
    },
    {
      "anonymous": false,
      "inputs": [
        {
          "components": [
            {
              "name": "auction_id",
              "type": "uint256"
            },
            {
              "name": "beneficiary",
              "type": "address"
            },
            {
              "name": "buyer",
              "type": "address"
            },
            {
              "name": "start_price",
              "type": "uint256"
            },
            {
              "name": "item_name",
              "type": "string"
            },
            {
              "name": "item_description",
              "type": "string"
            },
            {
              "name": "sold_or_withdrawn",
              "type": "bool"
            },
            {
              "name": "buyer_alloted",
              "type": "bool"
            },
            {
              "name": "pubkey",
              "type": "string"
            },
            {
              "name": "H",
              "type": "string"
            },
            {
              "name": "state",
              "type": "uint8"
            }
          ],
          "indexed": false,
          "name": "list",
          "type": "tuple"
        },
        {
          "indexed": true,
          "name": "buyer",
          "type": "address"
        },
        {
          "indexed": false,
          "name": "pub_key",
          "type": "string"
        }
      ],
      "name": "PurchaseRequested",
      "type": "event"
    },
    {
      "anonymous": false,
      "inputs": [
        {
          "indexed": true,
          "name": "auction_id",
          "type": "uint256"
        },
        {
          "indexed": false,
          "name": "H",
          "type": "string"
        }
      ],
      "name": "encryptedKey",
      "type": "event"
    },
    {
      "anonymous": false,
      "inputs": [
        {
          "components": [
            {
              "name": "auction_id",
              "type": "uint256"
            },
            {
              "name": "beneficiary",
              "type": "address"
            },
            {
              "name": "buyer",
              "type": "address"
            },
            {
              "name": "start_price",
              "type": "uint256"
            },
            {
              "name": "item_name",
              "type": "string"
            },
            {
              "name": "item_description",
              "type": "string"
            },
            {
              "name": "sold_or_withdrawn",
              "type": "bool"
            },
            {
              "name": "buyer_alloted",
              "type": "bool"
            },
            {
              "name": "pubkey",
              "type": "string"
            },
            {
              "name": "H",
              "type": "string"
            },
            {
              "name": "state",
              "type": "uint8"
            }
          ],
          "indexed": false,
          "name": "list",
          "type": "tuple"
        }
      ],
      "name": "PurchaseComplete",
      "type": "event"
    },
    {
      "anonymous": false,
      "inputs": [],
      "name": "Aborted",
      "type": "event"
    },
    {
      "anonymous": false,
      "inputs": [
        {
          "indexed": false,
          "name": "winner",
          "type": "address"
        },
        {
          "indexed": false,
          "name": "highestBid",
          "type": "uint256"
        }
      ],
      "name": "AuctionStarted",
      "type": "event"
    },
    {
      "anonymous": false,
      "inputs": [
        {
          "indexed": false,
          "name": "winner",
          "type": "address"
        },
        {
          "indexed": false,
          "name": "highestBid",
          "type": "uint256"
        }
      ],
      "name": "AuctionEnded",
      "type": "event"
    },
    {
      "constant": true,
      "inputs": [
        {
          "name": "account",
          "type": "address"
        }
      ],
      "name": "getAccountBalance",
      "outputs": [
        {
          "name": "accountBalance",
          "type": "uint256"
        }
      ],
      "payable": false,
      "stateMutability": "view",
      "type": "function"
    },
    {
      "constant": false,
      "inputs": [
        {
          "name": "start_price",
          "type": "uint256"
        },
        {
          "name": "item_name",
          "type": "string"
        },
        {
          "name": "item_description",
          "type": "string"
        }
      ],
      "name": "createListings",
      "outputs": [],
      "payable": true,
      "stateMutability": "payable",
      "type": "function"
    },
    {
      "constant": true,
      "inputs": [],
      "name": "fetchactivelistings",
      "outputs": [
        {
          "components": [
            {
              "name": "auction_id",
              "type": "uint256"
            },
            {
              "name": "beneficiary",
              "type": "address"
            },
            {
              "name": "buyer",
              "type": "address"
            },
            {
              "name": "start_price",
              "type": "uint256"
            },
            {
              "name": "item_name",
              "type": "string"
            },
            {
              "name": "item_description",
              "type": "string"
            },
            {
              "name": "sold_or_withdrawn",
              "type": "bool"
            },
            {
              "name": "buyer_alloted",
              "type": "bool"
            },
            {
              "name": "pubkey",
              "type": "string"
            },
            {
              "name": "H",
              "type": "string"
            },
            {
              "name": "state",
              "type": "uint8"
            }
          ],
          "name": "",
          "type": "tuple[]"
        }
      ],
      "payable": false,
      "stateMutability": "view",
      "type": "function"
    },
    {
      "constant": true,
      "inputs": [],
      "name": "fetchalllistings",
      "outputs": [
        {
          "components": [
            {
              "name": "auction_id",
              "type": "uint256"
            },
            {
              "name": "beneficiary",
              "type": "address"
            },
            {
              "name": "buyer",
              "type": "address"
            },
            {
              "name": "start_price",
              "type": "uint256"
            },
            {
              "name": "item_name",
              "type": "string"
            },
            {
              "name": "item_description",
              "type": "string"
            },
            {
              "name": "sold_or_withdrawn",
              "type": "bool"
            },
            {
              "name": "buyer_alloted",
              "type": "bool"
            },
            {
              "name": "pubkey",
              "type": "string"
            },
            {
              "name": "H",
              "type": "string"
            },
            {
              "name": "state",
              "type": "uint8"
            }
          ],
          "name": "",
          "type": "tuple[]"
        }
      ],
      "payable": false,
      "stateMutability": "view",
      "type": "function"
    },
    {
      "constant": false,
      "inputs": [
        {
          "name": "auction_id",
          "type": "uint256"
        },
        {
          "name": "pubkey",
          "type": "string"
        }
      ],
      "name": "requestBuy",
      "outputs": [],
      "payable": true,
      "stateMutability": "payable",
      "type": "function"
    },
    {
      "constant": false,
      "inputs": [
        {
          "name": "auction_id",
          "type": "uint256"
        },
        {
          "name": "H",
          "type": "string"
        }
      ],
      "name": "sellItem",
      "outputs": [],
      "payable": true,
      "stateMutability": "payable",
      "type": "function"
    },
    {
      "constant": false,
      "inputs": [
        {
          "name": "auction_id",
          "type": "uint256"
        }
      ],
      "name": "confirmDelivery",
      "outputs": [],
      "payable": true,
      "stateMutability": "payable",
      "type": "function"
    },
    {
      "constant": false,
      "inputs": [
        {
          "name": "auction_id",
          "type": "uint256"
        }
      ],
      "name": "abort",
      "outputs": [],
      "payable": false,
      "stateMutability": "nonpayable",
      "type": "function"
    }
  ],
  "bytecode": "0x608060405260008055600060015534801561001957600080fd5b506127c9806100296000396000f3fe60806040526004361061009e576000357c01000000000000000000000000000000000000000000000000000000009004806314e24f6d146100a35780631faa3538146100bf5780635fc35e98146100ea57806384febc4b1461011557806393423e9c14610131578063bc3552901461016e578063c19d93fb14610199578063e50701f4146101c4578063f09c4905146101ed578063fd84cb9714610209575b600080fd5b6100bd60048036036100b89190810190611d08565b610225565b005b3480156100cb57600080fd5b506100d46105b8565b6040516100e19190612446565b60405180910390f35b3480156100f657600080fd5b506100ff610a49565b60405161010c9190612446565b60405180910390f35b61012f600480360361012a9190810190611cb0565b610ea9565b005b34801561013d57600080fd5b5061015860048036036101539190810190611c5e565b611108565b6040516101659190612602565b60405180910390f35b34801561017a57600080fd5b50610183611129565b6040516101909190612602565b60405180910390f35b3480156101a557600080fd5b506101ae61112f565b6040516101bb9190612468565b60405180910390f35b3480156101d057600080fd5b506101eb60048036036101e69190810190611c87565b611142565b005b61020760048036036102029190810190611cb0565b6112b5565b005b610223600480360361021e9190810190611c87565b611663565b005b6000851180151561023557600080fd5b6000805490506001600080828254019250508190555060018060008282540192505081905550610160604051908101604052808281526020013373ffffffffffffffffffffffffffffffffffffffff168152602001600073ffffffffffffffffffffffffffffffffffffffff16815260200188815260200187878080601f016020809104026020016040519081016040528093929190818152602001838380828437600081840152601f19601f82011690508083019250505050505050815260200185858080601f016020809104026020016040519081016040528093929190818152602001838380828437600081840152601f19601f82011690508083019250505050505050815260200160001515815260200160001515815260200160206040519081016040528060008152508152602001602060405190810160405280600081525081526020016001600481111561038c57fe5b815250600260008381526020019081526020016000206000820151816000015560208201518160010160006101000a81548173ffffffffffffffffffffffffffffffffffffffff021916908373ffffffffffffffffffffffffffffffffffffffff16021790555060408201518160020160006101000a81548173ffffffffffffffffffffffffffffffffffffffff021916908373ffffffffffffffffffffffffffffffffffffffff160217905550606082015181600301556080820151816004019080519060200190610460929190611a2f565b5060a082015181600501908051906020019061047d929190611a2f565b5060c08201518160060160006101000a81548160ff02191690831515021790555060e08201518160060160016101000a81548160ff0219169083151502179055506101008201518160070190805190602001906104db929190611a2f565b506101208201518160080190805190602001906104f9929190611a2f565b506101408201518160090160006101000a81548160ff0219169083600481111561051f57fe5b0217905550905050807f6046a0779403a9b58628db4e89f8fb48ddd1844ca3df25a728482823988b43af338989898989604051610561969594939291906123ef565b60405180910390a26001543373ffffffffffffffffffffffffffffffffffffffff167fe5317da7a2a5a513758a425cd8d8926ce3e58f239f2c630a790fc6b038dd3bd060405160405180910390a350505050505050565b6060600080905060606001546040519080825280602002602001820160405280156105fd57816020015b6105ea611aaf565b8152602001906001900390816105e25790505b50905060008090505b600054811015610a4057600015156002600083815260200190815260200160002060060160009054906101000a900460ff1615151415610a33576000600260008381526020019081526020016000209050806101606040519081016040529081600082015481526020016001820160009054906101000a900473ffffffffffffffffffffffffffffffffffffffff1673ffffffffffffffffffffffffffffffffffffffff1673ffffffffffffffffffffffffffffffffffffffff1681526020016002820160009054906101000a900473ffffffffffffffffffffffffffffffffffffffff1673ffffffffffffffffffffffffffffffffffffffff1673ffffffffffffffffffffffffffffffffffffffff16815260200160038201548152602001600482018054600181600116156101000203166002900480601f0160208091040260200160405190810160405280929190818152602001828054600181600116156101000203166002900480156107be5780601f10610793576101008083540402835291602001916107be565b820191906000526020600020905b8154815290600101906020018083116107a157829003601f168201915b50505050508152602001600582018054600181600116156101000203166002900480601f0160208091040260200160405190810160405280929190818152602001828054600181600116156101000203166002900480156108605780601f1061083557610100808354040283529160200191610860565b820191906000526020600020905b81548152906001019060200180831161084357829003601f168201915b505050505081526020016006820160009054906101000a900460ff161515151581526020016006820160019054906101000a900460ff16151515158152602001600782018054600181600116156101000203166002900480601f0160208091040260200160405190810160405280929190818152602001828054600181600116156101000203166002900480156109385780601f1061090d57610100808354040283529160200191610938565b820191906000526020600020905b81548152906001019060200180831161091b57829003601f168201915b50505050508152602001600882018054600181600116156101000203166002900480601f0160208091040260200160405190810160405280929190818152602001828054600181600116156101000203166002900480156109da5780601f106109af576101008083540402835291602001916109da565b820191906000526020600020905b8154815290600101906020018083116109bd57829003601f168201915b505050505081526020016009820160009054906101000a900460ff166004811115610a0157fe5b6004811115610a0c57fe5b815250508385815181101515610a1e57fe5b90602001906020020181905250600184019350505b8080600101915050610606565b50809250505090565b606060008090506060600054604051908082528060200260200182016040528015610a8e57816020015b610a7b611aaf565b815260200190600190039081610a735790505b50905060008090505b600054811015610ea0576000600260008381526020019081526020016000209050806101606040519081016040529081600082015481526020016001820160009054906101000a900473ffffffffffffffffffffffffffffffffffffffff1673ffffffffffffffffffffffffffffffffffffffff1673ffffffffffffffffffffffffffffffffffffffff1681526020016002820160009054906101000a900473ffffffffffffffffffffffffffffffffffffffff1673ffffffffffffffffffffffffffffffffffffffff1673ffffffffffffffffffffffffffffffffffffffff16815260200160038201548152602001600482018054600181600116156101000203166002900480601f016020809104026020016040519081016040528092919081815260200182805460018160011615610100020316600290048015610c1f5780601f10610bf457610100808354040283529160200191610c1f565b820191906000526020600020905b815481529060010190602001808311610c0257829003601f168201915b50505050508152602001600582018054600181600116156101000203166002900480601f016020809104026020016040519081016040528092919081815260200182805460018160011615610100020316600290048015610cc15780601f10610c9657610100808354040283529160200191610cc1565b820191906000526020600020905b815481529060010190602001808311610ca457829003601f168201915b505050505081526020016006820160009054906101000a900460ff161515151581526020016006820160019054906101000a900460ff16151515158152602001600782018054600181600116156101000203166002900480601f016020809104026020016040519081016040528092919081815260200182805460018160011615610100020316600290048015610d995780601f10610d6e57610100808354040283529160200191610d99565b820191906000526020600020905b815481529060010190602001808311610d7c57829003601f168201915b50505050508152602001600882018054600181600116156101000203166002900480601f016020809104026020016040519081016040528092919081815260200182805460018160011615610100020316600290048015610e3b5780601f10610e1057610100808354040283529160200191610e3b565b820191906000526020600020905b815481529060010190602001808311610e1e57829003601f168201915b505050505081526020016009820160009054906101000a900460ff166004811115610e6257fe5b6004811115610e6d57fe5b815250508385815181101515610e7f57fe5b90602001906020020181905250600184019350508080600101915050610a97565b50809250505090565b8260005481108015610ebc575060008110155b1515610efd576040517f08c379a0000000000000000000000000000000000000000000000000000000008152600401610ef4906124e7565b60405180910390fd5b833373ffffffffffffffffffffffffffffffffffffffff166002600083815260200190815260200160002060020160009054906101000a900473ffffffffffffffffffffffffffffffffffffffff1673ffffffffffffffffffffffffffffffffffffffff1614151515610fa5576040517f08c379a0000000000000000000000000000000000000000000000000000000008152600401610f9c90612567565b60405180910390fd5b846002600082815260200190815260200160002060060160009054906101000a900460ff1615151561100c576040517f08c379a000000000000000000000000000000000000000000000000000000000815260040161100390612547565b60405180910390fd5b600260008781526020019081526020016000206003015460020234141515611069576040517f08c379a000000000000000000000000000000000000000000000000000000000815260040161106090612507565b60405180910390fd5b600280600088815260200190815260200160002060090160006101000a81548160ff0219169083600481111561109b57fe5b021790555084846002600089815260200190815260200160002060080191906110c5929190611b45565b50857f45bd963234a41bc8d75b2e2caf57f0987f5d405e1d4bbf09b919faeff927937c86866040516110f8929190612483565b60405180910390a2505050505050565b60008173ffffffffffffffffffffffffffffffffffffffff16319050919050565b60015481565b600360009054906101000a900460ff1681565b806002600082815260200190815260200160002060060160009054906101000a900460ff161515156111a9576040517f08c379a00000000000000000000000000000000000000000000000000000000081526004016111a090612547565b60405180910390fd5b7f72c874aeff0b183a56e2b79c71b46e1aed4dee5e09862134b8821ba2fddbf8bf60405160405180910390a160046002600084815260200190815260200160002060090160006101000a81548160ff0219169083600481111561120857fe5b0217905550600180600082825403925050819055506002600083815260200190815260200160002060010160009054906101000a900473ffffffffffffffffffffffffffffffffffffffff1673ffffffffffffffffffffffffffffffffffffffff166108fc3073ffffffffffffffffffffffffffffffffffffffff16319081150290604051600060405180830381858888f193505050501580156112b0573d6000803e3d6000fd5b505050565b823373ffffffffffffffffffffffffffffffffffffffff166002600083815260200190815260200160002060010160009054906101000a900473ffffffffffffffffffffffffffffffffffffffff1673ffffffffffffffffffffffffffffffffffffffff161415151561135d576040517f08c379a000000000000000000000000000000000000000000000000000000000815260040161135490612587565b60405180910390fd5b8360005481108015611370575060008110155b15156113b1576040517f08c379a00000000000000000000000000000000000000000000000000000000081526004016113a8906124e7565b60405180910390fd5b846002600082815260200190815260200160002060060160009054906101000a900460ff16151515611418576040517f08c379a000000000000000000000000000000000000000000000000000000000815260040161140f90612547565b60405180910390fd5b6002600087815260200190815260200160002060060160019054906101000a900460ff1615151561147e576040517f08c379a000000000000000000000000000000000000000000000000000000000815260040161147590612527565b60405180910390fd5b60026000878152602001908152602001600020600301543373ffffffffffffffffffffffffffffffffffffffff1631101515156114f0576040517f08c379a00000000000000000000000000000000000000000000000000000000081526004016114e7906124a7565b60405180910390fd5b60026000878152602001908152602001600020600301546002023414151561154d576040517f08c379a0000000000000000000000000000000000000000000000000000000008152600401611544906124c7565b60405180910390fd5b336002600088815260200190815260200160002060020160006101000a81548173ffffffffffffffffffffffffffffffffffffffff021916908373ffffffffffffffffffffffffffffffffffffffff16021790555060016002600088815260200190815260200160002060060160016101000a81548160ff02191690831515021790555084846002600089815260200190815260200160002060070191906115f6929190611b45565b503373ffffffffffffffffffffffffffffffffffffffff167f73faea86159f7dcd77362ca5006cece6202b7f70b30384b1f76d4366d754d7d1600260008981526020019081526020016000208787604051611653939291906125c9565b60405180910390a2505050505050565b8060005481108015611676575060008110155b15156116b7576040517f08c379a00000000000000000000000000000000000000000000000000000000081526004016116ae906124e7565b60405180910390fd5b813373ffffffffffffffffffffffffffffffffffffffff166002600083815260200190815260200160002060010160009054906101000a900473ffffffffffffffffffffffffffffffffffffffff1673ffffffffffffffffffffffffffffffffffffffff161415151561175f576040517f08c379a000000000000000000000000000000000000000000000000000000000815260040161175690612587565b60405180910390fd5b826002600082815260200190815260200160002060060160009054906101000a900460ff161515156117c6576040517f08c379a00000000000000000000000000000000000000000000000000000000081526004016117bd90612547565b60405180910390fd5b60016002600086815260200190815260200160002060060160006101000a81548160ff0219169083151502179055506002600085815260200190815260200160002060010160009054906101000a900473ffffffffffffffffffffffffffffffffffffffff1673ffffffffffffffffffffffffffffffffffffffff166108fc60026000878152602001908152602001600020600301546003029081150290604051600060405180830381858888f1935050505015801561188a573d6000803e3d6000fd5b506002600085815260200190815260200160002060020160009054906101000a900473ffffffffffffffffffffffffffffffffffffffff1673ffffffffffffffffffffffffffffffffffffffff166108fc60026000878152602001908152602001600020600301549081150290604051600060405180830381858888f1935050505015801561191d573d6000803e3d6000fd5b506001806000828254039250508190555060036002600086815260200190815260200160002060090160006101000a81548160ff0219169083600481111561196157fe5b0217905550836002600086815260200190815260200160002060010160009054906101000a900473ffffffffffffffffffffffffffffffffffffffff1673ffffffffffffffffffffffffffffffffffffffff167fe5317da7a2a5a513758a425cd8d8926ce3e58f239f2c630a790fc6b038dd3bd060405160405180910390a37f3a693b04519b12a171c00a41f82c9b8e6d6feccb5576615e878a42e328dd563460026000868152602001908152602001600020604051611a2191906125a7565b60405180910390a150505050565b828054600181600116156101000203166002900490600052602060002090601f016020900481019282601f10611a7057805160ff1916838001178555611a9e565b82800160010185558215611a9e579182015b82811115611a9d578251825591602001919060010190611a82565b5b509050611aab9190611bc5565b5090565b6101606040519081016040528060008152602001600073ffffffffffffffffffffffffffffffffffffffff168152602001600073ffffffffffffffffffffffffffffffffffffffff168152602001600081526020016060815260200160608152602001600015158152602001600015158152602001606081526020016060815260200160006004811115611b3f57fe5b81525090565b828054600181600116156101000203166002900490600052602060002090601f016020900481019282601f10611b8657803560ff1916838001178555611bb4565b82800160010185558215611bb4579182015b82811115611bb3578235825591602001919060010190611b98565b5b509050611bc19190611bc5565b5090565b611be791905b80821115611be3576000816000905550600101611bcb565b5090565b90565b6000611bf682356126bd565b905092915050565b60008083601f8401121515611c1257600080fd5b8235905067ffffffffffffffff811115611c2b57600080fd5b602083019150836001820283011115611c4357600080fd5b9250929050565b6000611c5682356126cf565b905092915050565b600060208284031215611c7057600080fd5b6000611c7e84828501611bea565b91505092915050565b600060208284031215611c9957600080fd5b6000611ca784828501611c4a565b91505092915050565b600080600060408486031215611cc557600080fd5b6000611cd386828701611c4a565b935050602084013567ffffffffffffffff811115611cf057600080fd5b611cfc86828701611bfe565b92509250509250925092565b600080600080600060608688031215611d2057600080fd5b6000611d2e88828901611c4a565b955050602086013567ffffffffffffffff811115611d4b57600080fd5b611d5788828901611bfe565b9450945050604086013567ffffffffffffffff811115611d7657600080fd5b611d8288828901611bfe565b92509250509295509295909350565b611d9a816126d9565b82525050565b611da98161265f565b82525050565b6000611dba8261263c565b80845260208401935083602082028501611dd38561261d565b60005b84811015611e0c578383038852611dee838351612197565b9250611df982612652565b9150602088019750600181019050611dd6565b508196508694505050505092915050565b611e2681612671565b82525050565b611e35816126eb565b82525050565b6000828452602084019350611e51838584612721565b611e5a83612763565b840190509392505050565b6000611e7082612647565b808452611e84816020860160208601612730565b611e8d81612763565b602085010191505092915050565b600081546001811660008114611eb85760018114611ed857611f19565b607f600283041680865260ff198316602087015260408601935050611f19565b60028204808652602086019550611eee8561262a565b60005b82811015611f1057815481890152600182019150602081019050611ef1565b80880195505050505b505092915050565b6000602382527f496e737566696369656e742042616c616e636520666f72207472616e7361637460208301527f696f6e00000000000000000000000000000000000000000000000000000000006040830152606082019050919050565b6000603082527f546865207265717569726564206465706f73697420666f72207468652070757260208301527f6368617365206e6f7420676976656e20000000000000000000000000000000006040830152606082019050919050565b6000601282527f496e76616c6964204c697374696e6720496400000000000000000000000000006020830152604082019050919050565b6000602682527f596f752068617665206e6f74207061696420746865207365637572697479206460208301527f65706f73697400000000000000000000000000000000000000000000000000006040830152606082019050919050565b6000603482527f746865206974656d20616c72656164792068617320612062757965722c696e2060208301527f6d69647374206f66207472616e73616374696f6e0000000000000000000000006040830152606082019050919050565b6000602882527f4974656d2068617320616c7265616479206265656e20626f75676874202f207760208301527f697468647261776e0000000000000000000000000000000000000000000000006040830152606082019050919050565b6000601382527f496e76616c69642062656e6566696369617279000000000000000000000000006020830152604082019050919050565b6000600d82527f496e76616c6964204275796572000000000000000000000000000000000000006020830152604082019050919050565b6000610160830160008301516121b060008601826123e0565b5060208301516121c36020860182611da0565b5060408301516121d66040860182611da0565b5060608301516121e960608601826123e0565b50608083015184820360808601526122018282611e65565b91505060a083015184820360a086015261221b8282611e65565b91505060c083015161223060c0860182611e1d565b5060e083015161224360e0860182611e1d565b5061010083015184820361010086015261225d8282611e65565b9150506101208301518482036101208601526122798282611e65565b915050610140830151612290610140860182611e2c565b508091505092915050565b6000610160830160008084015490506122b381612774565b6122c060008701826123e0565b50600184015490506122d181612774565b6122de6020870182611da0565b50600284015490506122ef81612774565b6122fc6040870182611da0565b506003840154905061230d81612774565b61231a60608701826123e0565b506004840185830360808701526123318382611e9b565b9250506005840185830360a087015261234a8382611e9b565b9250506006840154905061235d81612774565b61236a60c0870182611e1d565b5061237481612781565b61238160e0870182611e1d565b50600784018583036101008701526123998382611e9b565b925050600884018583036101208701526123b38382611e9b565b925050600984015490506123c681612774565b6123d4610140870182611e2c565b50819250505092915050565b6123e9816126b3565b82525050565b60006080820190506124046000830189611d91565b61241160208301886123e0565b8181036040830152612424818688611e3b565b90508181036060830152612439818486611e3b565b9050979650505050505050565b600060208201905081810360008301526124608184611daf565b905092915050565b600060208201905061247d6000830184611e2c565b92915050565b6000602082019050818103600083015261249e818486611e3b565b90509392505050565b600060208201905081810360008301526124c081611f21565b9050919050565b600060208201905081810360008301526124e081611f7e565b9050919050565b6000602082019050818103600083015261250081611fdb565b9050919050565b6000602082019050818103600083015261252081612012565b9050919050565b600060208201905081810360008301526125408161206f565b9050919050565b60006020820190508181036000830152612560816120cc565b9050919050565b6000602082019050818103600083015261258081612129565b9050919050565b600060208201905081810360008301526125a081612160565b9050919050565b600060208201905081810360008301526125c1818461229b565b905092915050565b600060408201905081810360008301526125e3818661229b565b905081810360208301526125f8818486611e3b565b9050949350505050565b600060208201905061261760008301846123e0565b92915050565b6000602082019050919050565b60008160005260206000209050919050565b600081519050919050565b600081519050919050565b6000602082019050919050565b600061266a82612693565b9050919050565b60008115159050919050565b600060058210151561268b57fe5b819050919050565b600073ffffffffffffffffffffffffffffffffffffffff82169050919050565b6000819050919050565b60006126c882612693565b9050919050565b6000819050919050565b60006126e4826126fd565b9050919050565b60006126f68261267d565b9050919050565b60006127088261270f565b9050919050565b600061271a82612693565b9050919050565b82818337600083830152505050565b60005b8381101561274e578082015181840152602081019050612733565b8381111561275d576000848401525b50505050565b6000601f19601f8301169050919050565b6000600182049050919050565b60006101008204905091905056fea265627a7a72305820afc18cac22b01e6a343d78e336b0aadf7be7a5b18ecd0c6bb9c4ca332607faf26c6578706572696d656e74616cf50037",
  "source": "/// SPDX-License-Identifier: MIT\r\npragma solidity ^0.5.1;\r\npragma experimental ABIEncoderV2;\r\n\r\n/// @title The contract for buying and selling items on a market\r\ncontract Market {\r\n    uint256 current_auction_id = 0;\r\n    uint256 public activelistings = 0;\r\n\r\n    struct Bid {\r\n        bytes32 bidHash;\r\n        uint256 bidAmount;\r\n    }\r\n    /// @notice structure for each listings\r\n    /// @dev uint is the unique listing id\r\n    /// @dev beneficiary stores the beneficiary address\r\n    /// @dev buyer stores the buyer address\r\n    /// @dev start_price is the price of the item\r\n    /// @dev item_name is the name of the item\r\n    /// @dev item_description has the description of the item\r\n\r\n    struct listings {\r\n        uint256 auction_id;\r\n        address payable beneficiary;\r\n        address payable buyer;\r\n        uint256 start_price;\r\n        string item_name;\r\n        string item_description;\r\n        bool sold_or_withdrawn;\r\n        bool buyer_alloted;\r\n        string pubkey;\r\n        string H;\r\n        State state;\r\n    }\r\n\r\n    /// @dev this event is emitted when a listing is created\r\n    event ListingCreated(\r\n        uint256 indexed auction_id,\r\n        address beneficiary,\r\n        uint256 start_price,\r\n        string item_name,\r\n        string item_description\r\n    );\r\n    /// @dev this event is for when listing is modified ,item sold or withdrawn\r\n    event ListingChanged(address indexed beneficiary, uint256 indexed index);\r\n    /// @dev this event is for when item purchase is requested by buyer\r\n    event PurchaseRequested(\r\n        listings list,\r\n        address indexed buyer,\r\n        string pub_key\r\n    );\r\n    /// @dev this event is for when beneficiary confirms item purchase by buyer\r\n    event encryptedKey(uint256 indexed auction_id, string H);\r\n    /// @dev event emitted when the a item is bought and both the beneficiary and buyer gets the money/item\r\n    event PurchaseComplete(listings list);\r\n    /// @dev this event is for when transaction is aborted\r\n    event Aborted();\r\n\r\n    /// @dev this event is for when listing is modified ,item sold or withdrawn\r\n    event AuctionStarted(address winner, uint256 highestBid);\r\n    /// @dev this event is for when listing is modified ,item sold or withdrawn\r\n    event AuctionEnded(address winner, uint256 highestBid);\r\n\r\n    /// @dev create a listing for all possible listing id and make it private\r\n    mapping(uint256 => listings) private Listings;\r\n\r\n    /// @dev State variables for the items listed. By default, it is Created\r\n    enum State {\r\n        Created,\r\n        Active,\r\n        Sold,\r\n        Delivered,\r\n        Inactive\r\n    }\r\n    State public state;\r\n\r\n    /// @notice Check whether a given condition is true\r\n    /// @param _condition condition statement to verify.\r\n    modifier condition(bool _condition) {\r\n        require(_condition);\r\n        _;\r\n    }\r\n\r\n    /// @notice beneficiary cannot be buyer of the same item\r\n    /// @param auction_id Id of the listing.\r\n    modifier ValidBuyer(uint256 auction_id) {\r\n        require(\r\n            Listings[auction_id].beneficiary != msg.sender,\r\n            \"Invalid Buyer\"\r\n        );\r\n        _;\r\n    }\r\n\r\n    /// @notice Buyer cannot be beneficiary of the same item\r\n    /// @param auction_id Id of the listing.\r\n    modifier Validbeneficiary(uint256 auction_id) {\r\n        require(\r\n            Listings[auction_id].buyer != msg.sender,\r\n            \"Invalid beneficiary\"\r\n        );\r\n        _;\r\n    }\r\n\r\n    /// @notice Check that an item is available\r\n    /// @param auction_id Id of the listing.\r\n    modifier CheckState(uint256 auction_id) {\r\n        require(\r\n            !Listings[auction_id].sold_or_withdrawn,\r\n            \"Item has already been bought / withdrawn\"\r\n        );\r\n        _;\r\n    }\r\n\r\n    /// @notice Item in use should be a valid listing\r\n    /// @param auction_id Id of the listing.\r\n    modifier ValidListing(uint256 auction_id) {\r\n        require(\r\n            auction_id < current_auction_id && auction_id >= 0,\r\n            \"Invalid Listing Id\"\r\n        );\r\n        _;\r\n    }\r\n\r\n    modifier onlyBefore(uint256 _time) {\r\n        require(block.timestamp < _time);\r\n        _;\r\n    }\r\n    modifier onlyAfter(uint256 _time) {\r\n        require(block.timestamp > _time);\r\n        _;\r\n    }\r\n\r\n    /// @notice Check that the string meets the required criteria\r\n    /// @param str The item string.\r\n    modifier ValidString(string memory str) {\r\n        require(\r\n            bytes(str).length <= 50,\r\n            \"String Length is 50 characters maximum\"\r\n        );\r\n        _;\r\n    }\r\n\r\n    /// @notice returns balance of account\r\n    /// @param account Address of the account.\r\n    function getAccountBalance(address account)\r\n        public\r\n        view\r\n        returns (uint256 accountBalance)\r\n    {\r\n        accountBalance = account.balance;\r\n    }\r\n\r\n    /// @notice Create a listing for sale in the market place\r\n    /// @param start_price Price of the item listed.\r\n    /// @param item_name Name of item listed\r\n    /// @param item_description Description of item.\r\n    function createListings(\r\n        uint256 start_price,\r\n        string calldata item_name,\r\n        string calldata item_description\r\n    ) external payable condition(start_price > 0) {\r\n        uint256 auction_id = current_auction_id;\r\n        current_auction_id += 1;\r\n        activelistings += 1;\r\n\r\n        Listings[auction_id] = listings(\r\n            auction_id,\r\n            msg.sender,\r\n            address(0),\r\n            start_price,\r\n            item_name,\r\n            item_description,\r\n            false,\r\n            false,\r\n            \"\",\r\n            \"\",\r\n            State.Active\r\n        );\r\n        /// @dev emit the update\r\n        emit ListingCreated(\r\n            auction_id,\r\n            msg.sender,\r\n            start_price,\r\n            item_name,\r\n            item_description\r\n        );\r\n        emit ListingChanged(msg.sender, activelistings);\r\n    }\r\n\r\n    /// @notice Get all the active listings items in the market\r\n    /// @return a list of active listings\r\n    function fetchactivelistings() external view returns (listings[] memory) {\r\n        uint256 currentIndex = 0;\r\n\r\n        listings[] memory active_list = new listings[](activelistings);\r\n        for (uint256 i = 0; i < current_auction_id; i++) {\r\n            /// @dev only consider listings which are unsold/not withdrawn\r\n            if (Listings[i].sold_or_withdrawn == false) {\r\n                listings storage currentlisting = Listings[i];\r\n                active_list[currentIndex] = currentlisting;\r\n                currentIndex += 1;\r\n            }\r\n        }\r\n        return active_list;\r\n    }\r\n\r\n    /// Get all the listings items in the market\r\n    /// @return a list of all listings\r\n    function fetchalllistings() external view returns (listings[] memory) {\r\n        uint256 currentIndex = 0;\r\n\r\n        listings[] memory list = new listings[](current_auction_id);\r\n        for (uint256 i = 0; i < current_auction_id; i++) {\r\n            listings storage currentlisting = Listings[i];\r\n            list[currentIndex] = currentlisting;\r\n            currentIndex += 1;\r\n        }\r\n        return list;\r\n    }\r\n\r\n    /// @notice Request from buyer to beneficiary for item's purchase\r\n    /// @dev the contract emits a event to let the beneficiary know that an buyer has been found\r\n    /// @param auction_id is the id of the item buyer is interested in\r\n    function requestBuy(uint256 auction_id, string calldata pubkey)\r\n        external\r\n        payable\r\n        ValidBuyer(auction_id)\r\n        ValidListing(auction_id)\r\n        CheckState(auction_id)\r\n    {\r\n        /// Check whether item has a buyer already\r\n        require(\r\n            !Listings[auction_id].buyer_alloted,\r\n            \"the item already has a buyer,in midst of transaction\"\r\n        );\r\n\r\n        /// Check sufficient balance for transfer\r\n        require(\r\n            msg.sender.balance >= Listings[auction_id].start_price,\r\n            \"Insuficient Balance for transaction\"\r\n        );\r\n\r\n        /// Check whether you have provided 2 times the selling price,for security purposes\r\n        require(\r\n            msg.value == 2 * Listings[auction_id].start_price,\r\n            \"The required deposit for the purchase not given \"\r\n        );\r\n\r\n        /// Let the beneficiary know you have found a buyer\r\n        Listings[auction_id].buyer = msg.sender;\r\n        Listings[auction_id].buyer_alloted = true;\r\n        Listings[auction_id].pubkey = pubkey;\r\n        emit PurchaseRequested(Listings[auction_id], msg.sender, pubkey);\r\n    }\r\n\r\n    /// @notice Sale of item from beneficiary's side\r\n    /// @dev Transaction from the beneficiary\r\n    /// @dev listing id is the id of the item being sold_\r\n    /// @dev H is the unique string for the item\r\n    function sellItem(uint256 auction_id, string calldata H)\r\n        external\r\n        payable\r\n        ValidListing(auction_id)\r\n        Validbeneficiary(auction_id)\r\n        CheckState(auction_id)\r\n    {\r\n        /// Check the security deposits\r\n        require(\r\n            msg.value == 2 * Listings[auction_id].start_price,\r\n            \"You have not paid the security deposit\"\r\n        );\r\n        Listings[auction_id].state = State.Sold;\r\n        Listings[auction_id].H = H;\r\n        /// Listings[auction_id].sold_or_withdrawn = true;\r\n\r\n        emit encryptedKey(auction_id, H);\r\n    }\r\n\r\n    /// @notice Confirmation from buyer on receiving item\r\n    /// @dev the buyer confirms to get the refund of the money owed.(start_price)\r\n    /// @dev the beneficiary gets his amount + start_price (3 * start_price)\r\n    /// @param auction_id the listing id is the item being exchanged\r\n    function confirmDelivery(uint256 auction_id)\r\n        external\r\n        payable\r\n        ValidListing(auction_id)\r\n        ValidBuyer(auction_id)\r\n        CheckState(auction_id)\r\n    {\r\n        /// Refund the beneficiary\r\n        Listings[auction_id].sold_or_withdrawn = true;\r\n        Listings[auction_id].beneficiary.transfer(\r\n            3 * Listings[auction_id].start_price\r\n        );\r\n        /// Refund the buyer\r\n        Listings[auction_id].buyer.transfer(Listings[auction_id].start_price);\r\n        activelistings -= 1;\r\n        Listings[auction_id].state = State.Delivered;\r\n        emit ListingChanged(Listings[auction_id].beneficiary, auction_id);\r\n        emit PurchaseComplete(Listings[auction_id]);\r\n    }\r\n\r\n    /// @notice Abort the purchase and reclaim the ether.\r\n    function abort(uint256 auction_id) public CheckState(auction_id) {\r\n        emit Aborted();\r\n        Listings[auction_id].state = State.Inactive;\r\n        activelistings -= 1;\r\n        Listings[auction_id].beneficiary.transfer(address(this).balance);\r\n    }\r\n}",
  "sourcePath": "E:\\DuongTanHuy\\Capstone\\Capstone_I\\source-code-project\\contracts\\Market.sol",
  "compiler": {
    "name": "solc",
    "version": "0.5.1+commit.c8a2cb62.Emscripten.clang"
  },
  "schemaVersion": "3.4.10",
  "updatedAt": "2022-12-16T18:43:11.542Z",
  "networkType": "ethereum",
  "devdoc": {
    "methods": {
      "confirmDelivery(uint256)": {
        "params": {
          "auction_id": "the listing id is the item being exchanged"
        }
      },
      "createListings(uint256,string,string)": {
        "params": {
          "item_description": "Description of item."
        }
      },
      "fetchactivelistings()": {
        "return": "a list of active listings"
      },
      "fetchalllistings()": {
        "return": "a list of all listings"
      },
      "getAccountBalance(address)": {
        "params": {
          "account": "Address of the account."
        }
      },
      "requestBuy(uint256,string)": {
        "params": {
          "auction_id": "is the id of the item buyer is interested in"
        }
      },
      "sellItem(uint256,string)": {
        "details": "H is the unique string for the item"
      }
    },
    "title": "The contract for buying and selling items on a market"
  },
  "userdoc": {
    "methods": {
      "abort(uint256)": {
        "notice": "Abort the purchase and reclaim the ether."
      }
    }
  }
}